:020000040800F2
:10000000189A0020B1020008733300088D310008EF
:1000100071330008DD040008694900080000000091
:100020000000000000000000000000006741000820
:10003000DF04000800000000753300086941000873
:10004000CB020008CB020008CB020008CB0200085C
:10005000CB020008CB020008CB020008CB0200084C
:10006000CB020008CB020008CB020008CB0200083C
:10007000CB020008CB020008CB020008CB0200082C
:10008000CB020008CB020008CB020008CB0200081C
:10009000CB020008CB020008CB020008CB0200080C
:1000A000CB020008CB020008CB020008CB020008FC
:1000B000CB020008CB020008CB020008CB020008EC
:1000C000CB020008CB020008CB020008CB020008DC
:1000D000CB020008CB020008CB020008CB020008CC
:1000E000CB020008CB02000800000000CB02000891
:1000F000CB020008CB020008CB020008CB020008AC
:10010000CB020008CB020008CB020008CB0200089B
:10011000CB020008CB020008CB020008CB0200088B
:10012000CB020008CB020008CB020008CB0200087B
:10013000CB020008CB020008CB020008CB0200086B
:1001400000000000000000000000000000000000AF
:10015000CB020008CB020008CB020008CB0200084B
:10016000CB020008CB020008CB020008CB0200083B
:10017000CB020008CB020008CB020008CB0200082B
:10018000CB020008CB020008CB020008CB0200081B
:10019000CB020008CB020008CB020008CB0200080B
:1001A000CB020008CB020008CB020008CB020008FB
:1001B000CB020008CB020008CB020008CB020008EB
:1001C000CB020008CB020008CB020008CB020008DB
:1001D000CB020008CB020008CB020008CB020008CB
:1001E000CB020008CB020008CB020008CB020008BB
:1001F000CB020008CB020008CB020008CB020008AB
:10020000CB020008CB020008CB020008CB0200089A
:10021000CB020008CB020008CB020008CB0200088A
:10022000CB020008CB020008CB020008000000004F
:10023000CB020008CB02000800000000CB0200083F
:10024000CB020008CB020008CB020008CB0200085A
:10025000CB020008CB020008CB020008CB0200084A
:10026000CB020008CB020008CB020008CB0200083A
:10027000CB020008CB020008CB02000800000000FF
:10028000CB020008CB020008CB02000800000000EF
:1002900000000000CB020008DFF810D000F07CF86E
:1002A00000480047CD6F0008AFF30080189A002087
:1002B0000648804706480047FEE7FEE7FEE7FEE700
:1002C000FEE7FEE7FEE7FEE7FEE7FEE7494200083D
:1002D000990200082DE9F05F0546002092469B46F2
:1002E00088460646814640241BE02846414647464C
:1002F000224600F041F853465A46C01A914110D3A5
:1003000011461846224600F028F82D1A67EB01081E
:100310004F4622460120002100F01FF817EB00098C
:100320004E41201EA4F10104DFDC484631462A4636
:100330004346BDE8F09FD2B201E000F8012B491E10
:10034000FBD270470022F6E710B513460A46044672
:100350001946FFF7F0FF204610BD202A04DB203AA3
:1003600000FA02F1002070479140C2F1200320FA08
:1003700003F3194390407047202A04DB203A21FA06
:1003800002F00021704721FA02F3D040C2F12002AE
:100390009140084319467047064C074D06E0E06857
:1003A00040F0010394E8070098471034AC42F6D3BC
:1003B000FFF776FFE07B0008007C000870B58C1822
:1003C00010F8015B15F0070301D110F8013B2A1169
:1003D00006D110F8012B03E010F8016B01F8016B56
:1003E0005B1EF9D12B0705D40023521E0DD401F852
:1003F000013BFAE710F8013BCB1A921C03E013F81B
:10040000015B01F8015B521EF9D5A142D8D300204F
:1004100070BD000010B501240348210300F0AEF9BF
:1004200000B10024204610BD0004025801460148D6
:1004300002F0E2B9C8400020044810B502F0EEF91D
:10044000042801D0012010BD002010BDC8400020AC
:1004500010B500F015F8012801D0022010BD0748A2
:1004600002F058FA040006D104484FF4804102F02B
:1004700021F800B10124204610BD0000C840002032
:1004800008B501208DF80000FFF7C4FF10B9002067
:100490008DF800009DF8000008BD000038B500246C
:1004A000009313460A460146034802F03DFB00B1A3
:1004B0000124204638BD0000C840002038B5002483
:1004C000009313460A460146034802F00FFC00B1B0
:1004D0000124204638BD0000C8400020FEE77047D8
:1004E00072B6FEE7002200F001B800000E4B70B5B6
:1004F00005465C7A0120002C14D15E7A03F10800D5
:100500009C555E7A03EB860675605D7A2A54587AAC
:10051000421C5A723A232F22303008704B7020460A
:100520008A70CC7070BD0000088A002070B5044647
:1005300000F034F90546601C02D0044800780444F9
:1005400000F02CF9401BA042FAD370BD000000203F
:100550002DE9F84F03247D4D00234FF001094FF0A2
:10056000B04B4FF00F0AE9E009FA03F73A4076D0B2
:100570000E7906F00306012E01D0022E18D1D0F814
:1005800008C04FEA430ECE6804FA0EF82CEA080CB5
:1005900006FA0EF646EA0C068660D0F804C00E791C
:1005A0002CEA070CC6F300169E4046EA0C0646608D
:1005B0000E79F643B6070BD0C6684FEA43088F683A
:1005C00004FA08FC26EA0C0607FA08F73743C76066
:1005D0000E7906F00306022E12D1DE080F694FEAEB
:1005E000437C00EB8606B646366A4FEADC6C0AFAB4
:1005F0000CF807FA0CF726EA08063743CEF8207005
:100600000F7906684FEA430807F0030704FA08FC6D
:1006100007FA08F726EA0C06374307604E6816F417
:10062000403F1CD04A4E376847F0020737603668B3
:100630009F0706F00206009623F0030606F1B04677
:10064000B6463F0FD6F80864DFF808810AFA07FCBF
:10065000404526EA0C0603D14FF0000C41E06CE067
:10066000DFF8F4C0604502D14FF0010C39E0DFF84B
:10067000ECC0604502D14FF0020C32E0DFF8E0C080
:10068000604502D14FF0030C2BE0DFF8D8C0604585
:1006900002D14FF0040C24E0DFF8CCC0604502D159
:1006A0004FF0050C1DE0DFF8C4C0604502D14FF0EB
:1006B000060C16E0DFF8B8C0604502D14FF0070C19
:1006C0000FE0DFF8B0C0604502D14FF0080C08E041
:1006D000DFF8A4C0604502D14FF0090C01E04FF0F3
:1006E0000A0C0CFA07FC4CEA060CCEF808C44F685A
:1006F000DBF80060FF0226EA020600D516435F46DB
:10070000CBF80060D1F804C0DBF804605FEA8C2C01
:1007100026EA020600D516437E606E684F6826EA18
:100720000206BF0300D516436E602E684F6826EAA6
:100730000206FF0300D516432E605B1C0A6832FADE
:1007400003F67FF411AFBDE8F88F00008000005879
:10075000F4440258000002580004025800080258ED
:10076000000C0258001002580014025800180258D9
:10077000001C02580020025800240258006908405A
:1007800000D0012070470AB1816170470904FBE77E
:1007900001480068000C70470010005C0148806848
:1007A0007047000000000020024881680278114470
:1007B0008160704700000020032010B500F078F839
:1007C00001F01AFB0F4A104914681368C4F303229E
:1007D00003F00F038A5CC95C02F01F0201F01F01E5
:1007E000D0400A4A20FA01F11160094908600F203F
:1007F00000F010F808B1012010BD00F02BF8002027
:1008000010BD000018440258647700081000002052
:100810000C00002070B50D4D04462878A0B14FF4AF
:100820007A71B1FBF0F00A490968B1FBF0F002F00F
:100830004BFB48B9102C07D200222146501E00F075
:1008400017F800206C6070BD012070BD0000002012
:100850000C000020054808B5016841F00201016064
:10086000006800F00200009008BD0000F444025847
:100870000E4BF0B41B680D46C3F30223C3F1070609
:10088000042E00D90426191D072901D2002300E0F7
:10089000DB1E012404FA06F19C40491E2940641E17
:1008A000994014402143F0BC04F084B80CED00E002
:1008B000064900F0070210B54FF6FF040868044B24
:1008C000204040EA02201843086010BD0CED00E013
:1008D0000000FA05134970B50A68D243520705D5DE
:1008E000096801F00701814213D118E00A6822F07B
:1008F000070202430A60FFF751FF0A4D4FF47A7670
:100900000446083D07E000BFFFF748FF001BB04268
:1009100001D9012070BD2868C0438004F4D40020B0
:1009200070BD00000C480258F8B50446FFF736FFCA
:1009300005461CB194F8410010B107E00120F8BD54
:10094000204600F047F841F28830A06420686FF03C
:10095000FF02A168036802EB012223F4F85111435E
:100960000160A06C002220212B460090204602F05E
:1009700002FD0028E3D12268D4E907352679E16831
:10098000176845EA0665DFF844C01943104B294350
:100990000025012607EA0C07394311602268D4E9D3
:1009A0000517B4F810C0D2F804E039430EEA030E7C
:1009B0004EEA0C431943516021680A6842F0010273
:1009C0000A60656484F84160F8BD00002FFFFF00F5
:1009D000FEF8E0FF2DE9F041B6B00446142130A83E
:1009E000FFF7B0FCC0216846FFF7ACFC2A4920683D
:1009F00088424DD1002013904FF000710446CDE99C
:100A00000010684600F0AEFB08B1FFF769FD23480F
:100A1000016841F480410160006800F48040359035
:100A20001E480C30016841F040010160016801F08E
:100A300040013591016841F020010160006832AA4F
:100A4000022500F02000359003260A27012182E8C4
:100A5000C2004020CDE93005114830A9FFF778FDEC
:100A600009213294DFF83C804FF49860CDE933617E
:100A7000CDE9300530A94046FFF76AFD300232AAC1
:100A8000CDE9300530A9404682E8D000FFF760FD8F
:100A900036B0BDE8F081000000500052D444025846
:100AA000001802580014025810B501F05FF905490A
:100AB0000968054AC1F30211515C01F01F01C840E9
:100AC00010BD000020440258647700084A4930B540
:100AD000494C0B1D0A680C3409681D68246802F033
:100AE000030305F00102C1F30511C4F3CC0400298E
:100AF00014FB02F200EE102AF8EE400A76D0414ACA
:100B00009FED3E1ADFED3E1AB7EE000A23B1012B2E
:100B10005AD0022B18D15CE0374C283C23689B0646
:100B200012D5394B246801EE901A1168C4F3C10440
:100B3000F8EE612AE34001EE903AC1F30801F8EEC5
:100B4000611A81EEA22A07E002EE101A1168F8EE8F
:100B5000422A81EEA22A45E001EE901A1168F8EED1
:100B6000611A40EE811A71EE800A62EE200AC1F32A
:100B7000462101EE101AB8EE411A31EE001AC0EE0D
:100B8000811ABCEEE11A80ED001A1168C1F306412A
:100B900001EE101AB8EE411A31EE001AC0EE811AB9
:100BA000BCEEE11A80ED011A1168C1F3066101EE95
:100BB000101AB8EE411A31EE000A80EE801ABCEE2F
:100BC000C10A80ED020A30BD01EE901ADFED0F2A56
:100BD00003E001EE901ADFED0E2A1168F8EE611ABB
:100BE00082EEA12AC1F30801B6E7FFE70021016008
:100BF0004160816030BD0000284402580000003987
:100C00000024744C304402580090D0030024744AED
:100C100020BCBE4B494930B5484C0B1D0A68143402
:100C200009681D68246802F00303C5F30012C1F3CC
:100C30000531C4F3CC04002914FB02F200EE102AA3
:100C4000F8EE400A75D03F4A9FED3D1AB7EE000A14
:100C50006BB1DFED3D1A012B01D0022B64D002EE07
:100C6000101A1168F8EE422A81EEA22A21E0334CD4
:100C7000283C23689B0612D5344B246801EE901A59
:100C80001168C4F3C104F8EE612AE34001EE903A22
:100C9000C1F30801F8EE611A81EEA22A0BE001EE21
:100CA000901ADFED2B2A00BFF8EE611A116882EE70
:100CB000A12AC1F3080101EE901A1168F8EE611A39
:100CC00040EE811A71EE800A62EE200AC1F34621DD
:100CD00001EE101AB8EE411A31EE001AC0EE811A78
:100CE000BCEEE11A80ED001A1168C1F3064101EE75
:100CF000101AB8EE411A31EE001AC0EE811ABCEE9D
:100D0000E11A80ED011A1168C1F3066101EE101AB3
:100D1000B8EE411A31EE000A80EE801ABCEEC10A2C
:100D200080ED020A30BD04E001EE901ADFED092AE1
:100D3000BAE70021016041608160F3E7284402586E
:100D400000000039384402580024744A0090D0034F
:100D50000024744C20BCBE4B494930B5484C0B1D97
:100D60000A681C3409681D68246802F00303C5F38F
:100D70000022C1F30551C4F3CC04002914FB02F294
:100D800000EE102AF8EE400A75D03F4A9FED3D1A5A
:100D9000B7EE000A6BB1DFED3D1A012B01D0022B3B
:100DA00064D002EE101A1168F8EE422A81EEA22AEF
:100DB00021E0334C283C23689B0612D5344B246831
:100DC00001EE901A1168C4F3C104F8EE612AE34001
:100DD00001EE903AC1F30801F8EE611A81EEA22A01
:100DE0000BE001EE901ADFED2B2A00BFF8EE611A3E
:100DF000116882EEA12AC1F3080101EE901A116870
:100E0000F8EE611A40EE811A71EE800A62EE200A55
:100E1000C1F3462101EE101AB8EE411A31EE001A64
:100E2000C0EE811ABCEEE11A80ED001A1168C1F320
:100E3000064101EE101AB8EE411A31EE001AC0EE6A
:100E4000811ABCEEE11A80ED011A1168C1F3066146
:100E500001EE101AB8EE411A31EE000A80EE801A47
:100E6000BCEEC10A80ED020A30BD04E001EE901A2A
:100E7000DFED092ABAE70021016041608160F3E7F4
:100E80002844025800000039404402580024744AA3
:100E90000090D0030024744C20BCBE4B2DE9F04FD1
:100EA000AC4A0546DFF8A8A280F48070DFF8AC9267
:100EB00089B01311AA4C0843A748AAF104064FF0C1
:100EC000805C4FF000582CD085F400770F4357D04A
:100ED000DFF87CB285F480670F430BF1080B61D01B
:100EE00085F400670F4374D085F480570F436ED0AC
:100EF00085F400570F434FF480394FF4003E67D01C
:100F000085F400270F4371D085F480370F436ED0EE
:100F100085F480460E436BD085F400420A4368D0C6
:100F20002AE0DAF8001001F00701052924D2DFE8F1
:100F300001F075BC7D25B10006A8FFF7C7FD079835
:100F400009B0BDE8F08F6846FFF764FE0098F7E748
:100F500003A8FFF701FF0398F2E72068C0F3C10080
:100F600022FA00F0ECE72268D20571D561456FD115
:100F70001846E5E74145E3D00020E1E74846DFE7D2
:100F8000DAF8001001F4E07180294FD004DC002968
:100F900044D04029F0D188E0C029EFD0B1F5807F5E
:100FA000EAD177E0DBF8001001F46001B1F5800FC1
:100FB0003CD004DC91B3B1F5001FDDD175E0B1F593
:100FC000C00FDBD0B1F5000FD6D163E001E018E02F
:100FD00030E0DBF8001001F0E061B1F1007F25D0D6
:100FE00008DCD9B1B1F1807FC6D15EE049E06CE0A8
:100FF00079E09CE0B1F1407FC0D0B1F1806FBBD10E
:1010000048E0DAF8001001F4E041B1F5005F0DD0DE
:1010100005DC19B1B1F5805FAED146E094E0B1F5E1
:10102000405FABD0B1F5804FA6D133E0206880009F
:10103000A2D58DE7DAF8001001F4E021B1F5403FC8
:101040006CD006DC61B149457AD0714594D157E046
:1010500037E0B1F5802F65D0B1F5A02F8CD10CE031
:1010600000F0A6FE6CE76846FFF7D4FD019867E73D
:1010700003A8FFF771FE049862E721688903F1D4A1
:101080007AE7DBF8001011F440310ED0494510D05A
:101090007145F5D13168256801F040516D077FF544
:1010A00062AF00297FF45FAF57E720680001E7D502
:1010B00049E720688000E3D503A8FFF74DFE0598B7
:1010C0003EE722689203DBD554E7306810F48030A5
:1010D0003AD04845D4D120680001D1D56846FFF701
:1010E00099FD02982CE7DBF8001001F0E041B1F126
:1010F000405F13D008DC71B1614521D04145BFD1BB
:1011000020688000B4D437E7B1F1804F0AD0B1F144
:10111000A04FB2D030E7FFF7C7FC11E720684007C7
:10112000AED51AE72068C005AAD521E708E0DAF8AD
:10113000001011F04051A0D0614505D041459FD12C
:10114000206800018FD417E72068800198D5F3E666
:10115000504402580090D00340787D010080BB00CD
:10116000004402582DE9FE4F0546DFF8E48350F8AD
:10117000081B0024F64FC943019005F128002646BC
:1011800008F12408009008011DD4A86E50B1B0F5F4
:10119000801F0CD0B0F5001F0ED0B0F5401F1ED040
:1011A00001240FE0386840F40030386017E00198FF
:1011B000022102F005F903E00098022102F090F903
:1011C00004000CD026462888C043C00523D4A86D4F
:1011D00005281ED2DFE800F00C11161B1B00AA6EBA
:1011E000D8F8001021F440111143C8F80010EAE7C4
:1011F000386840F40030386009E00198002102F0BE
:10120000DFF803E00098002102F06AF9044674B1A7
:1012100000E0012426462888C043800528D4E86DD4
:1012200080281ED00CDC90B140280ED114E0AA6DAD
:10123000D8F8001021F007011143C8F80010EAE7C0
:10124000C02813D0B0F5807F10D001240FE038689B
:1012500040F40030386009E00198002102F0B0F855
:1012600003E00098002102F03BF904469CB12646B9
:101270002888DFF8DC92C04309F12C0940052CD402
:10128000D5F8A800B0F5800F20D00DDCA0B1B0F5E6
:10129000001F0FD115E0EA6DD8F8001021F4E071BD
:1012A0001143C8F80010E3E7B0F5C00F13D0B0F554
:1012B000000F10D001240FE0386840F4003038608F
:1012C00009E00198002102F07BF803E0009800217A
:1012D00002F006F904467CB126462888C043000582
:1012E0002DD4D5F8AC00B0F1007F21D00EDCA8B130
:1012F000B0F1807F10D116E0D5F8A820D9F8001001
:1013000021F460011143C9F80010E6E7B0F1407F15
:1013100013D0B0F1806F10D001240FE0386840F492
:101320000030386009E00198002102F049F803E03C
:101330000098002102F0D4F8044674B126462868CB
:10134000C04380011FD4E86CD8B110280FD02028EA
:1013500012D0302815D0012414E0D5F8AC20D9F8EB
:10136000001021F0E0611143C9F80010E7E7386888
:1013700040F40030386004E00198022102F020F8C7
:10138000044674B126462888C043C0042BD4286E76
:10139000B0F5005F20D00DDCA0B1B0F5805F0FD1BB
:1013A00015E06B48EA6C2030016821F030011143F0
:1013B0000160E8E7B0F5405F13D0B0F5804F10D082
:1013C00001240FE0386840F40030386009E00198EB
:1013D000002101F0F5FF03E00098002102F080F801
:1013E00004468CB126462888C043800429D4686E00
:1013F000B0F5403F23D010DC08B3B0F5803F14D0E7
:10140000B0F5003F0FD115E02A6ED8F8001021F496
:10141000E0411143C8F80010E5E7B0F5802F0ED089
:10142000B0F5A02F0BD001240AE00198012101F0B2
:10143000C7FF03E00098012102F052F8044694B17E
:1014400026462888C04340042AD4D5F8B000B0F11D
:10145000405F23D010DC08B3B0F1805F14D0B0F14E
:10146000005F0FD115E06A6ED8F8001021F4E0217A
:101470001143C8F80010E4E7B0F1804F0ED0B0F18E
:10148000A04F0BD001240AE00198012101F098FF40
:1014900003E00098012102F023F8044674B12646C7
:1014A0002888C04300041FD4286FD8B1B0F1805FF2
:1014B0000ED0B0F1005F10D0012414E0D5F8B020B8
:1014C000D9F8001021F0E0411143C9F80010E7E716
:1014D000386840F40030386004E00198012101F0E0
:1014E0006FFF044674B126462868C043C0011ED46D
:1014F000A86CD0B101280ED0022811D0032814D036
:10150000012413E02A6FD8F8001021F04051114354
:10151000C8F80010E8E7386840F40030386004E0AC
:101520000198022101F04CFF0446ACB12646286820
:10153000DFF81CB0C043ABF11C0B400252D405488D
:10154000016841F480710160FFF728F9824611E0DB
:101550002C44025800480258FA48AA6C016821F04D
:10156000030111430160E2E7FFF718F9A0EB0A005D
:10157000642835D8F4480068C005F5D58CBBDFF881
:10158000C4A3B5F8B4100AF1240ADAF8000001F493
:10159000407100F44070884211D0DAF80010DAF897
:1015A000002021F4407142F48032CAF80020DAF8B9
:1015B000002022F48032CAF80020CAF80010D5F8C2
:1015C000B400B0F5807F1AD1FFF7E8F8029012E07E
:1015D000FFF7E4F80299411A41F2883081420AD9B2
:1015E000032426462878DFF85CA3C0430AF1080AE2
:1015F000C00721D03CE0DAF800008007E8D5D5F834
:10160000B410C1F30120032858460DD0016821F41D
:101610007C510160B5F8B420DAF80010C2F30B0277
:101620001143CAF80010DDE7C84A036802EA111244
:1016300023F47C511143ECE7E86F182816D005DC41
:10164000A0B1082808D0102804D10AE020280DD025
:1016500028280BD001240AE00198012101F0B0FEF6
:1016600003E00098012101F03BFF044664B12646E7
:101670002878C04380071ED4A86F062819D2DFE857
:1016800000F0160C11161616EA6FDAF8001021F0A9
:1016900038011143CAF80010EAE70198012101F06E
:1016A0008FFE03E00098012101F01AFF04467CB18F
:1016B00000E0012426462878C04340071FD4D5F80F
:1016C0009400062819D2DFE800F0160C1116161641
:1016D000AA6FDAF8001021F007011143CAF80010D0
:1016E000E9E70198012101F06BFE03E00098012178
:1016F00001F0F6FE0446A4B100E001242646287855
:10170000C04380062BD4D5F89000B0F1405F24D0C0
:1017100011DC10B3B0F1805F15D0B0F1005F10D1D3
:1017200016E0D5F89420D9F8001021F007011143F4
:10173000C9F80010E3E7B0F1804F0ED0B0F1A04F30
:101740000BD001240AE00198002101F039FE03E0EA
:101750000098022101F0C4FE044694B12646287880
:10176000C04340062BD4D5F89C00B0F5406F24D080
:1017700011DC10B3B0F5806F15D0B0F5006F10D14B
:1017800016E0D5F89020DAF8001021F0E04111437E
:10179000CAF80010E3E7B0F5805F0ED0B0F5A05FA7
:1017A0000BD001240AE00198002101F009FE03E0BA
:1017B0000098022101F094FE044694B12646287850
:1017C000C04300062BD4D5F8A000B0F5C04F24D0FC
:1017D00011DC10B3B0F5005F15D0B0F5804F10D11B
:1017E00016E0D5F89C20D9F8001021F4E0511143FF
:1017F000C9F80010E3E7B0F5004F0ED0B0F5204F68
:101800000BD001240AE00198002101F0D9FD03E08A
:101810000098022101F064FE044654B1264628785F
:10182000C04300071ED4D5F88400B0F5805F0AD00D
:101830000FE0D5F8A020D9F8001021F46041114341
:10184000C9F80010EBE70098022101F049FE00B151
:101850000126D5F88420DAF8001021F44051114314
:10186000CAF800102878C043C00613D4D5F89800F1
:10187000B0F5807F05D10098022101F031FE00B162
:101880000126D5F89820D9F8001021F440711143B1
:10189000C9F800102868C043000316D4D5F8A40086
:1018A00038B1B0F5803F09D0B0F5003F0BD001242E
:1018B0000AE00198002101F083FD03E00098022175
:1018C00001F00EFE04468CB126462868C043400352
:1018D00022D4D5F88800B0F5801F11D0B0F5001FD4
:1018E00013D0B0F5401F15D0012414E0D5F8A42082
:1018F000D9F8001021F440311143C9F80010E4E791
:10190000386840F40030386004E00098012101F0AC
:10191000E7FD04465CB126462868C043C00323D4D3
:10192000286DA8B1B0F5803F17D001241BE0D5F891
:101930008820DAF8001021F440111143CAF8001091
:10194000EAE700004C44025800480258CFFFFF006D
:10195000386840F40030386004E00198022101F05A
:101960002FFD0446E4B126462868C043800005D414
:101970000098022101F0B4FD00B101262868C0439F
:1019800080031BD4D5F88000B0B1B0F5807F0FD0B4
:10199000B0F5007F10D0B0F5407F0DD001240CE0F1
:1019A0005A482A6D016821F4803111430160DBE758
:1019B000386840F400303860ECB326462868C043ED
:1019C000C00207D46A6FD8F8001021F0004111431B
:1019D000C8F800102868C043C00008D4D5F8B82063
:1019E000DBF8001021F480411143CBF80010286887
:1019F000C043800207D4EA6ED8F8001021F080714D
:101A00001143C8F800102868C04340000CD4DBF82C
:101A1000001021F40041CBF80010DBF80010D5F8DD
:101A2000BC201143CBF800102868C04308D43748C5
:101A30006A6D016800E018E021F040511143016037
:101A40002868C043000208D4D5F88C20DAF80010CA
:101A500021F440011143CAF8001028790024C04342
:101A600000F0010020430AD00FE0D5F88020DAF81A
:101A7000001021F440711143CAF800109EE701984C
:101A8000002101F09DFC00B106462879C04300F01A
:101A90000200204305D10198012101F091FC00B121
:101AA00006462879C04300F00400204305D1019880
:101AB000022101F085FC00B106462879C04300F000
:101AC0000800204305D10098002101F009FD00B174
:101AD00006462879C04300F01000204305D1009845
:101AE000012101F0FDFC00B106462879C04300F059
:101AF0002000044304D10098022101F0F1FC00B958
:101B000016B10120BDE8FE8F0020FBE74C440258CF
:101B10002DE9F05F04000F467ED0DFF83882D8F858
:101B2000000000F00F00B8420CD2D8F8001021F0ED
:101B30000F013943C8F80010D8F8000000F00F007A
:101B4000B84269D12078844D40070AD520692968B8
:101B500001F07001884204D9296821F07001014325
:101B6000296020787C4E361D00070AD560693168EF
:101B700001F07001884204D9316821F070010143FD
:101B800031602078C0060AD5A069316801F4E061AF
:101B9000884204D9316821F4E06101433160207842
:101BA000DFF8B4B180060BF1080B0CD5E16958469B
:101BB000DBF8002002F07002914204D9026822F0A2
:101BC00070020A430260207880070AD5E06829681D
:101BD00001F00F01884204D9296821F00F01014367
:101BE00029602078C0073ED05B49A2682868183970
:101BF00020F47060104328606068022818D0032821
:101C000019D00968012819D0490700294ADADFF8F4
:101C100048A1AAF1080A00E044E0DAF8002022F026
:101C200007020243CAF80020FEF7B8FD814612E021
:101C300009688903E9E709688901E6E7C905E4E776
:101C4000FEF7ACFDA0EB090141F28830814202D9D8
:101C50000320BDE8F09F6168DAF8000000F038006A
:101C6000B0EBC10FECD1207880070AD5E068296875
:101C700001F00F01884204D2296821F00F010143CD
:101C80002960D8F80010404601F00F01B9420BD985
:101C9000016821F00F0139430160006800F00F0076
:101CA000B84201D00120D4E7207840070AD5206946
:101CB000296801F07001884204D2296821F070017E
:101CC00001432960207800070AD56069316801F076
:101CD0007001884204D2316821F070010143316003
:101CE0002078C0060AD5A069316801F4E061884215
:101CF00004D2316821F4E06101433160207880062C
:101D00000CD5E1695846DBF8002002F070029142E0
:101D100004D2026822F070020A43026000F06CF8FC
:101D20000E492A682B68C2F3032203F00F038A5C72
:101D3000C95C02F01F0201F01F01D040084A20FADE
:101D400001F111600749086007480068BDE8F05FCD
:101D5000FEF760BD00200052184402586477000866
:101D6000100000200C0000200400002030B500F01E
:101D700043F80B4A0B490C4B15681468C5F3032252
:101D800004F00F048A5C095D02F01F0201F01F01DC
:101D9000D040064A20FA01F119601060084630BDB3
:101DA0001844025864770008100000200C0000203E
:101DB00000B5FFF7DBFF05490968054AC1F30211C9
:101DC000515C01F01F01C84000BD00001C440258D6
:101DD0006477000800B5FFF7C9FF05490968054A9F
:101DE000C1F30221515C01F01F01C84000BD000099
:101DF0001C44025864770008454970B54548096895
:101E0000434B103B11F0380208D00111082A03D0CF
:101E1000102A0BD0182A0BD0084670BD1968890605
:101E2000FBD51968C1F3C101C84070BD3A4870BD07
:101E30003749374D18310C1D24350A680968266862
:101E40002D6802F0030406F00102C1F30511C5F389
:101E5000CC0515FB02F200EE102AB8EE400AE9B3F9
:101E60002F4ADFED2E0AB7EE001A6CB1DFED2D1A06
:101E7000012C01D0022C43D002EE101A1068F8EEAB
:101E8000422A81EEA22A1EE01C68A40611D51B6816
:101E900001EE901A1168C3F3C103F8EE612AD8402D
:101EA00001EE900AC1F30800F8EE611A81EEA22A51
:101EB0000BE001EE901ADFED1C2A00BFF8EE611A6C
:101EC000106882EEA12AC0F3080001EE900AF8EE35
:101ED000611A40EE201A31EE810A00E015E022EE90
:101EE000000A1068C0F34620401C00EE900AF8EE8D
:101EF000600A80EE201ABCEEC10A10EE100A70BD16
:101F000001EE901ADFED092AD8E7002070BD00002D
:101F1000104402580090D00340787D010000003941
:101F2000304402580024744A0024744C20BCBE4B38
:101F30002DE9F05F04007DD0FF4F2078FE4D18376B
:101F4000DFF8F493103DC00748D0D9F80000396895
:101F500000F03800102815D0182803D101F0030034
:101F600002280FD06068B0F5803F12D010B1B0F5F4
:101F7000A02F18D0286820F480302860286820F42A
:101F8000802009E02868800328D560680028D2D026
:101F900024E0286840F480302860606888B1FEF74B
:101FA000FDFB064609E0286840F480202860F0E741
:101FB000FEF7F4FB801B64286FD828688003F7D5F0
:101FC0000CE0FEF7EBFB064605E000BFFEF7E6FB84
:101FD000801B6428F0D828688003F7D4207841F269
:101FE0000308D54E0C3E800769D5D9F80000396842
:101FF00010F038000ED0182801D188070AD0E06808
:1020000090B3296821F0190101432960FEF7C6FB4E
:10201000824631E02868400702D5E06800288AD06F
:10202000E168286820F0190008432860FEF7B6FB35
:10203000824607E0DFE000BFFEF7B0FBA0EB0A003E
:102040000228B9D828684007F6D500BFFEF7A0FBE4
:1020500040451BD82069402812D0316821F47C31DA
:1020600041EA003030602AE018E000BFFEF796FB3E
:10207000A0EB0A0002289FD828684007F6D5E5E7BC
:10208000306820F47C3040F40030EBE7207C31688D
:1020900021F0FE4141EA0060E4E70DE1286820F00C
:1020A00001002860FEF77AFB824605E0FEF776FB2A
:1020B000A0EB0A0002288DD828684007F6D42078C3
:1020C000C0065DD5D9F80000DFF86CB2396800F0C1
:1020D0003800ABF1040B082810D0182803D101F008
:1020E000030001280AD0E0690028286838D040F0B1
:1020F00080002860FEF752FB824623E02868C00576
:1021000023D5E069802876D11FE0206A202821D0DD
:10211000316821F0F84141EA8060306030E000BF72
:1021200094F82010DBF8002022F07C5242EA016192
:10213000CBF8001024E000BFFEF730FBA0EB0A0054
:10214000022898D82868C005F6D5FEF721FB40453F
:10215000E6D8DAE7306820F0F84040F08040DCE76D
:1021600020F080002860FEF719FB064605E000BF5E
:10217000FEF714FB801B02289DD82868C005F7D401
:102180002078000729D56C486169643000298046B1
:10219000016811D041F001010160FEF7FFFA064627
:1021A00005E000BFFEF7FAFA801B0228C9D8D8F86C
:1021B00000008007F6D510E021F001010160FEF774
:1021C000EDFA064605E000BFFEF7E8FA801B02289C
:1021D00072D8D8F800008007F6D42078800623D57E
:1021E000A0690028286810D040F480502860FEF7CD
:1021F000D5FA064605E036E1FEF7D0FA801B022844
:102200005AD828688004F7D50EE020F48050286062
:10221000FEF7C4FA064604E0FEF7C0FA801B022867
:102220004AD828688004F7D4207840074FD5DFF8D3
:102230000C81D8F8001041F48071C8F80010FEF746
:10224000ADFA064605E000BFFEF7A8FA801B642839
:1022500032D8D8F80000C005F6D5374EA0686036F1
:1022600001280AD008B1052813D0306820F00100F9
:102270003060306820F0040002E0306840F0010077
:102280003060A06841F2883A90B1FEF787FA804644
:102290000AE0306840F004003060EEE7FEF77EFAB6
:1022A000A0EB0801514507D830688007F6D50EE04D
:1022B000FEF774FA804607E084E000BFFEF76EFA8E
:1022C000A0EB080151457DD830688007F6D4606ADC
:1022D000B0B3DFF86480D9F8001008F120084FF699
:1022E000F87B08F10409C1F3C2010329A8F1040A2B
:1022F00069D00228286820F08070286003D0FEF79B
:102300004DFA044684E0FEF749FA064605E000BFB0
:10231000FEF744FA801B022877D828688001F7D49A
:10232000E26A40F2F331386854F8283F884340EAC3
:1023300002101843386004E0104402580048025864
:10234000B5E0217B434622894FF4FE0C208A4FF0F2
:10235000FE474902267D521E401EA1F50071C2F3C0
:1023600008088AB2761E0CEA004042EA08020243DC
:10237000504607EA06610A431A60DAF8002022F0A4
:102380000102CAF80020D9F80020266A22EA0B02CE
:1023900042EAC602C9F80020DAF80010A26921F06A
:1023A0000C011143CAF800100168E26921F0020132
:1023B00011430160016841F480310160016841F41A
:1023C000003101E021E027E00160016841F4802153
:1023D0000160016841F001010160286840F08070EF
:1023E0002860FEF7DBF9044605E000BFFEF7D6F9EA
:1023F000001B022809D828688001F7D557E000BFE4
:10240000FEF7CCF9001B022802D90320BDE8F09F9B
:1024100028688001F4D44AE039680128D8F800001F
:1024200021D0A26A01F0030393421CD1E26AC1F3F6
:1024300005118A4217D1216BC0F30802491E8A4256
:1024400011D1616BC0F34622491E91420BD1A16BA1
:10245000C0F30642491E914205D1E16BC0F306600C
:10246000491E814201D00120D0E7A16C4E46D9F827
:102470000000C0F3CC00814219D0DAF800005546C4
:1024800020F00100CAF80000FEF788F94FEA0007C3
:10249000FEF784F9B842FBD0A26C306820EA0B004A
:1024A00040EAC2003060286840F001002860002047
:1024B000ACE700002DE9FC5F0446806B0E4603216B
:1024C00084F83010002703285CD0B6F5004F59D0AF
:1024D000B6F5804F4FF000054FF400684FF080696B
:1024E00004D006B3606B40F000603FE0009500212F
:1024F0000195206801F0D0FB80011CD4694620467C
:1025000001F012FC70BB019840032DD5B4F84410C3
:102510002068090401F074F820BB206802211DE046
:10252000606B284322E0009500210195206801F0AE
:10253000B3FB800101D54546F2E76946204601F02C
:10254000F3FB78B90198C0030ED5B4F844102068A5
:10255000090401F055F828B92068002101F09AF823
:102560000028DDD00546DBE74D46D9E76063606BA8
:102570004FF4007BDFF8B8A040B121680127C1F813
:1025800038A042E0606B40F08050EFE700214FF44C
:102590008030FEF783FC010032D0264D3346D4E96B
:1025A00004C0B1FBF5F8D4E90192804510D9A66DBD
:1025B0005E450DD0B6F5807F11D04FEA6506E0B1DB
:1025C0004FEA4008B1FBF8F8B04501D9B1FBF5F08E
:1025D0004946CDE900C0206801F062FB15E0164EC7
:1025E00030B14FEA4008B1FBF8F8A84502D8EFE750
:1025F000A942EDD9B1FBF6F0EAE7B142E6D8E7E748
:10260000606B012740F0006060632068594601F06C
:1026100028F830B122680127C2F838A0616B014365
:102620006163012084F830003846BDE8FC9F00005B
:10263000FF0FE01F80F0FA0200E1F505F0B5C26D72
:10264000920F0A70C26DC2F383624A70C26DC2F308
:1026500001628A70C26D120CCA70B0F85C20120A56
:102660000A7190F85C204A71026E120DCA80026EE7
:10267000C2F303420A72B0F86020C2F3C0324A7259
:10268000B0F86020C2F380328A72B0F86020C2F3E2
:102690004032CA72B0F860200026C2F300320A73DA
:1026A0004E730122836B4FF4007463B1012B3AD057
:1026B000036850499963416B41F08051416380F850
:1026C00030200120F0BDB0F86030456E9B051B0D39
:1026D00043EA95730B61436EC3F3C2630B75436E9C
:1026E000C3F302634B75436EC3F342538B75436E62
:1026F000C3F38243CB75436EC3F3C2330B760D69CC
:102700006D1C85640B7E03F007039B1C9D40856454
:102710000B7A446503F00F0302FA03F35F0A7D436B
:10272000C0E913350EE090F86050436EAD06AD0A77
:1027300045EA13430B610B695B1C9B028364C0E990
:1027400013434465B0F86430C3F380334B76B0F87C
:102750006430C3F3C6138B7690F8643003F07F03C4
:10276000CB76836EDB0F0B77836EC3F341734B77AE
:10277000836EC3F382638B77836EC3F38353CB770C
:10278000836EC3F3405381F8203081F82160836E5B
:10279000C3F3004381F82230B0F86830C3F3C0338C
:1027A00081F82330B0F86830C3F3803381F82430E7
:1027B000B0F86830C3F3403381F82530B0F86830A2
:1027C000C3F3003381F82630B0F86830C3F38123B7
:1027D00081F82730B0F86830C3F3012381F828303E
:1027E00090F86800C0F3460081F8290081F82A209B
:1027F0000020F0BDFF0FE01F826B0A60C26B4A60D1
:10280000026C8A60426CCA60826C0A61C26C4A6166
:10281000026D8A61406DC8610020704770B5B0F8E4
:102820004410002504460068090401F020F818B19E
:10283000616B0143616304E02068002101F02CFA20
:102840000546C5F3432070BD2DE9F041054690F8DB
:10285000300090B00C460026032810D06946284668
:1028600001F0AAFB2A4F4FF0010860B12A68012647
:1028700097636A6B02436A6385F8308039E0012010
:1028800010B0BDE8F08100994FF47F40C1F3811191
:1028900021700099C1F340116170009900EA112282
:1028A00042EA11616180019909BA6160029921725D
:1028B0000299090A61720299C1F30351A172DDE91B
:1028C000022100EA1240C9B20843A0810398C0F374
:1028D0008520A0730398C0F30120E0730398C0F330
:1028E00003102074039800F00F0060740498000E29
:1028F000A07428684FF4007100F0B3FE28B12A6874
:1029000001269763686385F830803046B8E7000099
:10291000FF0FE01FF0B5040085B020D094F8300020
:10292000002518B92046257600F098F8042084F890
:102930003000204600F03CF888B969462046FFF791
:1029400083FF60B99DF81010A26B9DF81100012A59
:1029500008D0A5652046E168FFF7ACFD58B101201D
:1029600005B0F0BD014302D04FF4007001E04FF418
:102970008070A065EEE7FDF711FF0127064604E031
:10298000FDF70CFF801B401C0AD02046FFF746FFD6
:102990000428F5D16563E56284F830700020DFE734
:1029A0004FF00040606384F830700320D8E70000E7
:1029B0002DE9FC414FF0000804464FF480304146B9
:1029C000FEF76CFA05004FF0010723D0204843467C
:1029D00042464146B5FBF0F6CDE90086206801F09D
:1029E0005FF9206801F06CF91EB17000B5FBF0F5DD
:1029F0002DB11848B0FBF5F0401CFDF797FD2046BF
:102A000001F080FA60B100BF84F83070616B01435F
:102A1000616319E04FF0006084F83070606313E088
:102A2000204601F0F3F90028EED120684FF4007140
:102A300000F017FE002808D0226807499163616BF7
:102A40000143616384F830700120BDE8FC8100001F
:102A500000350C0010210100FF0FE01F2DE9F041AF
:102A6000B6B00446142130A8FDF76CFCC0216846BE
:102A7000FDF768FC2849206888424AD100224FF0BF
:102A80000408022514464FF4803168468DE826007C
:102A9000C027CDE907721023099214910126CDE9D0
:102AA0000338CDE90565FEF75DFB08B1FDF718FDBC
:102AB0001A48016841F480310160006800F48030F8
:102AC000359016480C30016841F00401016001683E
:102AD00001F004013591016841F0080101600068CE
:102AE00032AA032600F0080035904FF4F850CDE9E3
:102AF00030050C270A4882E8D00030A9FDF728FDF0
:102B000032AA084830A982E8D000CDE93085FDF727
:102B10001FFD36B0BDE8F08100700052D444025869
:102B200000080258000C02582DE9F04F87B0994672
:102B300017460D460446FDF731FE06903DB194F868
:102B40003000012807D0606B40F000500DE0606B52
:102B500040F0006009E0226D002007EB090160638E
:102B6000914204D9606B40F000706063A8E00321DB
:102B700084F830102168C862A16B012900D07F025F
:102B80004FF0020ACDE903A090264FF0FF324FEA42
:102B9000492305908DE84C0080462068694600F086
:102BA00011FF2068B9F1010F4FF00106C16841F033
:102BB0004001C16006D9C4F82CA03946206800F055
:102BC000C1FD04E0E6623946206800F0D5FDDFF87B
:102BD00014A150B12368C3F838A0616B014361634D
:102BE00084F83060C4F82C806AE0DDF804B01FE09F
:102BF000406B000414D5BBF1200F11D300272068CF
:102C000001F064F8020A2870010C6A70030EA970C2
:102C10007F1CEB70082F05F10405F0D3ABF1200BFE
:102C2000FDF7BCFD0699411A1098814221D200B3EC
:102C30002068416B11F4957FDAD0C16821F0400122
:102C4000C1602068416BC90522D5B9F1010F1FD9B8
:102C5000A16B03291CD000F057FEC8B12368C3F84C
:102C600038A0626B0243626384F83060C4F82C8041
:102C700026E02268C2F838A0606B40F00040606334
:102C800084F83060C4F82C80032007B0BDE8F08FD2
:102C90002068416B090706D5C0F838A0616B404633
:102CA00041F0080108E0416B89070BD5C0F838A056
:102CB000616B404641F00201616384F83060E0627C
:102CC0000120E2E7416B890606D5C0F838A0616BA8
:102CD000404641F02001EFE70349816384F830600A
:102CE0000020D2E7FF0FE01F3A0F00182DE9F04F48
:102CF00089B09A4616460D460446FDF74FFD0690EC
:102D00003DB194F83000012807D0606B40F00050CE
:102D10000DE0606B40F0006009E0226D002006EBE2
:102D20000A016063914204D9606B40F000706063F7
:102D3000B2E0032184F830102168C862A16B012938
:102D400000D076024FF0FF314FEA4A2205909023DF
:102D50000490CDE90230CDE9001280462068694632
:102D600000F030FE2068C168BAF1010F41F0400266
:102D7000C26006D92020E0622068314600F0EEFDF6
:102D800005E01020E0622068314600F001FEDFF827
:102D900030B106004FF001090AD02368C3F838B0FB
:102DA000606B3043606384F83090C4F82C8073E02B
:102DB0000198089027E0406B40041CD50898202813
:102DC00019D3002728780790697840EA01200790F6
:102DD000A97840EA01400790E9782D1D40EA01609A
:102DE0000790206807A900F089FF7F1C082FE9D30E
:102DF000089820380890FDF7D1FC0699411A1298DE
:102E0000814221D200B32068416B11F48D7FD2D072
:102E1000C16821F04001C1602068416BC90521D51E
:102E2000BAF1010F1ED9A16B03291BD000F06CFD74
:102E3000C0B12568C5F838B0616B0143616384F89F
:102E40003090C4F82C8027E02368C3F838B0626B58
:102E50003243626384F83090C4F82C80032009B0B8
:102E6000BDE8F08F2068416B090707D54946C0F8D7
:102E700038B0626B404642F0080209E0416B8907B6
:102E80000CD54946C0F838B0626B404642F00202A9
:102E9000626384F83010E0620120E0E7416BC9060C
:102EA00007D54946C0F838B0626B404642F0100280
:102EB000EEE7044A826384F830900020CFE70000F8
:102EC000FF0FE01F3A0F0018401EB0F1807F10B5D1
:102ED00001D3012010BD4FF0E02460610F21601785
:102EE00001F068FD0020A0610721216110BD30B50F
:102EF00090F88410012918D0012280F88420242120
:102F0000C0F888100022202401680B680D6823F0A7
:102F1000005325F001050D60426601680B60C0F8A2
:102F2000884080F88420104630BD022030BD70B546
:102F3000044690F8840001281DD0012284F88420E2
:102F40002420C4F8880020680568026822F0010285
:102F500002602068826822F060620A438260204634
:102F600001F0E0F92268202100201560C4F88810E3
:102F700084F8840070BD022070BD70B5044690F8DE
:102F8000840001281DD0012284F884202420C4F864
:102F9000880020680568026822F00102026020684B
:102FA000826822F060420A438260204601F0BAF94A
:102FB0002268202100201560C4F8881084F884005D
:102FC00070BD022070BD10B5040003D0D4F8880095
:102FD00010B107E0012010BD002084F884002046D5
:102FE00000F026F82420C4F888002068016821F049
:102FF00001010160204601F09BFA0128EBD0A06A94
:1030000010B1204601F0B0F92068416821F49041E8
:1030100041602068816821F02A0181602068016890
:1030200041F0010101602046BDE8104001F000BA06
:1030300070B5B6B00446142130A8FDF783F9C0215D
:103040006846FDF77FF92149206888423CD100207D
:103050001E9002210446CDE900106846FEF782F872
:1030600008B1FDF73DFA1A48016841F400210160FA
:10307000006800F40020359015480838016841F4D4
:1030800080710160016801F480713591016841F03F
:103090000101016000680225082600F0010035905A
:1030A00028023090CDE931540A4830A9CDE93346A1
:1030B000FDF74EFA01203090CDE93154064830A991
:1030C000CDE93346FDF744FA36B070BD004C004000
:1030D000E844025800200258000002582DE9F84345
:1030E0000446D0F88800984616460D46202802D09F
:1030F0000220BDE8F883A5B19EB10021C4F890106C
:103100002120C4F888001834FDF748FB814654F8A4
:10311000100CA687E6872027183CB0F5805F02D008
:1031200003E00120E5E7206910B12E46002510E0FC
:1031300000260EE08021204601F0D0FBC0B9DEB1B0
:1031400016F8010B21688862B4F85600401EA4F8F6
:103150005600B4F856004B464FF00002CDF8008000
:103160000028E7D14FF04001204601F0B7FB48B1FD
:10317000C4F888700320BCE735F8020B2168C0F35F
:103180000800E0E7C4F888700020B2E7FEE700001E
:103190000449054810B5FDF7A5F90249491E087014
:1031A00010BD000062400020747700082DE9F04354
:1031B00087B014216846FDF7C5F83748016841F02B
:1031C00004010160016801F004010591016841F00A
:1031D00008010160016801F008010591016841F4EE
:1031E00080710160016801F480710591016841F00E
:1031F00040010160016801F040010591016841F062
:1032000080010160016801F080010591016841F0D1
:1032100020010160016801F020010591016841F081
:1032200001010160016801F001010591016841F0AF
:103230000201016000680122DFF86080D60300F01F
:103240000200314605904046FDF79DFADFF85090A8
:10325000F711002239464846FDF795FA01256946DF
:1032600000244046CDE90065CDE90254FDF770F930
:1032700000976946CDE9015448460394FDF768F983
:103280000221280300900748CDE901416946FDF776
:103290005FF907B0BDE8F083E04402580008025827
:1032A000002002580004025870B50D480021042384
:1032B0000A4E16240522C0E902310125C0E9044165
:1032C000C0E906510162C0E90062FDF72DFB00284C
:1032D00003D0BDE87040FDF703B970BD0050005247
:1032E0007C400020074800214FF4804310B5044C77
:1032F0000222C0E90041C0E90213C0E9041210BD76
:1033000000700052C84000201848002110B5164C2B
:103310000C224FF4E1330460C0E90131C160C0E91F
:1033200004128161C161016241628162FFF74BFE5B
:1033300008B1FDF7D5F80D480021FFF71EFE08B1D2
:10334000FDF7CEF809480021FFF7F1FD08B1FDF7C0
:10335000C7F80648FFF7CBFD002803D0BDE81040B2
:10336000FDF7BEB810BD0000004C004044410020F5
:10337000FEE7FEE770472DE9F041984616460F46F6
:103380000446069D08E0681C06D0FDF707FAA0EB8E
:103390000800A8420AD84DB120688068384000D0A3
:1033A0000120B042EFD10020BDE8F081042084F874
:1033B0004100606C40F0010060640120F4E700000F
:1033C0002DE9F047454D044689464FF0000A28682C
:1033D000C04380070AD0414E283E306820F080600C
:1033E0003060FDF7DBF90746B04608E00120BDE894
:1033F000F08700BFFDF7D2F9C01B022867D8D8F8C4
:1034000000000001F6D4206829684FF4FE0721F47B
:103410007C313E0241EA00302860207AA389B4F86A
:1034200004C040022D4D2D495B1E227CACF1010CE5
:103430001035091DA0F5007080B2521ECCF3080CA7
:1034400007EA034340EA0C00184306EA026210430D
:1034500028600868626920F0C000104308600A68AC
:10346000A06922F0200202430A60281D0A6822F0A7
:1034700010020A6002684FF6F873E4699A4342EA60
:10348000C40202600868B9F1000F40F010020A603F
:1034900011D00868B9F1010F11D040F40010086094
:1034A000D8F80000444640F08060C8F80000FDF7FE
:1034B00075F905460DE0086840F40020EFE740F498
:1034C0008010ECE7FDF76AF9401B022801D90320C0
:1034D0008DE720680001F5D5504688E7284402585A
:1034E0002DE9F047454D044689464FF0000A28680B
:1034F000C04380070AD0414E283E306820F08050FB
:103500003060FDF74BF90746B04608E00120BDE802
:10351000F08700BFFDF742F9C01B022867D8D8F832
:1035200000008000F6D4208829684FF4FE0721F0BF
:103530007C713E0241EA00502860207AA389B4F8E9
:1035400004C040022D4D2D495B1E227CACF1010CC4
:103550001835091DA0F5007080B2521ECCF3080C7E
:1035600007EA034340EA0C00184306EA02621043EC
:1035700028600868626920F44060104308600A68A7
:10358000A06922F4007202430A60281D0A6822F42E
:1035900080720A6002684FF6F873E4699A4342EA5F
:1035A000C40202600868B9F1000F40F480720A603A
:1035B00011D00868B9F1010F11D040F08070086097
:1035C000D8F80000444640F08050C8F80000FDF7ED
:1035D000E5F805460DE0086840F48000EFE740F4A8
:1035E0000000ECE7FDF7DAF8401B022801D90320C0
:1035F0008DE720688000F5D5504688E728440258BA
:1036000030B585B0044637204FF480720DF1080CB8
:10361000CDE9001000236946150120468CE82C00F6
:1036200000F058FB372141F28832204600F0DEF9E5
:1036300005B030BD30B585B0044629204FF4807206
:103640000DF1080CCDE90010002369461501204654
:103650008CE82C0000F03EFB204600F083FA05B019
:1036600030BD30B50446102085B00DF1080C0201C4
:103670000502CDE90010002369468CE82C002046A5
:1036800000F028FB102141F28832204600F0AEF90C
:1036900005B030BD30B585B0044606204FF48072C9
:1036A0000DF1080CCDE900100023694615012046F4
:1036B0008CE82C0000F00EFB062141F288322046F7
:1036C00000F094F905B030BD30B585B00546002452
:1036D00069464FF48050009401940294CDE9034070
:1036E000284600F0F7FA0B4A4FF4FA5041F28831BD
:1036F0001268B2FBF0F04843401E03D24FF0004086
:1037000005B030BD696B0906F6D503492046A963AB
:10371000F6E700000C000020C500200030B50821AD
:10372000044685B04FF4D5704A0100234D028DE860
:103730002F006946204600F0CDFA204600F07CFAC2
:1037400005B030BD30B585B0044612204FF480720C
:103750000DF1080CCDE90010002369461501204643
:103760008CE82C0000F0B6FA122141F28832204693
:1037700000F03CF905B030BD30B585B004461120ED
:103780004FF480720DF1080CCDE90010002369465A
:10379000150120468CE82C0000F09CFA112141F222
:1037A0008832204600F022F905B030BD30B585B032
:1037B000044607204FF480720DF1080CCDE900108B
:1037C00000236946150120468CE82C0000F082FA9F
:1037D000072141F28832204600F008F905B030BDDB
:1037E00010B585B00446002102204FF44072C30298
:1037F0000493CDE90010CDE902216946204600F08E
:1038000069FA204600F084F905B010BD30B585B0E6
:10381000044609200DF1080C0023CDE900104FF4F7
:10382000407269464FF4805520468CE82C0000F029
:1038300051FA204600F06CF905B030BD10B585B0E6
:103840000446002133204FF48072CDE90221CDE9F6
:103850000010130169462046049300F03BFA33211F
:1038600041F28832204600F0C1F805B010BD30B5F5
:1038700085B004460D204FF480720DF1080CCDE99F
:10388000001000236946150120468CE82C0000F04A
:1038900021FA0D2141F28832204600F0A7F805B048
:1038A00030BD30B585B00C460021054603204FF4ED
:1038B0008072CDE90221CDE9001013016946284646
:1038C000049300F007FA03212246284600F06EF91F
:1038D00005B030BD10B585B0044600210D204FF471
:1038E0008072CDE90221CDE900101301694620461E
:1038F000049300F0EFF90D2141F28832204600F0E8
:1039000075F805B010BD000010B585B004464FF441
:10391000807200200C2113018DE80700CDE903031C
:10392000E06840F08000E060E06820F04000E06087
:103930006946204600F0CEF9074A0C21204600F0E7
:1039400055F8E168B0F1007F21F08001E16000D11D
:10395000002005B010BD000000E1F50530B585B0D0
:10396000044619204FF480720DF1080CCDE90010C7
:1039700000236946150120468CE82C0000F0AAF9C6
:10398000192141F28832204600F030F805B030BDF0
:1039900030B585B0044618204FF480720DF1080C44
:1039A000CDE9001000236946150120468CE82C0063
:1039B00000F090F9182141F28832204600F016F804
:1039C00005B030BD70B50A6842624A688262C46A56
:1039D000D1E90225D1E9043624F0FF012A4333431B
:1039E0001A431143C162002070BD000030B5464D3E
:1039F0004FF4FA53434C2D68B5FBF3F353435B1E6E
:103A000002D24FF0004030BD426B2242F7D0920408
:103A1000F5D4426B520703D504218163084630BDBB
:103A2000426BD20702D00121816306E0354A803221
:103A300082630269D2B28A4201D0012030BD0021E6
:103A400000F02AF93149084201D1002030BD002898
:103A500002DA4FF0007030BD410001D5402030BD8A
:103A6000810001D5802030BDC10002D54FF48070A7
:103A700030BD010102D54FF4007030BD410102D5C7
:103A80004FF4806030BDC10102D54FF4006030BDFD
:103A9000010202D54FF4805030BD410202D54FF4EF
:103AA000005030BD810202D54FF4804030BDC102CC
:103AB00002D54FF4004030BD410302D54FF4003031
:103AC00030BD810302D54FF4802030BDC10302D543
:103AD0004FF4002030BD010402D54FF4801030BDFA
:103AE000410402D54FF4001030BD810402D54FF4DB
:103AF000800030BD000702D54FF4000030BD4FF408
:103B0000803030BD450020000C00002008E0FFFDA3
:103B1000124B4FF4FA5141F288321B68B3FBF1F1BA
:103B20005143491E02D24FF000407047426B12F0E1
:103B3000450FF6D09204F4D4416B490703D5042114
:103B4000816308467047416BC90703D00121816337
:103B50000846704702498163002070470C0000202E
:103B6000C50020000F4B4FF4FA5141F288321B6818
:103B7000B3FBF1F15143491E02D24FF000407047B0
:103B8000426B12F0450FF6D09204F4D4416B490712
:103B900003D50421816308467047034981630020EF
:103BA000704700000C000020C500200030B5204DFB
:103BB0004FF4FA5341F288342D68B5FBF3F36343B5
:103BC0005B1E02D24FF0004030BD446B14F0450F35
:103BD000F6D0A404F4D4436B5B0703D504218163BE
:103BE000084630BD436BDB0702D00121816303E04F
:103BF0000369DBB28B4201D0012030BD0D498163E6
:103C0000002100F049F810F4604F04D0410406D5BB
:103C10004FF4005030BD000C1080002030BD000477
:103C200002D54FF4805030BD4FF4803030BD0000DD
:103C30000C000020C5002000144B4FF4FA5141F253
:103C400088321B68B3FBF1F15143491E02D24FF099
:103C500000407047426B12F0450FF6D09204F4D446
:103C6000416B490703D50421816308467047416BC6
:103C7000C90703D00121816308467047416B49069B
:103C800001D5402181630020704700000C00002016
:103C9000006800F003007047084440697047000066
:103CA00030B511434268DDE903542B43034D1943FA
:103CB00021432A400A434260002030BD002CC0FF4F
:103CC000016841F00301016000207047D0F88000D6
:103CD0007047000070B5084D0A688260C368D1E97A
:103CE0000126D1E903412B4032430C4322431343C5
:103CF000C360002070BD0000C0E0FEFF0968C0F88E
:103D0000801000207047000010B5064C0120207084
:103D1000FCF792FB18B9207820F001002070207881
:103D200010BD0000604000202DE9F04F87B00D4627
:103D30000446FCF733FD0026069020680821B346B0
:103D40003746FFF78EFC002833D1B4F844102068C2
:103D50000904FFF755FC00282BD1431E4FF008093A
:103D60004FF0020A4FF0300C4FF00108CDF80CA0D4
:103D70008DE80812CDE9046820686946FFF722FE45
:103D80002068FFF75BFD002813D140F22A58206815
:103D9000416B11EA080F06D1416B090315D4BBF141
:103DA000000F09D011E0416B090717D5C0F8389012
:103DB000082007B0BDE8F08FFFF788FF06462068AF
:103DC000FFF784FF07464FF0010BFCF7E7FC06996D
:103DD000401A401CDBD14FF00040EAE7416B8907F5
:103DE00003D5C0F838A00220E3E7416B890603D56C
:103DF000202181630846DCE7034A39BA33BA82637B
:103E00000020C5E90013D4E73A0F001870B58CB054
:103E100004460020ADF82C00FCF7C0FC05462068E5
:103E2000FFF736FF002853D0A06B032841D020684D
:103E3000FFF7D6FC002849D120680021FFF72CFFAE
:103E4000E06604212068FFF727FF2067082120682B
:103E5000FFF722FF60670C212068FFF71DFFA16BB1
:103E6000A067032925D041F2883600BFBDF82C0099
:103E700088B3A06B03281CD0BDF82C1061642068A7
:103E80000904FFF7C3FC002820D120680021FFF7B8
:103E900003FFE06504212068FFF7FEFE206608218D
:103EA0002068FFF7F9FE60660C212068FFF7F4FE3A
:103EB000A06604212068FFF7EFFE000D694620642C
:103EC0002046FEF7BBFBA8B14FF080500CB070BD90
:103ED0004FF08060FAE7FFE720680BA9FFF7E1FCED
:103EE0000028F3D1FCF75AFC401BB042BED34FF080
:103EF0000040EBE7B4F8441020680904FFF756FCD3
:103F0000E4E700002DE9F84F002604463546B046A8
:103F100000960068FFF7D8FB002829D12068FFF73A
:103F2000FDFBB0F1004F4FF001094FF0805B4FF601
:103F3000FF7702D0C4F83C9008E0E6632068FFF702
:103F4000C3FB002814D1E06B01281ED1206800219A
:103F5000FFF756FB58B918E020680021FFF750FB27
:103F6000002805D120685146FFF764FB10B1584680
:103F7000BDE8F88F20680021FFF78EFE4FEAD07869
:103F800005460098401C009002E0DFF828A0009849
:103F9000B84202D2B8F1000FDED00098B84202D386
:103FA0004FF08070E4E76800A66301D5C4F838904C
:103FB0000020DDE7000010C12DE9F04186B00D467C
:103FC0000446FCF7EBFB002107462068FFF764FE80
:103FD000800104D54FF4006006B0BDE8F081206890
:103FE0004021FFF73EFBC0B9B4F844102068090433
:103FF000FFF706FB88B940214FF0FF3060224FF0F9
:10400000010C022300268DE84F1020686946FFF757
:10401000D9FC2068FFF75EFC98B1616B6163DBE758
:10402000406B000407D500262068FFF74FFE761C82
:10403000082E01C5F8D3FCF7B1FBC01B401C02D110
:1040400027E04FF000482068416B11F4957FE7D0DE
:10405000416B090701D50820BEE7416B890701D5EF
:104060000220B9E7406B80060AD52020B4E700BFE4
:10407000FFF72CFE01C5FCF791FBC01B401C08D0CC
:104080002068416BC904F3D40146034888630020CB
:10409000A2E74046A0E700003A0F001870B5064CB2
:1040A000054601202070FCF7D3F918B92846FFF720
:1040B0002BFE2070207870BD60400020144810B5A1
:1040C0008AB014460078C00702D003200AB010BDA1
:1040D00039B1012907D002290BD0032910D00420BF
:1040E000F4E70020F2E76846FCF7A0F90699002003
:1040F0000CE06846FCF79AF9079900202180E5E773
:104100006846FCF793F907990020490A2160DDE72A
:104110006040002070B501241D4616460846A31EC7
:104120002A463146FCF7BAF928B900BFFCF784F9F2
:104130000028FBD10024204670BDFFF7E5BD00003C
:1041400070B501241D4616460846A31E2A46314670
:10415000FCF7B4F928B900BFFCF76EF90028FBD1D1
:104160000024204670BD7047FCF71EBB70B59CB0A4
:104170004C216846FCF7E6F8202113A8FCF7E2F88A
:104180000220FCF7A7FB2D4900242D480A6822F0E5
:1041900001020A600A68026842F440420260026852
:1041A00002F440421B9202689204FCD5254A13682F
:1041B00043F002031360126802F002021B920268CD
:1041C00042F44042026002680A6842F001020A605A
:1041D000096801F001011B9101688904FCD50DF10A
:1041E000280C022009900521C0228CE80700C30397
:1041F0000F9008250D9001260E90CDE91054CDE9C1
:10420000006368461294FDF793FE08B172B6FEE7AC
:1042100040201A903F210301CDE916500322CDE939
:10422000180313AB13A883E816000421FDF770FCF4
:10423000002801D072B6FEE71CB070BD2C040058F7
:1042400018480258F44402582C48F0B52C4A01682A
:1042500041F470010160106800F00F00072804D2DB
:10426000106820F00F00C01D106026490020254C6A
:1042700010340B68244D43F001030B6020600B6881
:104280002B400B60136803F00F03072B04D913684E
:1042900023F00F03DB1D13601A4C1C4A18341C4B0F
:1042A000261D371D2060174C1A4D28343060261DFE
:1042B0003860371D23603B1D35601C1D3A60251D8D
:1042C0002E1D1860331D22602860326018600A6855
:1042D0000C4B114C22F4802260330A601860206875
:1042E0006FF30F00B0F1005F03D20C490120C1F859
:1042F000080143F2D2000A490860F0BD88ED00E0F1
:1043000000200052004402587FEDF6EA80020101CD
:10431000000202020000FF010010005C008000515A
:104320000040005230B5416EB9B101680D4B03F148
:1043300008048A688968C2F34262490F5D5C615C67
:104340002D01B5FBF1F1A0F86A10995CA25C09019E
:10435000B1FBF2F1A0F8681030BD0121A0F86A109D
:10436000F8E700005477000890F82810C90706D035
:104370000168C36A4A6822F400321A434A6090F81E
:104380002810890706D50168036B4A6822F4803239
:104390001A434A6090F82810490706D50168436B14
:1043A0004A6822F480221A434A6090F828100907CC
:1043B00006D50168836B4A6822F400421A434A60BA
:1043C00090F82810C90606D50168C36B8A6822F4E4
:1043D00080521A438A6090F82810890606D5016831
:1043E000036C8A6822F400521A438A6090F82810FD
:1043F000490611D50168436C4A6822F480121A43B9
:104400004A60416CB1F5801F06D10168836C4A682F
:1044100022F4C0021A434A6090F82810090606D513
:104420000168C26C486820F400201043486070475F
:104430002DE9F84300250446C0F89050FCF7AEF98A
:104440008046206820266FF07E470068000713D55D
:104450000022434631042046009700F03FFA58B14D
:10446000216851E8000F20F0800041E80002002A96
:10447000F6D1C4F8886021E020680068400722D5A2
:10448000002243464FF480012046009700F026FAB0
:10449000C8B1206850E8001F21F4907140E8001274
:1044A000002AF6D12068083050E8001F21F00101F1
:1044B00040E80012002AF5D1C4F88C60032084F88B
:1044C0008450BDE8F883C4F88860C4F88C60E56661
:1044D0002567002084F88450F3E7000010B50268D7
:1044E00052E8001F21F4907142E80013002BF6D12E
:1044F0000E4B0268083252E8001F194042E80014CF
:10450000002CF6D1C16E012908D1026852E8001FC3
:1045100021F0100142E80013002BF6D100212022E7
:10452000C0F88C20C166416710BD0000FEFFFFEFA0
:104530002DE9F04304468068D84E87B0D84B2168F7
:10454000D4E90427D4F81CC010430A68002547EAC0
:104550000C073843324002430A602068E268416831
:1045600021F44051114341602268A1699A4201D06F
:10457000206A01439768DFF82CC3CB4ECB4807EA8B
:104580000C070F4397602168676ACA6A22F00F021E
:104590003A43CA622268B2420ED1006800F0380085
:1045A000182873D047DCB8B3082879D010286FD109
:1045B00078E028287ED17BE0BD498A4209D1006895
:1045C00000F00700062875D2DFE800F0546A6C6E30
:1045D0007072B8498A4209D1006800F007000628C5
:1045E00068D2DFE800F0475D5F616365B2498A42E7
:1045F00009D1006800F0070006285BD2DFE800F070
:104600003A5052545658AD498A420BD1006800F0D6
:10461000070006284ED200E010E0DFE800F02B4152
:1046200043454749A6498A420AD1006800F038004C
:10463000182839D0B7DD2028BBD13CE001203AE072
:10464000A0498A4209D1006800F00700062831D24B
:10465000DFE800F01026282A2C2E9B498A420BD135
:10466000006800F00700062824D2DFE800F00319F4
:104670001B1D1F2100201EE09A421BD18B48001DEC
:10468000006800F00700062814D202E00CE007E002
:1046900010E0DFE800F0030507090B0D02200AE037
:1046A000042008E0082006E0102004E0202002E0BA
:1046B000402000E080208549DFF814829A42854A34
:1046C0004FF400434FEA21174FF000064ED1102857
:1046D0001AD006DC022809D004280BD008287CD187
:1046E0000DE020283ED0402877D13DE0FCF7DCF9F2
:1046F000014610E06846FCF78DFA01990BE003A82B
:10470000FCF72AFB049906E01068800605D51068BE
:10471000C0F3C100C140002970D0606A676838F8F2
:10472000102007EB4703B1FBF2F0834255D8B0EB02
:10473000073F52D8002308461946FBF7CBFD024637
:104740007808130E120243EA012110183A4671410B
:104750000023FBF7BFFD604AA0F5407191423CD8B1
:1047600021688FE03946D8E71946D6E7D4F81CC04F
:104770004FF6EF799C4546D1082819D005DC58B191
:1047800001280CD0042875D10DE0102815D0202860
:1047900035D040286ED134E0FDF70AFB01E0FDF78B
:1047A00019FB014610E06846FCF734FA01990BE06A
:1047B00003A8FCF7D1FA049906E01068800604D536
:1047C0001068C0F3C100C140C1B1636A606838F8C5
:1047D0001330B1FBF3F1490000E04BE001EB500175
:1047E000B1FBF0F0A0F11001494543D84FF6F0734A
:1047F0002168C0F342021840104343E043E03946C9
:10480000E3E71946E1E7082819D005DC58B101288B
:104810000CD004282ED10DE0102815D020282BD044
:10482000402827D12AE0FDF7C3FA01E0FDF7D2FACC
:10483000014610E06846FCF7EDF901990BE003A88A
:10484000FCF78AFA049906E01068800604D510681F
:10485000C0F3C100C140B1B1636A606838F8133079
:10486000B1FBF3F101EB5001B1FBF0F0A0F110014D
:10487000494505D9012506E03946EDE71946EBE73C
:10488000216880B2C8600120A4F86A00A4F868001A
:1048900028466667A66707B0BDE8F083F369FFCFD7
:1048A000000C0058FFF4FF1100100140544402585E
:1048B0000044004000480040004C004000500040D0
:1048C0000014014000780040007C00400090D003BC
:1048D0003C77000800440258FFFC0F002DE9F04728
:1048E000994617460E460446089D4FF000082FE0F3
:1048F000681C2DD0FBF752FFA0EB0900A84214D88A
:104900009DB120680168490722D5C169C9430907DB
:104910000DD4082505622046FFF7E0FDC4F890504D
:10492000012084F88480BDE8F0870320FBE7C0699C
:10493000C04300050CD421684FF400600862204693
:10494000FFF7CCFD2021C4F8901084F88480ECE7B8
:104950002068C06936EA000004D00020B842C7D001
:104960000020E0E70120F9E7FEE700000FB4054B67
:1049700010B503A9044A029800F03CF810BC5DF899
:1049800014FB0000316C0008704000200FB4084B8D
:1049900010B504A902AA039800F02CF8044602A955
:1049A000002000F052FA204610BC5DF814FB000015
:1049B0004B4E0008090700284FEA116104DB00F1A3
:1049C000E02080F80014704700F00F0000F1E020B4
:1049D00080F8141D704702E008C8121F08C1002AA1
:1049E000FAD170477047002001E001C1121F002A70
:1049F000FBD170472DE9FF4F8DB00F4605460026CD
:104A000006E025280BD0DDE90F1290476D1C761CBF
:104A100028780028F5D111B03046BDE8F08F002489
:104A2000A246A1460122E94900E0044315F8013FEE
:104A3000203B02FA03F00842F7D128782A2810D048
:104A40006FF02F022878A0F13001092914D80AEB61
:104A50008A0102EB410144F0020400EB010A6D1CE3
:104A6000F0E701CF5FEA000A03D544F40054CAF12D
:104A7000000A44F002046D1C28782E2817D115F87E
:104A8000010F44F004042A280ED06FF02F0228787A
:104A9000A0F1300109290AD809EB890102EB410193
:104AA00000EB01096D1CF2E757F8049B6D1C287898
:104AB0006C280FD006DC4C2817D068280DD06A2847
:104AC00014D104E0742810D07A280FD10DE044F4FA
:104AD00000140AE044F4801401E044F440146978BE
:104AE000814202D104F580146D1C6D1C28786E285B
:104AF0001ED00CDC632830D004DC00288BD0582872
:104B000011D19FE0642867D069280CD164E0732834
:104B10002DD004DC6F2872D0702804D194E0752861
:104B20006ED078286DD0DDE90F129047761C4BE1EE
:104B3000C4F30250022806D0032809D0042801CF6C
:104B400009D0066040E101CFF117C0E900613BE107
:104B500001CF068038E1067036E117F8040B8DF8B6
:104B6000000000208DF80100EB46012003E057F81B
:104B700004BB4FF0FF3061074FF0000102D40DE09D
:104B800008F10101884649450FDA8045F8DB1BF83A
:104B900008100029F4D108E008F10101884681429B
:104BA000FADB1BF808100029F6D1DDE90F23AAEB88
:104BB00008008146214600F031F9304400EB080638
:104BC00004E0DDE90F121BF8010B9047B8F1010872
:104BD000F7D221464846F2E00A21C4F302524FF0D0
:104BE000000B0891022A04D001CFC117032A09D073
:104BF0000AE0FF1D27F00707F7E8020108E02CE0B4
:104C00001EE01FE000B2C117042A01D140B2C11753
:104C1000021E71F1000206DA0023D0EB030063EB01
:104C200001012D2202E0220504D52B228DF824203B
:104C3000012203E0E20701D02022F7E7904653E08B
:104C40000A210BE0102109E010214FF0000B44F085
:104C500004044FF00809089103E008214FF0000B0D
:104C60000891C4F30252022A04D001CF0021032A82
:104C700006D006E0FF1D27F00707F7E8020103E072
:104C800080B2042A00D1C0B24FF0000822072BD511
:104C90002A78702A07D0DDF820C08CF0100C5CEA6E
:104CA0000B0C05D00EE040228DF82420012208E0F4
:104CB00050EA010306D030238DF824308DF82520EA
:104CC00002229046089B83F0080353EA0B030BD1A2
:104CD00050EA010201D1620706D530228DF8242066
:104CE0004FF00108A9F101092A78582A04D038A206
:104CF0000B9208AA0A920BE03AA2F9E75B46089ADF
:104D0000FBF7E8FA0B9B9B5C0A9A521E0A921370FF
:104D100050EA0102F2D10A98ADEB000000F1200B3D
:104D2000600702D524F4803401E04FF00109D94531
:104D300002DDA9EB0B0000E0002000EB0B01414479
:104D40000890AAEB010AE00306D4DDE90F2321460F
:104D5000504600F063F806444FF0000908E009A946
:104D600011F80900DDE90F12904709F10109761CDD
:104D7000C145F4DBE0030CD5DDE90F2321465046A5
:104D800000F04CF8064404E0DDE90F1230209047B3
:104D9000761C0899481E08900029F5DC08E00A985E
:104DA0000A990078491C0A91DDE90F129047761C98
:104DB000BBF10001ABF1010BF1DC21465046DDE90E
:104DC0000F2300F019F806446D1C21E609280100A4
:104DD0003031323334353637383961626364656671
:104DE0000000000030313233343536373839414233
:104DF00043444546000000002DE9F04104460025EB
:104E00001E461746880404D405E039462020B047E2
:104E10006D1C641EF9D52846BDE8F0812DE9F041EE
:104E2000044600251E469046C80301D5302700E001
:104E30002027880404D505E041463846B0476D1C5C
:104E4000641EF9D52846BDE8F0810A68531C0B6042
:104E50001070704710B504460022501EE2702063A7
:104E6000204602F0DDF908B1042010BD04F2322022
:104E700002F0A6F8A0F52A41553901D0032010BD53
:104E800094F83400E92805D0EB2814D194F83600C2
:104E9000902810D104F16A0002F087F80749B1EBBD
:104EA000002F06D004F1860002F07FF80449884202
:104EB00001D1002010BD022010BD00000046415469
:104EC0004641543300E0401C02780AB18A42FAD1CC
:104ED000D0B27047F0B5154D0022134605EB021411
:104EE00026685EB10768BE4209D166688768BE421F
:104EF00005D1A4684669B44204D000E00123521CE5
:104F0000022AEBD3022A01D069B904E04BB9022985
:104F100007D01220F0BD05EB02108089B0F5807F2C
:104F200001D00020F0BD1020F0BD0000E889002075
:104F300030B5064B0024214603EB0112156885426B
:104F400000D11460491C0229F6D330BDE889002045
:104F5000C26A490A00684089B1FBF0F0121D02CA1A
:104F600019B1884203D3401AF8E70020704711684E
:104F7000084470478269891E921E8A4201D8002027
:104F80007047C26A408901FB002070472DE9F05F3D
:104F90000C46824601F11A0002F012F878BB207824
:104FA00001270026DFF8609000F03F004FF6FF7BFE
:104FB000401E00EB800101EBC00500BF19F80600A0
:104FC000204401F0FDFF80466FB1FF2D17D201F0A4
:104FD00089FC07463AF815006D1C01F083FC8742F6
:104FE0000DD1474601E0D84509D1761C0D2EE5D3F9
:104FF0002078400606D52FB13AF8150010B10020F0
:10500000BDE8F09F0120FBE70878000870B50E4965
:10501000054601F00BFB0D4CA07028B90A48007A38
:10502000C00601D50AA00BE0284600F0A1FD011E34
:10503000A17004D00DA0FFF799FC012070BD12A053
:10504000FFF794FC002070BDD088002014000020E1
:105050004469726563746F727920616C7265616412
:1050600079206578697374730D0A000045525220E7
:10507000637265617465204469726563746F7279E7
:10508000203A25640D0A000063726561746520444E
:1050900069726563746F7279206F6B0D0A0000008E
:1050A00010B5C0B040B1027832B10B46024611A132
:1050B0006846FFF76BFC04E00A4668460FA1FFF75D
:1050C00065FC0F49684601F0B1FA0E4CA07040B182
:1050D000042806D10C480622694601F0DBF8A070CE
:1050E00010B1012040B010BD074800F01FFC0020A7
:1050F000F8E7000025732F257300000025730000DA
:10510000D088002014000020A086002010B5FFF7F2
:10511000C7FF0849012807D0897840B106A000BF21
:10512000FFF724FC002010BD89780AA0F8E710A042
:10513000F6E70000140000204572726F722063725F
:10514000656174696E672066696C653A2025640D37
:105150000A00000046696C6520616C7265616479C3
:10516000206578697374733A2025640D0A00000085
:1051700046696C652063726561746564207375634C
:105180006365737366756C6C793A2025640D0A004B
:105190002DE9F04105680F00804606D001F0BCFD06
:1051A000022809D20120BDE8F0812E6916B1A86954
:1051B000B04207D8012605E0411CF4D0A96981421C
:1051C000F1D83E463446A869641CA04203D8022E9A
:1051D0004FF002040AD32146404601F09DFD38B14C
:1051E0000128E0D0411CDED0B442ECD10020DAE747
:1051F0004FF0FF3621463246284602F02AF830B9F1
:1052000057B122463946284602F023F820B101283A
:105210000FD001242046C6E7D5E905012C61891E7F
:10522000884201D8401E6861287940F00100287149
:10523000F0E73446EEE700002DE9F84F88460168B4
:10524000002482462546D8F80060CF68705D6D1C4A
:1052500020281AD32F2813D05C2811D0FF2C38D245
:10526000012101F01DFB5FEA000932D0B9F1800F86
:1052700012D201466BA0FFF725FE50BB0CE06D1C5F
:10528000715D2F29FBD05C29F9D07119C8F8001085
:10529000202805D204250EE027F81490641CD5E7D9
:1052A000002508E007EB440030F8020C202801D06C
:1052B0002E2802D1641E002CF4D1002027F81400FF
:1052C0003CB10B2220210AF1240001F011FF00263D
:1052D00003E00620BDE8F88F761C37F8160020287A
:1052E000FAD02E28F8D01EB145F0030500E0641E68
:1052F0002CB107EB440030F8020C2E28F7D14FF008
:1053000000094FF0080BCDF8009000BF37F81600E9
:1053100006F101065FEA000824D0B8F1200F04D09E
:10532000B8F12E0F04D1A64202D045F00305EDE7F7
:105330000098584501D2A64219D1BBF10B0F0FD0EE
:10534000A64201D045F003050CD84FEA89612646F4
:105350004FF008004FF00B0B4FEA11690090D5E7B2
:1053600045F003059AF82400E52836D038E0B8F176
:10537000800F404610D3002101F092FA5FEA000846
:1053800005D02B4901EB080010F8800C8046B8F1DD
:10539000000F45F0020504D0014626A0FFF792FD5C
:1053A00018B15F2045F003050EE0A8F1410019286F
:1053B00002D849F0020908E0A8F16100192804D8D0
:1053C000413080B249F001098046009A0099524468
:1053D000491C009182F8248098E705218AF824105E
:1053E000BBF1080F03D14FEA89604FEA1069C9F396
:1053F0008100032803D06FEA0901890701D145F034
:105400000205A90709D409F00301012901D145F0DA
:105410001005012801D145F008058AF82F50002019
:1054200058E70000222A3A3C3E3F7C7F0000000003
:10543000887700082B2C3B3D5B5D0000401E022856
:1054400012D20A4901EB00118889B0F5807F05D09E
:1054500008B1401E80B2888110B103E00020FAE755
:10546000002008600020704702207047E889002073
:105470002DE9F047D0F800900021044600F0CEF965
:1054800000285CD1471E2763FF25A846E1694846EE
:1054900001F0C6FE060051D1216A087850B1CA7ADF
:1054A000E52802F03F02A27140D0130704D50F2A6D
:1054B0003CD105E0042641E00F2A01D0E5B120E00F
:1054C00094F82F20520633D4420606D591F80D8069
:1054D00000F0BF00636905462363A84209D14A7BF7
:1054E000424506D1D9F80C00FFF750FD08B16D1EFA
:1054F00000E0FF25EDB21BE0084601F0C4FF404587
:105500001CD094F82F00C00710D1D4F820100B2223
:1055100004F12400521E11F8013B10F8015BA3EBCB
:10552000050302D0002BF5D000E03BB1FF25276337
:105530000021204600F006F80600A7D03046BDE85E
:10554000F08700002DE9F04705464769C0698946A4
:1055500020372C6810B1B7F5001F02D30420BDE836
:10556000F087F90560D1A969401C4FF00008E86197
:1055700029B16089401E10EA572F05D054E02089D8
:10558000B0EB571F1DD94FE0284601F0C5FB01289D
:1055900006461BD9701C33D0A069B0423ED8B9F181
:1055A000000F0ED0A9692846FFF7F2FD06000BD0C8
:1055B000012E0BD0701C23D0204601F0B7FFF8B9A4
:1055C00006E0C5F81C80C9E70720C8E70220C6E747
:1055D00000214FF4007204F1340001F089FD4FF016
:1055E000000831462046FFF7C5FC4FF00109206353
:1055F0000DE000BF204684F8039001F097FF08B14A
:105600000120ACE7216B08F10108491C2163618985
:105610004145EFD8216BA1EB0800206331462046BD
:10562000AE61FFF7A7FCE861C7F3080020446F6193
:1056300034302862002092E72DE9F04F044690F8BC
:105640002F008FB010F0A00FD4F8009003D00620E8
:105650000FB0BDE8F08FD9F80C00002500E06D1CFC
:1056600030F815100029FAD10C2204F1240102911E
:1056700008A801F033FD9DF82B00C00719D0402089
:1056800084F82F000126D9F80C20029808A9334687
:1056900001F002FB2046FFF7EBFE10B9761C642EEA
:1056A000F1D3642E0FD00428D2D19DF82B0084F8BA
:1056B0002F009DF82B00800707D50D200C35B5FB7A
:1056C000F0F56D1C02E00720C2E7012527680021E4
:1056D000204600F0A3F888B90026E169384601F0B9
:1056E0009FFD58B9206A0078E5280AD048B1002605
:1056F00020460121FFF726FF0028EED0042812D013
:1057000012E0761C2846AE42F2D1451E0B9567D0BA
:105710006169684201EB4011204600F07FF85FEAC2
:10572000000803D076E00720804673E0029801F07D
:10573000AAFE4FF6FF7B0C90E169484601F070FD30
:105740005FEA000866D10B990F23D4F82080C9B214
:105750000391D9F80C100C980591002188F80D00E0
:1057600008F11A0088F80B3088F80C1001F087FE59
:1057700003990027DFF8A0A0491E01EB810202EB8C
:10578000C10601E05D4503D0059830F81650761C3F
:105790001AF8071001EB0800294601F070FE05B960
:1057A0005D467F1C0D2FEDD35D4505D0059830F883
:1057B000160008B1039803E0039840F040000390FE
:1057C00088F800000120002189F803002046FFF737
:1057D000B9FE5FEA00081DD10B98401E0B90ABD1BB
:1057E000E169484601F01CFD5FEA000812D1206A19
:1057F0002022002101F07CFC206A0B22029901F09A
:105800006DFC226A012094F82F1001F01801117329
:1058100089F8030040461BE7087800082DE9F041AD
:105820000768B1F5001F0E46054636D2F00634D1A2
:10583000AC686E6124B93878032805D3BC6A1CB102
:1058400078894FEA402812E03889B0EB561F24D9F6
:10585000B86A12E0284601F05FFA0446401C1AD0EC
:10586000022C1AD3B869A04217D9A6EB0806214624
:105870004645EFD23846FFF77DFBC5E9064060B1EB
:1058800000EB5622C6F30801C8193430C5E90720D9
:105890000020BDE8F0810120FBE70220F9E70000CD
:1058A0000849002210B50B5C4BB901220A5401EBE8
:1058B000800208445168007A096888470246104609
:1058C00010BD0000088A0020044B30B403EB8004B4
:1058D00018446368007A1B6930BC1847088A0020A6
:1058E00030B4054C04EB800520446C68007AA46851
:1058F000A44630BC60470000088A0020034901EB41
:10590000800208445168007A49680847088A0020E4
:1059100030B4054C04EB800520446C68007AE468E0
:10592000A44630BC60470000088A002038B5044611
:1059300000F0A8FE00280CD16946204601F09AFE2E
:10594000002806D12069FFF779FD002801D1002148
:10595000216038BD2DE9FE4F0D460446694601F031
:1059600089FE070067D1677D002FFBD1E06A04F153
:10597000300B4FF0020A4FF0010800286DD0691C6F
:105980002CD0E068A84200D20546A561002D52D077
:10599000691E2046FFF7DCFAE06101460098FFF738
:1059A000E9FA002879D0009BA5F10105218B5A89DD
:1059B000C905A2F1010202EA552202EB0005E6D078
:1059C000226AAA42E3D0207D00063BD55878012305
:1059D0005946FFF79DFF00286FD12FE004C8A1684A
:1059E000022583460192F1B100260291AD1C894641
:1059F000761C204601F090F9012801464DD9481C3B
:105A00005BD009F101008142F1D00198854206D8AE
:105A10000BF10402CBF80060029801C29346009893
:105A200080698842E0D8E16A019885420D6003D818
:105A30000021CBF8001098E0112796E0207D00F0BF
:105A40007F002075009801232A4659464078FFF7C9
:105A500047FF002831D1256287E0E068A84203D2E1
:105A6000217D890700D40546A0694FF00009C4F8DC
:105A700018900DB3009949894FEA412670B1691E0B
:105A8000401EB1FBF6F1B0FBF6F2914206D3721E56
:105A9000E1699043A0612D1A0DE04FE0A16849B97A
:105AA00000212046FFF774FB0128014646D0481C20
:105AB00055D0A160E161D9B927E050E0227DAD1B4E
:105AC000A0693044A0619207204605D5FFF760FB2E
:105AD000010004D100250DE001F01EF90146481C2B
