:020000040800F2
:10000000881A0020AD020008635500087D520008E0
:10001000615500080D0B0008F16B0008000000009E
:10002000000000000000000000000000D76300088E
:10003000E51B00080000000065550008D9630008B2
:10004000C7020008C7020008C7020008C70200086C
:10005000C7020008C7020008C7020008C70200085C
:10006000C7020008C7020008C7020008C70200084C
:10007000C7020008C7020008C7020008C70200083C
:10008000C7020008C7020008C7020008C70200082C
:10009000C7020008C7020008C7020008C70200081C
:1000A000C7020008C7020008C7020008C70200080C
:1000B000C7020008C7020008C7020008C7020008FC
:1000C000C7020008C7020008C7020008C7020008EC
:1000D000C7020008C7020008C7020008C7020008DC
:1000E000C7020008C702000800000000C70200089D
:1000F000C7020008C7020008C7020008C7020008BC
:10010000C7020008C7020008C7020008C7020008AB
:10011000C7020008C7020008C7020008C70200089B
:10012000C7020008C7020008C7020008C70200088B
:10013000C7020008C7020008C7020008C70200087B
:1001400000000000000000000000000000000000AF
:10015000C7020008C7020008C7020008C70200085B
:10016000C7020008C7020008C7020008C70200084B
:10017000C7020008C7020008C7020008C70200083B
:10018000C7020008C7020008C7020008C70200082B
:10019000C7020008C7020008C7020008C70200081B
:1001A000C7020008C7020008C7020008C70200080B
:1001B000C7020008C7020008C7020008C7020008FB
:1001C000C7020008C7020008C7020008C7020008EB
:1001D000C7020008C7020008C7020008C7020008DB
:1001E000C7020008C7020008C7020008C7020008CB
:1001F000C7020008C7020008C7020008C7020008BB
:10020000C7020008C7020008C7020008C7020008AA
:10021000C7020008C7020008C7020008C70200089A
:10022000C7020008C7020008C7020008000000005B
:10023000C7020008C702000800000000C70200084B
:10024000C7020008C7020008C7020008C70200086A
:10025000C7020008C7020008C7020008C70200085A
:10026000C7020008C7020008C7020008C70200084A
:10027000C7020008C7020008C7020008000000000B
:10028000C7020008C7020008C702000800000000FB
:1002900000000000C7020008DFF80CD000F0FEF9F3
:1002A00000480047FD750008881A0020064880476E
:1002B00006480047FEE7FEE7FEE7FEE7FEE7FEE74B
:1002C000FEE7FEE7FEE7FEE7BD64000899020008CE
:1002D0002DE9F05F0546002092469B46884606467B
:1002E000814640241BE0284641464746224600F00E
:1002F00082F953465A46C01A914110D31146184606
:10030000224600F069F92D1A67EB01084F46224694
:100310000120002100F060F917EB00094E41201E7A
:10032000A4F10104DFDC484631462A464346BDE8D5
:10033000F09F0000004870479494000810B50446F0
:10034000FFF7F8FF0068005D00F0010010BDA0F1AC
:100350004101192900D82030704710B5431A934243
:1003600009D28318881803E010F8011D03F8011D55
:10037000521EF9D210BD40EA01039B0703D009E0E9
:1003800008C9121F08C0042AFAD203E011F8013B81
:1003900000F8013B521EF9D210BDD2B201E000F8C4
:1003A000012B491EFBD270470022F6E710B5134619
:1003B0000A4604461946FFF7F0FF204610BD421CCE
:1003C00010F8011B0029FBD1801A704710B50022DC
:1003D00000E0521C835C8C5CA34201D1002BF8D15D
:1003E000D8B2E1B2401A10BD30B504460020034631
:1003F00000E05B1C934203D2E05CCD5C401BF8D074
:1004000030BD034611F8012B00F8012B002AF9D169
:10041000184670470246C9B200E0401C0378002B22
:10042000FBD102E003788B4203D0401E9042F9D208
:100430000020704710B508E00A4602E0A34208D049
:10044000521C1378002BF9D1401C0478002CF3D1F6
:10045000002010BD0FB400B58DB010A909900B900D
:1004600000914FF0FF300A9000200C900548069054
:10047000054807906A4609A80F9900F0E1F80DB009
:100480005DF814FB5D0600087B0600082DE9FF5FA0
:100490001D464FF0FF3BD5E9014691465F464FF0C0
:1004A0000008A9697F1C01988847296A8246884705
:1004B0000028F6D1BAF1FF3F0CD024F4C064002E1E
:1004C00019DD600614D5BAF12B0F09D0BAF12D0F42
:1004D0000ED103E0584604B0BDE8F09F44F48064B8
:1004E000A9697F1C01988847761E8246002E02DD8E
:1004F000BAF1300F03D0B9F1000F26D032E0A9696C
:10050000761E44F400747F1C019888478246002EB2
:1005100005DDBAF1780F06D0BAF1580F03D0B9F162
:10052000000F10D01EE0B9F1000F02D0B9F1100F8A
:1005300018D1A969761E24F400747F1C019888479D
:100540008246102002E0082000E00A20814609E0EF
:1005500008FB0908A969761E44F400747F1C019801
:1005600088478246002E05DD4946504600F053F884
:100570000028EDDAE96901988847A00502D46FF0F8
:100580000100A8E7E00725D1600613D5600502D574
:10059000C8F1000000E0404629680A1D2A60096889
:1005A000220501D5087015E0220701D5088011E069
:1005B00008600FE02868011D29600068210502D548
:1005C00080F8008006E0210702D5A0F8008001E055
:1005D000C0F8008038467EE7202A04DB203A00FA83
:1005E00002F1002070479140C2F1200320FA03F38A
:1005F000194390407047202A04DB203A21FA02F088
:100600000021704721FA02F3D040C2F1200291404C
:100610000843194670473A2800D2303820F02002AB
:10062000412A01D3A2F13700884201D34FF0FF30B5
:100630007047000002681144137801601846704743
:10064000D1600449516104491162002111611146D0
:1006500000F036B8350600083D030008426842B194
:10066000016811F8013B23B1521EC0E9001218467F
:1006700070470121C160881E704742685AB1C36843
:10068000016843B983688B4205D0491E521CC0E9FA
:100690000012002070474FF0FF307047064C074DA6
:1006A00006E0E06840F0010394E807009847103442
:1006B000AC42F6D3FFF7F4FDCC970008EC970008A6
:1006C0002DE9F34F8BB04FF0000801F10C000C4600
:1006D0004FF0010B46460DF1080A019062690121B5
:1006E00001989047051E2DD0252D2CD0216A8847D2
:1006F000C0B16269012101989047216A88470028AA
:10070000F7D1411E62690198904700E0761CA1690B
:100710000B988847216A88470028F7D1E1690B9830
:100720008847DBE7A1690B9888470746A84201D1B3
:10073000761CD3E7E1690B9888477F1C02D1B8F19A
:10074000000F6FD046E1002762693D4639460198A7
:1007500090472A2804D16269012101989047012518
:10076000DFF884926269012101989047A0F130017D
:100770000A290AD24F45E5DC07EB870100EB410768
:10078000303FDFD445F01005ECE7E90601D46FF007
:1007900000476C280AD04C2814D0682815D06A2845
:1007A0000DD074281CD07A281AD01DE0626901216E
:1007B000019890476C2802D045F0040514E045F0FC
:1007C00002050DE045F020050AE06269012101986B
:1007D0009047682802D045F0080505E045F400651B
:1007E0006269012101989047C4E9015765283DD00D
:1007F00019DC58287AD00CDC452837D004DC2528B1
:1008000026D0412831D131E046282FD047282CD19D
:100810002CE05B2877D0612828D063287CD064281E
:1008200023D15AE0D0E06F2848D008DC66281DD0DC
:1008300067281BD0692821D06E2816D127E07028A0
:1008400045D0732868D0752847D078280DD14DE061
:10085000A1690B988847054625283FF469AFE169EF
:100860000B9888476D1C3FF46AAFB3E023466A4695
:100870006FF001000B99AFF300809EE045F040005F
:100880006060A80723464FF0000236D43EE0E80738
:100890007FF447AF2068011D21600068290501D55C
:1008A00006701BE7290701D5068017E7A90703D5BE
:1008B000F117C0E9006111E706600FE745F040005D
:1008C0006060A80723464FF0080216D41EE040F6E9
:1008D0000E0125EA0100606016E045F0400060600E
:1008E000A80723464FF00A0207D40FE045F0400066
:1008F0006060A80708D5234610226FF001000B990D
:10090000AFF3008059E007E0234610226FF00100AA
:100910000B99FFF7BBFD50E04FF000094F464B46E7
:10092000632802D05B2806D040E0E80601D401200D
:10093000A06001273AE062690121019890475E2892
:1009400005D14FF001096269494601989047216934
:1009500039B900210A46534643F82120491C082989
:10096000FADBB0B3216969B9C11700EBD162531149
:100970000AEB830122F01F02821A01200B689040CB
:1009800003430B6062690121019890475D28E8D11B
:10099000B9F1000F09D00020514651F82020D24370
:1009A00041F82020401C0828F7DB02AB22460097C4
:1009B0006FF001000B99AFF3008000280CDA401CA7
:1009C00008D1BBF1000F05D04FF0FF300DB0BDE8EE
:1009D000F08FFFE74046F9E7E90701D108F1010888
:1009E00006444FF0000B79E6CCCCCC0C70B58C18DB
:1009F00010F8015B15F0070301D110F8013B2A1133
:100A000006D110F8012B03E010F8016B01F8016B1F
:100A10005B1EF9D12B0705D40023521E0DD401F81B
:100A2000013BFAE710F8013BCB1A921C03E013F8E4
:100A3000015B01F8015B521EF9D5A142D8D3002019
:100A400070BD000010B501240348210301F0FCFD36
:100A500000B10024204610BD0004025801460148A0
:100A600003F090BE60080020044810B503F09CFE1F
:100A7000042801D0012010BD002010BD6008002016
:100A800010B500F015F8012801D0022010BD07486C
:100A900003F006FF040006D104484FF4804103F040
:100AA000CFFC00B10124204610BD000060080020EA
:100AB00008B501208DF80000FFF7C4FF10B9002031
:100AC0008DF800009DF8000008BD000038B5002436
:100AD000009313460A460146034804F009F800B1A2
:100AE0000124204638BD00006008002038B50024ED
:100AF000009313460A460146034804F0DBF800B1B0
:100B00000124204638BD000060080020FEE70000F8
:100B100030B5002308E000BF01EB830504682D68B1
:100B20004FEA354525605B1CB3EB520FF4D3D20777
:100B300003D0026831F8231011800068006830BDCE
:100B4000F0B500230BE000BF01EB830405682668C5
:100B5000E77834BA24F0FF043C432C605B1CB3EB11
:100B6000920FF1D394071BD002F00304012C03D1A0
:100B7000056811F823602E70022C05D101EB830467
:100B80000568248864BA2C80D243920708D101EB0F
:100B900083020368118849BA19809178026811703C
:100BA00000680068F0BD00002DE9FF5F0D46C16AD6
:100BB0000446C08F01264FF0000901294FF4005A66
:100BC0004FEA90073BD0E065A4F8389020680168B0
:100BD00021F4403101602068016801602046A1686D
:100BE00000F05EFC206A2168006820F0784008640C
:100BF000206A216840684864206A216880688864A7
:100C0000206A2168C06820F0FF00401CC86420688A
:100C1000016841F400410160606D504519D3206ABC
:100C2000216800688860206A216840688860206ABE
:100C3000216880688860206A2168C06827E0A16D0B
:100C4000012902D0C4E91660BEE7E16D0844E06501
:100C500090E0606880281FD0402831D0C028DED1C5
:100C6000206A2168006890FAA0F08860206A2168F4
:100C7000406890FAA0F08860206A2168806890FA45
:100C8000A0F08860206A2168C06890FAA0F08860AF
:100C900001F0EAFC804634E0206A2168006800BA6E
:100CA0008860206A2168406800BA8860206A2168EC
:100CB000806800BA8860206A2168C06800BAE6E7E8
:100CC000206A216800684FEA30408860206A216805
:100CD00040684FEA30408860206A216880684FEAA7
:100CE00030408860206A2168C0684FEA3040CEE713
:100CF000681C06D001F0B8FCA0EB0800A8420DD893
:100D000065B1206800680004F2D42946204600F04E
:100D1000F9FA88B1012004B0BDE8F09F20680268AC
:100D200022F400420260206D40F01000206584F83B
:100D30004D6084F84C90EDE7022020642068016843
:100D400021F400410160606D504504D320680168C2
:100D500021F4700101602068016821F440310160D4
:100D60002068016841F4003101602068016841F4A5
:100D70000041016094F83E00000701D027F003070E
:100D800001F072FCB4F83C8083460FE0294620460F
:100D900000F04EFAB4F83C80681C07D001F064FC07
:100DA000A0EB0B00A842B9D8002DB7D0608FB84295
:100DB00001D2B845EAD3E08F01076ED0616D51458D
:100DC00067D32168020912010B6802F11002A2EB3D
:100DD00000005B070FD50A6822F400420A60216810
:100DE0000A6822F4700242EA00520A6021680A6826
:100DF00042F400420A608107C0F1100003D006EB04
:100E0000900700200BE08708FBE7628F216B2368C7
:100E100051F822109960618F491C6187401CB842CB
:100E2000F3D303E02268C2F80890401C0428F9D3E9
:100E30002946204600F018FC78B12068026822F4A8
:100E400000420260206D40F01000206584F84D6083
:100E5000204684F84C9001F061F922685068400700
:100E60001BD500206946D36841F82030401C042877
:100E7000F9D300200AE000BF51F82020A58F636B52
:100E800043F82520A28F521CA287401CB842F3D3FE
:100E900003E02946204600F0FFFB00203BE72DE958
:100EA000FF5F0D46C16A0446C08F01264FF000095E
:100EB00001294FF4005A4FEA900727D0E065A4F8C3
:100EC00038902068016821F4403101602068016891
:100ED00001602046A16800F0E3FA206921680068FB
:100EE0000864206921684068486420692168806836
:100EF000886421692068C968C1642068016841F478
:100F00000041016001F0B0FB804612E0A16D0129B3
:100F100002D0C4E91660D2E7E16D0844E06541E023
:100F2000681C06D001F0A0FBA0EB0800A8420DD879
:100F300065B1206800680004F2D42946204600F01C
:100F4000E1F988B1012004B0BDE8F09F2068026893
:100F500022F400420260206D40F01000206584F809
:100F60004D6084F84C90EDE7022020642068016811
:100F700021F400410160606D504504D32068016890
:100F800021F4700101602068016821F440310160A2
:100F90002068016841F4003101602068016841F473
:100FA0000041016094F83E00000701D027F00307DC
:100FB00001F05AFBB4F83C8083460FE029462046F6
:100FC00000F036F9B4F83C80681C07D001F04CFB07
:100FD000A0EB0B00A842B9D8002DB7D0608FB84263
:100FE00001D2B845EAD3E08F01076DD0616D51455C
:100FF00066D32168020912010B6802F11002A2EB0C
:1010000000005B070FD40A6822F400420A602168DE
:101010000A6822F4700242EA00520A6021680A68F3
:1010200042F400420A608107C0F1100003D006EBD1
:10103000900700200BE08708FBE7628F216B236895
:1010400051F822109960618F491C6187401CB84299
:10105000F3D303E02268C2F80890401C0428F9D3B7
:101060002946204600F000FB78B12068026822F48F
:1010700000420260206D40F01000206584F84D6051
:10108000204684F84C9001F049F8226850684007E7
:101090001AD500206946D36841F82030401C042846
:1010A000F9D3002009E051F82020A58F636B43F8A5
:1010B0002520A28F521CA287401CB842F3D303E024
:1010C0002946204600F0E8FA00203CE770B50446C7
:1010D000C06A01250E46012803D1A06D012847D022
:1010E000A565606930282CD02068016821F40021B2
:1010F00041F038010160A168204600F0D1F9206874
:10110000016841F4004101603146204600F07EFA5A
:1011100078B120680021026822F400420260206D4C
:1011200040F01000206584F84D50012084F84C10E8
:1011300070BD21681D4B6269086818401043086043
:1011400003E0A168204600F0ABF9606920280FD0C9
:101150002069216800680864206921684068486443
:10116000206921688068886420692168C068C86433
:10117000022020642068016841F40041016003E01E
:101180003146204600F054F8A08F628FE18FB2EB19
:10119000910F02D2B0EB910FF2D32068016821F4D5
:1011A0000041016084F84D50002070BDC7FFF7FF7B
:1011B00070B50446C06A01250E46012803D1A06D12
:1011C000012817D0A5652046A16800F069F960697B
:1011D00020280FD0206921680068086420692168F0
:1011E00040684864206921688068886420692168B3
:1011F000C068C864022020642068016841F400418E
:10120000016003E03146204600F012F8A08F628FA3
:10121000E18FB2EB910F02D2B0EB910FF2D32068C5
:10122000016821F40041016084F84D50002070BD38
:101230007FB504460068628F43689B0726D5E38F1D
:10124000B2EB930F22D2638F226B52F8232082607D
:10125000608F401C6087608F236B226853F82000EA
:101260009060608F401C6087608F226B236852F80B
:1012700020009860608F401C6087608F226B23681D
:1012800052F820009860608F401C6087204600F074
:10129000EBF988B1206801210022036823F40043A0
:1012A0000360206D40F01000206584F84D1020464A
:1012B00084F84C2000F032FFA08F22685168490763
:1012C0001FD5E18FB0EB910F1BD200206946D36888
:1012D00041F82030401C0428F9D300200AE000BF68
:1012E00051F82020A58F636B43F82520A28F521C54
:1012F000A287401CA28FE38FB2EB930F01D2042888
:10130000EED37FBD2DE9FF47644A8A4604460FCAE3
:101310008DE80F00E569A06A00B9AD00002D7AD014
:10132000206829074FF001094FF00006016821F4F9
:10133000403101602068016841F48031016020681B
:10134000016841F40041016003D000274FEA1518FD
:101350005AE000272AE0218FA069226850F8210076
:101360009060208F401C2087208FA169226851F84F
:1013700020009060208F401C2087208FA169226868
:1013800051F820009060208F401C2087208FA16999
:10139000226851F820009060208F401C2087514621
:1013A000204600F04AF9002865D13F1DB7EB950FA4
:1013B000D1D35BE0218FA069226850F821009060B2
:1013C000208F401C2087208FA169226851F82000BF
:1013D0009060208F401C2087208FA169226851F8DF
:1013E00020009060208F401C2087208FA2692168F8
:1013F00052F820008860208F401C208751462046EC
:1014000000F01BF9B8BB3F1DB7EB880FD2D300200B
:10141000C5F381010AE03FE0238FA269276852F8F3
:101420002320BA60228F521C2287401C8842F3D3AB
:10143000A9070ED0278FA26905F0030123685DF884
:10144000211052F827201140996007E021688E6032
:10145000401C0428FAD304E021688E60401C042854
:10146000FAD35146204600F0E8F820B9514620460C
:1014700000F0CCF880B12068026822F400420260DB
:10148000206D40F01000206584F84D90012084F814
:101490004C6004B0BDE8F0870020FAE7B493000880
:1014A000E9B3B1F5807F22D0B1F5007F48D1C168A2
:1014B000026809681162C168026849685162C168BE
:1014C000026889689162C1680268C968D162C168AE
:1014D000026809691163C168026849695163C1689A
:1014E000026889699163C1680068C96927E0C168B9
:1014F000026809689162C16802684968D162C1687E
:10150000026889681163C1680268C9685163C1686B
:10151000026809699163C168006849690FE0FFE7E3
:10152000C168026809681163C1680268496851634B
:10153000C168026889689163C1680068C968C1634D
:10154000704770B5044600680E460125016841F4F5
:101550000041016048E0618F226853689B0713D502
:10156000B1EB900F10D2618F206B50F8210090608A
:10157000608F401C6087608F216B226851F82000CB
:101580009060608F401C60873146204600F06CF808
:1015900080B120680021026822F400420260206DC0
:1015A00040F01000206584F84D50204684F84C101F
:1015B00000F0B4FDA08F21684A68520714D5E28F6D
:1015C000B0EB920F10D2C868A28F616B41F8220075
:1015D000A08F401CA0872068616BC068A28F41F873
:1015E0002200A08F401CA087A18F628FE08FB2EBFA
:1015F000900F02D2B1EB900FADD32068016821F4B7
:101600000041016084F84D50002070BD70B50C465B
:10161000064601F029F8054607E0601C05D001F0F8
:1016200023F8401BA04206D82CB130684068C006A1
:10163000F3D4002070BD012070BD70B50C46064685
:1016400001F012F8054607E0601C05D001F00CF827
:10165000401BA04206D82CB130684068C007F3D0C8
:10166000002070BD012070BD70B50C46064600F02C
:10167000FBFF054607E0601C05D000F0F5FF401BAE
:10168000A04206D82CB1306840684007F3D500204E
:1016900070BD012070BD00002DE9F04F8DB04FF0FE
:1016A000000A04468B464FF00109CDF800A0CDF8A2
:1016B00004A0CDF808A0CDF80CA0CDF810A0CDF86E
:1016C00014A0CDF818A0CDF81CA0CDF820A0CDF81E
:1016D00024A0CDF828A0CDF82CA0C08F02090109C4
:1016E000120109011032171A1031081AB907C0F196
:1016F000100029D009EB90062068616908ADB1F5AA
:10170000002F01684FEA417120D000291ADAC16E1A
:10171000026822F4004202602068026D0092426D6D
:101720000192826D0292C26D0392C16420680168C9
:1017300021F0081141F0300101602068016841F496
:1017400000410160002038E18608D5E7002913DB5D
:10175000016821F4004101602068C16E491EC16426
:101760002068016821F0081141F030010160206813
:10177000016841F400410160002009E0628F216BA3
:10178000236851F822109960618F491C6187401CC1
:10179000B042F3D303E02268C2F808A0401C04283A
:1017A000F9D359462046FFF75FFF78B120680368F8
:1017B00023F400430360206D40F01000206584F89E
:1017C0004D90204684F84CA000F0A8FC20684068AA
:1017D00040070FD500202168C96845F82010A38F65
:1017E000626B401C042842F82310A18F01F1010113
:1017F000A187F0D32068016849077DD4016821F0F2
:10180000380141F4002101602068016841F4403151
:1018100001602068016811F0C00F13D001686FF0FB
:10182000FF0C4FEA0C22C1F381111302022929D0C7
:101830000068C0F38110012807F0030041D001289F
:101840005ED067E007F00300012807D105EB8601B1
:1018500051F8042C22F0FF0241F8042C022807D191
:1018600005EB860050F8041C6FF30F0140F8041CD0
:10187000F843800765D105EB860050F8041C01F0A1
:101880007F415CE007F00301012909D105EB8600E7
:101890009CFA8CF850F804CC0CEA080C40F804CC04
:1018A000022907D105EB860012BA50F8041C11403A
:1018B00040F8041CF843800743D11ABA05EB8600B0
:1018C0003AE0012807D105EB860151F8042C22F4F7
:1018D0007F0241F8042C022806D105EB860030F87F
:1018E000041C89B240F8041CF843800729D105EB99
:1018F000860030F8041C00E054E001F47F411EE053
:1019000005EB86019CFAACFC51F8048C08EA0C0843
:1019100041F8048C022808D105EB860092FAA2F265
:1019200050F8041C114040F8041CF843800708D10B
:1019300093FAA3F205EB860050F8041C114040F81E
:10194000041C002005E000BF226855F820109160BB
:10195000401CB042F8D35646042803D221688E605A
:10196000401CF9E759462046FFF77EFE78B1206813
:10197000026822F400420260206D40F010002065F1
:1019800084F84D90204684F84C6000F0C7FB216835
:101990004868400706D50020CA6845F82020401C4A
:1019A0000428F9D3ACE0628F216B236851F8221030
:1019B0009960618F491C6187401CB042F3D303E0FA
:1019C0002268C2F808A0401C0428F9D359462046D2
:1019D000FFF74AFE78B12068036823F400430360F0
:1019E000206D40F01000206584F84D90204684F86A
:1019F0004CA000F093FB2068406840070FD5002002
:101A00002168C96845F82010A38F626B401C042828
:101A100042F82310A18F01F10101A187F0D32068C2
:101A2000016849076CD5026D31460492426D0592FA
:101A3000826D0692C26D0792026822F0300242F077
:101A4000081202602068026822F4403242F48032B8
:101A5000026002E045F821A0491C0429FAD307F0EE
:101A60000300012807D105EB860151F8042C22F070
:101A7000FF0241F8042C022807D105EB860050F83C
:101A8000041C6FF30F0140F8041CF843800707D1D2
:101A900005EB860050F8041C01F07F4140F8041C5F
:101AA00000206A460DF1100352F8206055F820100E
:101AB000714045F8201053F82060714045F820101F
:101AC000401C0428F0D30020226855F82010401C48
:101AD00004289160F8D359462046FFF797FD78B166
:101AE0002068036823F400430360206D40F0100079
:101AF000206584F84D90204684F84CA000F00EFB41
:101B000084F84CA00DB0BDE8F08F00002DE9F04145
:101B1000BFF34F8FBFF36F8F2B48002103682B4A11
:101B200023F4003303601160BFF34F8FBFF36F8F57
:101B3000254A70321160BFF34F8F026822F4803261
:101B40000260BFF34F8F204843F6FF746C3000688B
:101B50001E4D2435C0F34E32C0F3C90304EA4216C9
:101B6000184600BF46EA80772F60401EFAD2521E08
:101B7000F4D2BFF34F8FBFF36F8F4FF0E0200161BE
:101B80004161816142170020810001F1E021401C88
:101B90000828C1F88021C1F88022F5DB0C4802F04A
:101BA00023FF4FF400440B48214600F07FFB0A4816
:101BB000214600F07BFB0948E11000F077FBBDE80F
:101BC000F041074803F018BA14ED00E050EF00E0D0
:101BD0006008002000080258002002580004025843
:101BE000DC080020704772B6FEE70022AFF30080E9
:101BF0000E4B70B505465C7A0120002C14D15E7A3C
:101C000003F108009C555E7A03EB860675605D7AE9
:101C10002A54587A421C5A723A232F2230300870C4
:101C20004B7020468A70CC7070BD00008009002087
:101C3000F0B5D1E90843CD690A68C2B1026825430D
:101C400022F4F84213431D430560D1E90125D1E98F
:101C500003364C692A434568334389691A43EB0BC1
:101C60002243DB030A431A4342600020F0BDD1E95E
:101C7000012ED1E9036CD1E9057142EA0E0246EA70
:101C80000C0632433A430A4301682A4322431A436B
:101C90006FF30E010A430260E7E7426943F6FE7301
:101CA0009A4342EA410141610020704770B591E8D2
:101CB0001C00C9686FF01F0506691A4305EB441440
:101CC00044EA41210A4306EA45431A4302610020DF
:101CD00070BD00002DE9F04F8B8A6FF00F05264C88
:101CE0004FF07F4BD1F80C9004EB03536FF0FF04DF
:101CF0004FEA042A1AB386684FEA09321F4FA2F549
:101D000080521A433E4032438260D1E900278E68F8
:101D1000521E05EB07150F8A2A43C56804EB0624FB
:101D20000E7E0AEB074322431A430BEB06610A437C
:101D300005F070431A43C2600020BDE8F08F91E8BF
:101D400004110F4E521E0F8A05EB08152A4304EBAF
:101D50000C2C06EB09350E7E42EA0C022A438568FC
:101D60000AEB074422431A430BEB06610A4305F0D2
:101D700070431A438260DFE70000F0FFFF0F0FFFA0
:101D800000F0FFFFF0B50446C8074FF0000010D088
:101D90001E23012603F01F0706FA07F50D4201D1A5
:101DA0005B1EF7D27AB1082A0BD0102A06D0182A67
:101DB00001D00120F0BD072BFBD204E0082BF8D2A4
:101DC00001E0102BF5D22368596121688B6823F05C
:101DD000180313438B60F0BD70B504460220607792
:101DE000002023689D6845F001059D60236A012B52
:101DF0000ED0022B10D0032B11D104E0236851F830
:101E000020501D60401C9042F8D32068006806E016
:101E10002046FEF795FE02E02046FEF779FE0121FE
:101E2000617770BD10B5040010D0607F20B900202C
:101E30002077204600F032F821790220607739B10E
:101E4000D4E902122046FFF79DFF48B1012010BDE2
:101E50002168114848612068816821F0180181607B
:101E60006079A0B121682069086101222068636956
:101E7000816821F06001194381602068A36981684D
:101E800021F08001194381606277002010BD216834
:101E90004FF0FF30E8E70000B71DC10408B5006847
:101EA0000649884208D10648016841F400210160D2
:101EB000006800F40020009008BD0000004C0258AB
:101EC000E04402582DE9F0418C46044690F84D005C
:101ED00006990025012806D0216D012084F84C5078
:101EE00041F008013CE094F84C00022784F84D7062
:101EF00001281ED0606A0126C4F830C084F84C6006
:101F000063636587A587B8B1E2872068374B0268AD
:101F100042F004020260226810681840202853D062
:101F200010DCF8B108281DD010281BD0182813D1B8
:101F300018E00220BDE8F0814FF6FF7000EA820051
:101F4000E087E2E728283FD030283DD0B0F5002FC9
:101F50003ED0B0F1081F3FD0216D012041F020019B
:101F60002165E7E7E06800689062E0682268406801
:101F7000D062606908B108280FD1E06822688068E3
:101F80001063E0682268C0685063E06822680069F6
:101F90009063E06822684069D0636069182801D0C6
:101FA000082807D120692268006810642069226827
:101FB000406850642068026842F480420260204613
:101FC0002764FFF7BEFA0AE02046FFF77FF806E035
:101FD0002046FEF764FF02E02046FEF7E5FD0028FC
:101FE000A8D184F84D6084F84C50A3E7380008006D
:101FF0002DE9F0418C46044690F84D0006990025E5
:10200000012806D0216D012084F84C5041F00801D0
:102010003CE094F84C00022784F84D7001281ED053
:10202000606A0126C4F830C084F84C606363658739
:10203000A587B8B1E2872068374B026822F0040216
:102040000260226810681840202853D010DCF8B1D4
:1020500008281DD010281BD0182813D118E0022002
:10206000BDE8F0814FF6FF7000EA8200E087E2E70A
:1020700028283FD030283DD0B0F5002F3ED0B0F119
:10208000081F3FD0216D012041F020012165E7E7C5
:10209000E06800689062E06822684068D062606929
:1020A00008B108280FD1E068226880681063E068F2
:1020B0002268C0685063E068226800699063E06845
:1020C00022684069D0636069182801D0082807D1C8
:1020D00020692268006810642069226840685064A2
:1020E0002068026842F48042026020462764FFF7BD
:1020F00028FA0AE02046FFF75BF806E02046FEF7E4
:10210000CEFE02E02046FEF74FFD0028A8D184F85D
:102110004D6084F84C50A3E7380008007047000079
:102120002DE9F041040004D094F84D00002518B1C9
:1021300007E00120BDE8F081204684F84C5000F013
:1021400019F8D4E90010A66862690B683043084F9B
:102150003B401A431043086000F080FA014601201A
:10216000C4E91451A56584F84D0020640020E1E71E
:1021700007FCF7FF08B500680649884208D1064801
:10218000016841F010010160006800F0100000904B
:1021900008BD000000100248DC44025870B5044637
:1021A00000F062FA0546601C02D00448007804443E
:1021B00000F05AFA401BA042FAD370BD080000207C
:1021C000F0B5B7B0142130A8FEF7EEF82F4801683B
:1021D000002958D101240460C0216846FEF7E4F8C4
:1021E000002012942106CDE90010684600F020FF7F
:1021F00008B1FFF7F8FC2648016841F480510160FE
:10220000006830A9022400F48050359000274FF672
:1022100083700C2581E8910003261E48CDE93365C3
:1022200000F0FCF830A948F2371081E891001A4814
:10223000CDE9336500F0F2F830A94CF2037081E883
:1022400091001648CDE9336500F0E8F830A94FF663
:102250003F0081E891001248CDE9336500F0DEF8D7
:10226000CDE93054329730A90E48CDE9336500F0FE
:10227000D5F820203495CDE930040B4830A9CDE9BC
:10228000324600F0CBF837B0F0BD0000000000206F
:10229000D44402580010025800180258000C02588A
:1022A0000014025800080258001C02582DE9F04F93
:1022B0004F4D00224FF0010A4FF00F0B92E000BF8C
:1022C0000AFA02F919EA01037ED022F0030606F1A8
:1022D000B0469407D6F808C4270FDFF818810BFA28
:1022E00007FE40450EEA0C0402D14FF0000C40E01E
:1022F000DFF804C1604502D14FF0010C39E0DFF88E
:10230000FCC0604502D14FF0020C32E0DFF8F0C0B3
:10231000604502D14FF0030C2BE0DFF8E8C06045C8
:1023200002D14FF0040C24E0DFF8DCC0604502D19C
:102330004FF0050C1DE0DFF8D4C0604502D14FF02E
:10234000060C16E0DFF8C8C0604502D14FF0070C5C
:102350000FE0DFF8C0C0604502D14FF0080C08E084
:10236000DFF8B4C0604502D14FF0090C01E04FF036
:102370000A0C0CFA07FCA44513D12C689C432C6072
:102380006F684FF0B0449F436F6067689F4367601A
:1023900027689F432760D6F8084424EA0E04C6F84D
:1023A000084407680323D4084FEA42084FEA427CF6
:1023B00003FA08F34FEADC6C1F4307600BFA0CF6D4
:1023C00000EB8404276A00E00BE0B7432762C4688F
:1023D0009C43C460446824EA0904446084689C43C4
:1023E0008460521C31FA02F37FF46AAFBDE8F08FCB
:1023F00080000058000002580004025800080258EB
:10240000000C02580010025800140258001802581C
:10241000001C025800200258002402582DE9F84FF1
:1024200003247D4D00234FF001094FF0B04B4FF0D6
:102430000F0AE9E009FA03F73A4076D00E7906F080
:102440000306012E01D0022E18D1D0F808C04FEAA1
:10245000430ECE6804FA0EF82CEA080C06FA0EF6C3
:1024600046EA0C068660D0F804C00E792CEA070C08
:10247000C6F300169E4046EA0C0646600E79F64307
:10248000B6070BD0C6684FEA43088F6804FA08FC09
:1024900026EA0C0607FA08F73743C7600E7906F0FC
:1024A0000306022E12D1DE080F694FEA437C00EBCF
:1024B0008606B646366A4FEADC6C0AFA0CF807FA6A
:1024C0000CF726EA08063743CEF820700F79066825
:1024D0004FEA430807F0030704FA08FC07FA08F775
:1024E00026EA0C06374307604E6816F4403F1CD0BE
:1024F0004A4E376847F00207376036689F0706F094
:102500000206009623F0030606F1B046B6463F0FDA
:10251000D6F80864DFF808810AFA07FC404526EA85
:102520000C0603D14FF0000C41E06CE0DFF8F4C082
:10253000604502D14FF0010C39E0DFF8ECC0604596
:1025400002D14FF0020C32E0DFF8E0C0604502D16A
:102550004FF0030C2BE0DFF8D8C0604502D14FF0FC
:10256000040C24E0DFF8CCC0604502D14FF0050C2C
:102570001DE0DFF8C4C0604502D14FF0060C16E044
:10258000DFF8B8C0604502D14FF0070C0FE0DFF86C
:10259000B0C0604502D14FF0080C08E0DFF8A4C0DD
:1025A000604502D14FF0090C01E04FF00A0C0CFA23
:1025B00007FC4CEA060CCEF808C44F68DBF8006054
:1025C000FF0226EA020600D516435F46CBF80060FC
:1025D000D1F804C0DBF804605FEA8C2C26EA02061E
:1025E00000D516437E606E684F6826EA0206BF0378
:1025F00000D516436E602E684F6826EA0206FF0378
:1026000000D516432E605B1C0A6832FA03F67FF48D
:1026100011AFBDE8F88F000080000058F444025864
:10262000000002580004025800080258000C02582A
:10263000001002580014025800180258001C0258DA
:1026400000200258002402580069084000D00120F0
:1026500070470AB1816170470904FBE701480068CF
:10266000000C70470010005C014880687047000053
:102670000800002002488168027811448160704798
:1026800008000020032010B500F078F801F01AFBD4
:102690000F4A104914681368C4F3032203F00F03B0
:1026A0008A5CC95C02F01F0201F01F01D0400A4A97
:1026B00020FA01F11160094908600F2000F010F8BC
:1026C00008B1012010BD00F02BF8002010BD000063
:1026D00018440258EC930008180000201400002051
:1026E00070B50D4D04462878A0B14FF47A71B1FB56
:1026F000F0F00A490968B1FBF0F002F0C9FB48B9F3
:10270000102C07D200222146501E00F017F800209E
:102710006C6070BD012070BD080000201400002016
:10272000054808B5016841F002010160006800F049
:102730000200009008BD0000F44402580E4BF0B4B3
:102740001B680D46C3F30223C3F10706042E00D90C
:102750000426191D072901D2002300E0DB1E0124F5
:1027600004FA06F19C40491E2940641E9940144019
:102770002143F0BC04F05CBA0CED00E0064900F027
:10278000070210B54FF6FF040868044B204040EAEA
:1027900002201843086010BD0CED00E00000FA05AF
:1027A000134970B50A68D243520705D5096801F08C
:1027B0000701814213D118E00A6822F007020243A0
:1027C0000A60FFF751FF0A4D4FF47A760446083D40
:1027D00007E000BFFFF748FF001BB04201D901200E
:1027E00070BD2868C0438004F4D4002070BD000090
:1027F0000C480258F8B50446FFF736FF05461CB1F1
:1028000094F8410010B107E00120F8BD204600F027
:1028100047F841F28830A06420686FF0FF02A16899
:10282000036802EB012223F4F85111430160A06C0C
:10283000002220212B460090204602F094FE002822
:10284000E3D12268D4E907352679E168176845EABB
:102850000665DFF844C01943104B294300250126C3
:1028600007EA0C07394311602268D4E90517B4F868
:1028700010C0D2F804E039430EEA030E4EEA0C43CE
:102880001943516021680A6842F001020A606564D8
:1028900084F84160F8BD00002FFFFF00FEF8E0FF64
:1028A0002DE9F041B6B00446142130A8FDF77CFDB7
:1028B000C0216846FDF778FD2A49206888424DD13D
:1028C000002013904FF000710446CDE900106846D7
:1028D00000F0AEFB08B1FFF786F92348016841F428
:1028E00080410160006800F4804035901E480C3043
:1028F000016841F040010160016801F0400135913B
:10290000016841F020010160006832AA022500F050
:102910002000359003260A27012182E8C2004020CA
:10292000CDE93005114830A9FFF778FD092132942F
:10293000DFF83C804FF49860CDE93361CDE9300594
:1029400030A94046FFF76AFD300232AACDE93005D2
:1029500030A9404682E8D000FFF760FD36B0BDE800
:10296000F081000000500052D44402580018025870
:102970000014025810B501F05FF905490968054ACD
:10298000C1F30211515C01F01F01C84010BD0000ED
:1029900020440258EC9300084A4930B5494C0B1DBD
:1029A0000A680C3409681D68246802F0030305F006
:1029B0000102C1F30511C4F3CC04002914FB02F297
:1029C00000EE102AF8EE400A76D0414A9FED3E1AFA
:1029D000DFED3E1AB7EE000A23B1012B5AD0022BCD
:1029E00018D15CE0374C283C23689B0612D5394B44
:1029F000246801EE901A1168C4F3C104F8EE612A4C
:102A0000E34001EE903AC1F30801F8EE611A81EE5D
:102A1000A22A07E002EE101A1168F8EE422A81EEAF
:102A2000A22A45E001EE901A1168F8EE611A40EE14
:102A3000811A71EE800A62EE200AC1F3462101EE8E
:102A4000101AB8EE411A31EE001AC0EE811ABCEE2F
:102A5000E11A80ED001A1168C1F3064101EE101A67
:102A6000B8EE411A31EE001AC0EE811ABCEEE11A3E
:102A700080ED011A1168C1F3066101EE101AB8EE7B
:102A8000411A31EE000A80EE801ABCEEC10A80EDD8
:102A9000020A30BD01EE901ADFED0F2A03E001EECD
:102AA000901ADFED0E2A1168F8EE611A82EEA12A63
:102AB000C1F30801B6E7FFE70021016041608160D2
:102AC00030BD000028440258000000390024744C36
:102AD000304402580090D0030024744A20BCBE4BFE
:102AE000494930B5484C0B1D0A68143409681D6803
:102AF000246802F00303C5F30012C1F30531C4F3E7
:102B0000CC04002914FB02F200EE102AF8EE400A71
:102B100075D03F4A9FED3D1AB7EE000A6BB1DFED6D
:102B20003D1A012B01D0022B64D002EE101A11685D
:102B3000F8EE422A81EEA22A21E0334C283C236899
:102B40009B0612D5344B246801EE901A1168C4F329
:102B5000C104F8EE612AE34001EE903AC1F30801A6
:102B6000F8EE611A81EEA22A0BE001EE901ADFED79
:102B70002B2A00BFF8EE611A116882EEA12AC1F378
:102B8000080101EE901A1168F8EE611A40EE811A00
:102B900071EE800A62EE200AC1F3462101EE101A9E
:102BA000B8EE411A31EE001AC0EE811ABCEEE11AFD
:102BB00080ED001A1168C1F3064101EE101AB8EE5B
:102BC000411A31EE001AC0EE811ABCEEE11A80ED16
:102BD000011A1168C1F3066101EE101AB8EE411A2C
:102BE00031EE000A80EE801ABCEEC10A80ED020AC6
:102BF00030BD04E001EE901ADFED092ABAE70021AA
:102C0000016041608160F3E7284402580000003908
:102C1000384402580024744A0090D0030024744CB5
:102C200020BCBE4B494930B5484C0B1D0A681C34CA
:102C300009681D68246802F00303C5F30022C1F38C
:102C40000551C4F3CC04002914FB02F200EE102A53
:102C5000F8EE400A75D03F4A9FED3D1AB7EE000AE4
:102C60006BB1DFED3D1A012B01D0022B64D002EED7
:102C7000101A1168F8EE422A81EEA22A21E0334CA4
:102C8000283C23689B0612D5344B246801EE901A29
:102C90001168C4F3C104F8EE612AE34001EE903AF2
:102CA000C1F30801F8EE611A81EEA22A0BE001EEF1
:102CB000901ADFED2B2A00BFF8EE611A116882EE40
:102CC000A12AC1F3080101EE901A1168F8EE611A09
:102CD00040EE811A71EE800A62EE200AC1F34621AD
:102CE00001EE101AB8EE411A31EE001AC0EE811A48
:102CF000BCEEE11A80ED001A1168C1F3064101EE45
:102D0000101AB8EE411A31EE001AC0EE811ABCEE6C
:102D1000E11A80ED011A1168C1F3066101EE101A83
:102D2000B8EE411A31EE000A80EE801ABCEEC10AFC
:102D300080ED020A30BD04E001EE901ADFED092AB1
:102D4000BAE70021016041608160F3E7284402583E
:102D500000000039404402580024744A0090D00317
:102D60000024744C20BCBE4B2DE9F04FAC4A054604
:102D7000DFF8A8A280F48070DFF8AC9289B013115C
:102D8000AA4C0843A748AAF104064FF0805C4FF014
:102D900000582CD085F400770F4357D0DFF87CB271
:102DA00085F480670F430BF1080B61D085F4006751
:102DB0000F4374D085F480570F436ED085F40057CD
:102DC0000F434FF480394FF4003E67D085F400275D
:102DD0000F4371D085F480370F436ED085F4804661
:102DE0000E436BD085F400420A4368D02AE0DAF83B
:102DF000001001F00701052924D2DFE801F075BCBD
:102E00007D25B10006A8FFF7C7FD079809B0BDE80A
:102E1000F08F6846FFF764FE0098F7E703A8FFF716
:102E200001FF0398F2E72068C0F3C10022FA00F026
:102E3000ECE72268D20571D561456FD11846E5E708
:102E40004145E3D00020E1E74846DFE7DAF800102B
:102E500001F4E07180294FD004DC002944D04029DE
:102E6000F0D188E0C029EFD0B1F5807FEAD177E0DA
:102E7000DBF8001001F46001B1F5800F3CD004DCF8
:102E800091B3B1F5001FDDD175E0B1F5C00FDBD016
:102E9000B1F5000FD6D163E001E018E030E0DBF8D7
:102EA000001001F0E061B1F1007F25D008DCD9B15C
:102EB000B1F1807FC6D15EE049E06CE079E09CE052
:102EC000B1F1407FC0D0B1F1806FBBD148E0DAF8FA
:102ED000001001F4E041B1F5005F0DD005DC19B13F
:102EE000B1F5805FAED146E094E0B1F5405FABD084
:102EF000B1F5804FA6D133E020688000A2D58DE7E0
:102F0000DAF8001001F4E021B1F5403F6CD006DCA6
:102F100061B149457AD0714594D157E037E0B1F5B8
:102F2000802F65D0B1F5A02F8CD10CE000F0A6FE6B
:102F30006CE76846FFF7D4FD019867E703A8FFF741
:102F400071FE049862E721688903F1D47AE7DBF81F
:102F5000001011F440310ED0494510D07145F5D123
:102F60003168256801F040516D077FF562AF002997
:102F70007FF45FAF57E720680001E7D549E7206895
:102F80008000E3D503A8FFF74DFE05983EE72268D1
:102F90009203DBD554E7306810F480303AD04845CE
:102FA000D4D120680001D1D56846FFF799FD029879
:102FB0002CE7DBF8001001F0E041B1F1405F13D0E5
:102FC00008DC71B1614521D04145BFD12068800046
:102FD000B4D437E7B1F1804F0AD0B1F1A04FB2D0ED
:102FE00030E7FFF7C7FC11E720684007AED51AE7C6
:102FF0002068C005AAD521E708E0DAF8001011F032
:103000004051A0D0614505D041459FD120680001C5
:103010008FD417E72068800198D5F3E65044025812
:103020000090D00340787D010080BB00004402582E
:103030002DE9FE4F0546DFF8E48350F8081B002415
:10304000F64FC943019005F12800264608F12408EF
:10305000009008011DD4A86E50B1B0F5801F0CD0AF
:10306000B0F5001F0ED0B0F5401F1ED001240FE0B8
:10307000386840F40030386017E00198022102F00F
:1030800097FA03E00098022102F022FB04000CD022
:1030900026462888C043C00523D4A86D05281ED223
:1030A000DFE800F00C11161B1B00AA6ED8F8001008
:1030B00021F440111143C8F80010EAE7386840F4E1
:1030C0000030386009E00198002102F071FA03E055
:1030D0000098002102F0FCFA044674B100E00124DB
:1030E00026462888C043800528D4E86D80281ED055
:1030F0000CDC90B140280ED114E0AA6DD8F8001075
:1031000021F007011143C8F80010EAE7C02813D0E6
:10311000B0F5807F10D001240FE0386840F4003013
:10312000386009E00198002102F042FA03E00098BB
:10313000002102F0CDFA04469CB126462888DFF82B
:10314000DC92C04309F12C0940052CD4D5F8A80025
:10315000B0F5800F20D00DDCA0B1B0F5001F0FD16D
:1031600015E0EA6DD8F8001021F4E0711143C8F8B9
:103170000010E3E7B0F5C00F13D0B0F5000F10D08A
:1031800001240FE0386840F40030386009E001980D
:10319000002102F00DFA03E00098002102F098FAF5
:1031A00004467CB126462888C04300052DD4D5F8B6
:1031B000AC00B0F1007F21D00EDCA8B1B0F1807F6F
:1031C00010D116E0D5F8A820D9F8001021F460013C
:1031D0001143C9F80010E6E7B0F1407F13D0B0F119
:1031E000806F10D001240FE0386840F40030386060
:1031F00009E00198002102F0DBF903E000980021CA
:1032000002F066FA044674B126462868C04380017D
:103210001FD4E86CD8B110280FD0202812D0302845
:1032200015D0012414E0D5F8AC20D9F8001021F015
:10323000E0611143C9F80010E7E7386840F4003056
:10324000386004E00198022102F0B2F9044674B13A
:1032500026462888C043C0042BD4286EB0F5005FF2
:1032600020D00DDCA0B1B0F5805F0FD115E06B4828
:10327000EA6C2030016821F0300111430160E8E779
:10328000B0F5405F13D0B0F5804F10D001240FE0AF
:10329000386840F40030386009E00198002102F0FD
:1032A00087F903E00098002102F012FA04468CB17D
:1032B00026462888C043800429D4686EB0F5403F74
:1032C00023D010DC08B3B0F5803F14D0B0F5003F38
:1032D0000FD115E02A6ED8F8001021F4E041114317
:1032E000C8F80010E5E7B0F5802F0ED0B0F5A02F9C
:1032F0000BD001240AE00198012102F059F903E002
:103300000098012102F0E4F9044694B12646288889
:10331000C04340042AD4D5F8B000B0F1405F23D0B8
:1033200010DC08B3B0F1805F14D0B0F1005F0FD1B2
:1033300015E06A6ED8F8001021F4E0211143C8F8B6
:103340000010E4E7B0F1804F0ED0B0F1A04F0BD0E9
:1033500001240AE00198012102F02AF903E0009813
:10336000012102F0B5F9044674B126462888C0430D
:1033700000041FD4286FD8B1B0F1805F0ED0B0F137
:10338000005F10D0012414E0D5F8B020D9F8001067
:1033900021F0E0411143C9F80010E7E7386840F434
:1033A0000030386004E00198012102F001F9044680
:1033B00074B126462868C043C0011ED4A86CD0B1A1
:1033C00001280ED0022811D0032814D0012413E0C4
:1033D0002A6FD8F8001021F040511143C8F80010AE
:1033E000E8E7386840F40030386004E001980221D2
:1033F00002F0DEF80446ACB126462868DFF81CB0BF
:10340000C043ABF11C0B400252D40548016841F4A3
:1034100080710160FFF728F9824611E02C440258C0
:1034200000480258FA48AA6C016821F003011143D0
:103430000160E2E7FFF718F9A0EB0A00642835D82D
:10344000F4480068C005F5D58CBBDFF8C4A3B5F817
:10345000B4100AF1240ADAF8000001F4407100F413
:103460004070884211D0DAF80010DAF8002021F418
:10347000407142F48032CAF80020DAF8002022F4C9
:103480008032CAF80020CAF80010D5F8B400B0F5B0
:10349000807F1AD1FFF7E8F8029012E0FFF7E4F816
:1034A0000299411A41F2883081420AD90324264602
:1034B0002878DFF85CA3C0430AF1080AC00721D0CE
:1034C0003CE0DAF800008007E8D5D5F8B410C1F385
:1034D0000120032858460DD0016821F47C51016079
:1034E000B5F8B420DAF80010C2F30B021143CAF8A1
:1034F0000010DDE7C84A036802EA111223F47C5188
:103500001143ECE7E86F182816D005DCA0B10828B5
:1035100008D0102804D10AE020280DD028280BD08C
:1035200001240AE00198012102F042F803E000982A
:10353000012102F0CDF8044664B126462878C04344
:1035400080071ED4A86F062819D2DFE800F0160CF9
:1035500011161616EA6FDAF8001021F0380111433F
:10356000CAF80010EAE70198012102F021F803E00F
:103570000098012102F0ACF804467CB100E001247F
:1035800026462878C04340071FD4D5F89400062863
:1035900019D2DFE800F0160C11161616AA6FDAF829
:1035A000001021F007011143CAF80010E9E7019863
:1035B000012101F0FDFF03E00098012102F088F8ED
:1035C0000446A4B100E0012426462878C0438006C2
:1035D0002BD4D5F89000B0F1405F24D011DC10B3AB
:1035E000B0F1805F15D0B0F1005F10D116E0D5F8D2
:1035F0009420D9F8001021F007011143C9F80010F8
:10360000E3E7B0F1804F0ED0B0F1A04F0BD0012412
:103610000AE00198002101F0CBFF03E000980221AD
:1036200002F056F8044694B126462878C043400676
:103630002BD4D5F89C00B0F5406F24D011DC10B32A
:10364000B0F5806F15D0B0F5006F10D116E0D5F849
:103650009020DAF8001021F0E0411143CAF8001080
:10366000E3E7B0F5805F0ED0B0F5A05F0BD001248A
:103670000AE00198002101F09BFF03E0009802217D
:1036800002F026F8044694B126462878C043000686
:103690002BD4D5F8A000B0F5C04F24D011DC10B366
:1036A000B0F5005F15D0B0F5804F10D116E0D5F819
:1036B0009C20D9F8001021F4E0511143C9F8001002
:1036C000E3E7B0F5004F0ED0B0F5204F0BD001244A
:1036D0000AE00198002101F06BFF03E0009802214D
:1036E00001F0F6FF044654B126462878C04300078F
:1036F0001ED4D5F88400B0F5805F0AD00FE0D5F86D
:10370000A020D9F8001021F460411143C9F800103D
:10371000EBE70098022101F0DBFF00B10126D5F8AC
:103720008420DAF8001021F440511143CAF8001047
:103730002878C043C00613D4D5F89800B0F5807F30
:1037400005D10098022101F0C3FF00B10126D5F890
:103750009820D9F8001021F440711143C9F80010E5
:103760002868C043000316D4D5F8A40038B1B0F5DA
:10377000803F09D0B0F5003F0BD001240AE001984A
:10378000002101F015FF03E00098022101F0A0FFE5
:1037900004468CB126462868C043400322D4D5F89D
:1037A0008800B0F5801F11D0B0F5001F13D0B0F520
:1037B000401F15D0012414E0D5F8A420D9F800103A
:1037C00021F440311143C9F80010E4E7386840F4AF
:1037D0000030386004E00098012101F079FF0446D0
:1037E0005CB126462868C043C00323D4286DA8B125
:1037F000B0F5803F17D001241BE0D5F88820DAF817
:10380000001021F440111143CAF80010EAE700004B
:103810004C44025800480258CFFFFF00386840F47B
:103820000030386004E00198022101F0C1FE044636
:10383000E4B126462868C043800005D400980221E0
:1038400001F046FF00B101262868C04380031BD465
:10385000D5F88000B0B1B0F5807F0FD0B0F5007F13
:1038600010D0B0F5407F0DD001240CE05A482A6DED
:10387000016821F4803111430160DBE7386840F4CE
:1038800000303860ECB326462868C043C00207D435
:103890006A6FD8F8001021F000411143C8F80010F9
:1038A0002868C043C00008D4D5F8B820DBF8001061
:1038B00021F480411143CBF800102868C0438002F6
:1038C00007D4EA6ED8F8001021F080711143C8F8CF
:1038D00000102868C04340000CD4DBF8001021F42D
:1038E0000041CBF80010DBF80010D5F8BC201143E4
:1038F000CBF800102868C04308D437486A6D0168C7
:1039000000E018E021F04051114301602868C043F5
:10391000000208D4D5F88C20DAF8001021F4400118
:103920001143CAF8001028790024C04300F00100B8
:1039300020430AD00FE0D5F88020DAF8001021F4F7
:1039400040711143CAF800109EE70198002101F070
:103950002FFE00B106462879C04300F00200204344
:1039600005D10198012101F023FE00B10646287916
:10397000C04300F00400204305D10198022101F06A
:1039800017FE00B106462879C04300F00800204326
:1039900005D10098002101F09BFE00B10646287970
:1039A000C04300F01000204305D10098012101F030
:1039B0008FFE00B106462879C04300F02000044382
:1039C00004D10098022101F083FE00B916B1012054
:1039D000BDE8FE8F0020FBE74C4402582DE9F05F64
:1039E00004000F467ED0DFF83882D8F8000000F0DF
:1039F0000F00B8420CD2D8F8001021F00F01394363
:103A0000C8F80010D8F8000000F00F00B84269D1E3
:103A10002078844D40070AD52069296801F070019B
:103A2000884204D9296821F0700101432960207877
:103A30007C4E361D00070AD56069316801F07001BF
:103A4000884204D9316821F0700101433160207847
:103A5000C0060AD5A069316801F4E061884204D942
:103A6000316821F4E061014331602078DFF8B4B1BE
:103A700080060BF1080B0CD5E1695846DBF80020F5
:103A800002F07002914204D9026822F070020A43E7
:103A90000260207880070AD5E068296801F00F01EC
:103AA000884204D9296821F00F0101432960207858
:103AB000C0073ED05B49A2682868183920F47060BE
:103AC000104328606068022818D0032819D00968BC
:103AD000012819D0490700294ADADFF848A1AAF1DC
:103AE000080A00E044E0DAF8002022F0070202436E
:103AF000CAF80020FEF7B8FD814612E00968890384
:103B0000E9E709688901E6E7C905E4E7FEF7ACFDE6
:103B1000A0EB090141F28830814202D90320BDE8BF
:103B2000F09F6168DAF8000000F03800B0EBC10FD8
:103B3000ECD1207880070AD5E068296801F00F01F0
:103B4000884204D2296821F00F0101432960D8F886
:103B50000010404601F00F01B9420BD9016821F075
:103B60000F0139430160006800F00F00B84201D036
:103B70000120D4E7207840070AD52069296801F0A0
:103B80007001884204D2296821F070010143296044
:103B9000207800070AD56069316801F07001884219
:103BA00004D2316821F07001014331602078C006F1
:103BB0000AD5A069316801F4E061884204D2316815
:103BC00021F4E06101433160207880060CD5E16981
:103BD0005846DBF8002002F07002914204D20268DD
:103BE00022F070020A43026000F06CF80E492A6865
:103BF0002B68C2F3032203F00F038A5CC95C02F056
:103C00001F0201F01F01D040084A20FA01F11160A3
:103C10000749086007480068BDE8F05FFEF760BD2F
:103C20000020005218440258EC93000818000020AD
:103C3000140000200C00002030B500F043F80B4ABF
:103C40000B490C4B15681468C5F3032204F00F04EC
:103C50008A5C095D02F01F0201F01F01D040064A94
:103C600020FA01F119601060084630BD184402586E
:103C7000EC930008180000201400002000B5FFF7A6
:103C8000DBFF05490968054AC1F30211515C01F0E7
:103C90001F01C84000BD00001C440258EC930008FE
:103CA00000B5FFF7C9FF05490968054AC1F30221BC
:103CB000515C01F01F01C84000BD00001C440258C7
:103CC000EC930008454970B545480968434B103BE3
:103CD00011F0380208D00111082A03D0102A0BD0A5
:103CE000182A0BD0084670BD19688906FBD51968DB
:103CF000C1F3C101C84070BD3A4870BD3749374D66
:103D000018310C1D24350A68096826682D6802F0F0
:103D1000030406F00102C1F30511C5F3CC0515FB40
:103D200002F200EE102AB8EE400AE9B32F4ADFEDA6
:103D30002E0AB7EE001A6CB1DFED2D1A012C01D05E
:103D4000022C43D002EE101A1068F8EE422A81EEDF
:103D5000A22A1EE01C68A40611D51B6801EE901A69
:103D60001168C3F3C103F8EE612AD84001EE900A4E
:103D7000C1F30800F8EE611A81EEA22A0BE001EE11
:103D8000901ADFED1C2A00BFF8EE611A106882EE6F
:103D9000A12AC0F3080001EE900AF8EE611A40EE85
:103DA000201A31EE810A00E015E022EE000A1068C8
:103DB000C0F34620401C00EE900AF8EE600A80EE48
:103DC000201ABCEEC10A10EE100A70BD01EE901A66
:103DD000DFED092AD8E7002070BD0000104402582A
:103DE0000090D00340787D01000000393044025833
:103DF0000024744A0024744C20BCBE4B2DE9F05FB3
:103E000004007DD0FF4F2078FE4D1837DFF8F49383
:103E1000103DC00748D0D9F80000396800F03800DC
:103E2000102815D0182803D101F0030002280FD064
:103E30006068B0F5803F12D010B1B0F5A02F18D057
:103E4000286820F480302860286820F4802009E069
:103E50002868800328D560680028D2D024E028682C
:103E600040F480302860606888B1FEF7FDFB0646AC
:103E700009E0286840F480202860F0E7FEF7F4FBB2
:103E8000801B64286FD828688003F7D50CE0FEF704
:103E9000EBFB064605E000BFFEF7E6FB801B64284F
:103EA000F0D828688003F7D4207841F20308D54E73
:103EB0000C3E800769D5D9F80000396810F0380049
:103EC0000ED0182801D188070AD0E06890B329687D
:103ED00021F0190101432960FEF7C6FB824631E05B
:103EE0002868400702D5E06800288AD0E168286881
:103EF00020F0190008432860FEF7B6FB824607E071
:103F0000DFE000BFFEF7B0FBA0EB0A000228B9D843
:103F100028684007F6D500BFFEF7A0FB40451BD838
:103F20002069402812D0316821F47C3141EA003008
:103F300030602AE018E000BFFEF796FBA0EB0A0015
:103F400002289FD828684007F6D5E5E7306820F4B6
:103F50007C3040F40030EBE7207C316821F0FE41FA
:103F600041EA0060E4E70DE1286820F001002860E4
:103F7000FEF77AFB824605E0FEF776FBA0EB0A002F
:103F800002288DD828684007F6D42078C0065DD571
:103F9000D9F80000DFF86CB2396800F03800ABF1F6
:103FA000040B082810D0182803D101F003000128C1
:103FB0000AD0E0690028286838D040F080002860E6
:103FC000FEF752FB824623E02868C00523D5E0694E
:103FD000802876D11FE0206A202821D0316821F086
:103FE000F84141EA8060306030E000BF94F8201072
:103FF000DBF8002022F07C5242EA0161CBF800108D
:1040000024E000BFFEF730FBA0EB0A00022898D89E
:104010002868C005F6D5FEF721FB4045E6D8DAE76B
:10402000306820F0F84040F08040DCE720F080006D
:104030002860FEF719FB064605E000BFFEF714FBFB
:10404000801B02289DD82868C005F7D42078000777
:1040500029D56C486169643000298046016811D017
:1040600041F001010160FEF7FFFA064605E000BFDE
:10407000FEF7FAFA801B0228C9D8D8F8000080079A
:10408000F6D510E021F001010160FEF7EDFA0646D9
:1040900005E000BFFEF7E8FA801B022872D8D8F8C6
:1040A00000008007F6D42078800623D5A069002878
:1040B000286810D040F480502860FEF7D5FA0646F4
:1040C00005E036E1FEF7D0FA801B02285AD82868AE
:1040D0008004F7D50EE020F480502860FEF7C4FA83
:1040E000064604E0FEF7C0FA801B02284AD828687A
:1040F0008004F7D4207840074FD5DFF80C81D8F83A
:10410000001041F48071C8F80010FEF7ADFA0646C1
:1041100005E000BFFEF7A8FA801B642832D8D8F863
:104120000000C005F6D5374EA068603601280AD0D9
:1041300008B1052813D0306820F0010030603068E5
:1041400020F0040002E0306840F001003060A06818
:1041500041F2883A90B1FEF787FA80460AE030686B
:1041600040F004003060EEE7FEF77EFAA0EB0801B5
:10417000514507D830688007F6D50EE0FEF774FA8F
:10418000804607E084E000BFFEF76EFAA0EB08016E
:1041900051457DD830688007F6D4606AB0B3DFF847
:1041A0006480D9F8001008F120084FF6F87B08F178
:1041B0000409C1F3C2010329A8F1040A69D0022845
:1041C000286820F08070286003D0FEF74DFA04467E
:1041D00084E0FEF749FA064605E000BFFEF744FA20
:1041E000801B022877D828688001F7D4E26A40F261
:1041F000F331386854F8283F884340EA02101843E6
:10420000386004E01044025800480258B5E0217BB1
:10421000434622894FF4FE0C208A4FF0FE474902A4
:10422000267D521E401EA1F50071C2F308088AB215
:10423000761E0CEA004042EA08020243504607EAB2
:1042400006610A431A60DAF8002022F00102CAF877
:104250000020D9F80020266A22EA0B0242EAC602B0
:10426000C9F80020DAF80010A26921F00C0111430E
:10427000CAF800100168E26921F0020111430160EF
:10428000016841F480310160016841F4003101E0CE
:1042900021E027E00160016841F4802101600168AC
:1042A00041F001010160286840F080702860FEF74D
:1042B000DBF9044605E000BFFEF7D6F9001B022833
:1042C00009D828688001F7D557E000BFFEF7CCF980
:1042D000001B022802D90320BDE8F09F2868800156
:1042E000F4D44AE039680128D8F8000021D0A26A45
:1042F00001F0030393421CD1E26AC1F305118A4223
:1043000017D1216BC0F30802491E8A4211D1616B9B
:10431000C0F34622491E91420BD1A16BC0F3064265
:10432000491E914205D1E16BC0F30660491E8142EE
:1043300001D00120D0E7A16C4E46D9F80000C0F3AF
:10434000CC00814219D0DAF80000554620F0010077
:10435000CAF80000FEF788F94FEA0007FEF784F973
:10436000B842FBD0A26C306820EA0B0040EAC200E1
:104370003060286840F0010028600020ACE70000B1
:1043800070B504000D4603D094F82C0010B107E07E
:10439000012070BD002084F82D00204600F018F8A0
:1043A000022084F82C002068211DFDF741FCD4E98F
:1043B00000022946FDF78EFC04480121026842F004
:1043C0000042026084F82C10002070BD00400052B2
:1043D000FDF7F6BE10B5044690F82C00022804D074
:1043E00094F82C00012801D0012010BD022084F88F
:1043F0002C002068FDF751FC012084F82C000020DF
:1044000010BD000070B5044690F82C000D4602283F
:1044100004D0012803D0052801D0012070BD02205E
:1044200084F82C002068FDF741FC2868022805D09C
:104430005FF0010084F82C00002070BD0520F9E732
:104440002DE9FC5F0446806B0E46032184F8301092
:10445000002703285CD0B6F5004F59D0B6F5804F41
:104460004FF000054FF400684FF0806904D006B3A8
:10447000606B40F000603FE00095002101952068EE
:1044800001F002FD80011CD46946204601F084FD44
:1044900070BB019840032DD5B4F84410206809047E
:1044A00001F0A6F920BB206802211DE0606B2843C3
:1044B00022E0009500210195206801F0E5FC8001D3
:1044C00001D54546F2E76946204601F065FD78B919
:1044D0000198C0030ED5B4F844102068090401F017
:1044E00087F928B92068002101F0CCF90028DDD037
:1044F0000546DBE74D46D9E76063606B4FF4007B10
:10450000DFF8B8A040B121680127C1F838A042E027
:10451000606B40F08050EFE700214FF48030FEF7F1
:1045200023FC010032D0264D3346D4E904C0B1FB50
:10453000F5F8D4E90192804510D9A66D5E450DD0FD
:10454000B6F5807F11D04FEA6506E0B14FEA40082A
:10455000B1FBF8F8B04501D9B1FBF5F04946CDE91A
:1045600000C0206801F094FC15E0164E30B14FEA0F
:104570004008B1FBF8F8A84502D8EFE7A942EDD909
:10458000B1FBF6F0EAE7B142E6D8E7E7606B012756
:1045900040F0006060632068594601F05AF930B17C
:1045A00022680127C2F838A0616B014361630120D2
:1045B00084F830003846BDE8FC9F0000FF0FE01F84
:1045C00080F0FA0200E1F505F0B5C26D920F0A70B5
:1045D000C26DC2F383624A70C26DC2F301628A7017
:1045E000C26D120CCA70B0F85C20120A0A7190F801
:1045F0005C204A71026E120DCA80026EC2F3034241
:104600000A72B0F86020C2F3C0324A72B0F860207B
:10461000C2F380328A72B0F86020C2F34032CA72AC
:10462000B0F860200026C2F300320A734E730122F4
:10463000836B4FF4007463B1012B3AD00368504987
:104640009963416B41F08051416380F83020012033
:10465000F0BDB0F86030456E9B051B0D43EA9573C5
:104660000B61436EC3F3C2630B75436EC3F3026306
:104670004B75436EC3F342538B75436EC3F3824352
:10468000CB75436EC3F3C2330B760D696D1C856425
:104690000B7E03F007039B1C9D4085640B7A4465E9
:1046A00003F00F0302FA03F35F0A7D43C0E91335F9
:1046B0000EE090F86050436EAD06AD0A45EA134334
:1046C0000B610B695B1C9B028364C0E91343446567
:1046D000B0F86430C3F380334B76B0F86430C3F382
:1046E000C6138B7690F8643003F07F03CB76836E2D
:1046F000DB0F0B77836EC3F341734B77836EC3F38A
:1047000082638B77836EC3F38353CB77836EC3F35C
:10471000405381F8203081F82160836EC3F3004359
:1047200081F82230B0F86830C3F3C03381F8233009
:10473000B0F86830C3F3803381F82430B0F86830C3
:10474000C3F3403381F82530B0F86830C3F3003349
:1047500081F82630B0F86830C3F3812381F8273020
:10476000B0F86830C3F3012381F8283090F868006E
:10477000C0F3460081F8290081F82A200020F0BD0E
:10478000FF0FE01F826B0A60C26B4A60026C8A6096
:10479000426CCA60826C0A61C26C4A61026D8A61B5
:1047A000406DC8610020704770B5B0F84410002516
:1047B00004460068090401F052F918B1616B014325
:1047C000616304E02068002101F05EFB0546C5F34B
:1047D000432070BD2DE9F041054690F8300090B0BF
:1047E0000C460026032810D06946284601F01CFD1F
:1047F0002A4F4FF0010860B12A68012697636A6B5F
:1048000002436A6385F830803AE0012010B0BDE8C9
:10481000F08100994FF47F40C1F38111217000991C
:10482000C1F34011617000990A4600EA112141EA82
:1048300012616180019909BA61600299217202993D
:10484000090A61720299C1F30351A172DDE90221E3
:1048500000EA1240C9B20843A0810398C0F3852042
:10486000A0730398C0F30120E0730398C0F3031012
:104870002074039800F00F0060740498000EA07478
:1048800028684FF4007100F0E4FF28B12A6801267F
:104890009763686385F830803046B7E7FF0FE01F05
:1048A000F0B5040085B020D094F83000002518B988
:1048B0002046257600F0B6F8042084F83000204623
:1048C00000F03CF888B969462046FFF783FF60B9DD
:1048D0009DF81010A26B9DF81100012A08D0A56563
:1048E0002046E168FFF7ACFD58B1012005B0F0BDEE
:1048F000014302D04FF4007001E04FF48070A065D6
:10490000EEE7FDF7B1FE0127064604E0FDF7ACFE39
:10491000801B401C0AD02046FFF746FF0428F5D133
:104920006563E56284F830700020DFE74FF00040F7
:10493000606384F830700320D8E700002DE9FC4163
:104940004FF0000804464FF480304146FEF70CFA61
:1049500005004FF0010723D0204843464246414618
:10496000B5FBF0F6CDE90086206801F091FA2068E9
:1049700001F09EFA1EB17000B5FBF0F52DB118489C
:10498000B0FBF5F0401CFDF709FC204601F0F2FBFE
:1049900060B100BF84F83070616B0143616319E05E
:1049A0004FF0006084F83070606313E0204601F03F
:1049B00065FB0028EED120684FF4007100F049FF3C
:1049C000002808D0226807499163616B0143616345
:1049D00084F830700120BDE8FC81000000350C0037
:1049E00010210100FF0FE01F10B50068094988423F
:1049F0000FD10948016821F48031016007484FF464
:104A0000F851FDF753FCBDE8104005480421FDF7BF
:104A10004DBC10BD00700052D4440258000802582A
:104A2000000C02582DE9F041B6B00446142130A81C
:104A3000FBF7BAFCC0216846FBF7B6FC28492068A2
:104A400088424AD100224FF00408022514464FF450
:104A5000803168468DE82600C027CDE90772102313
:104A6000099214910126CDE90338CDE90565FEF7D9
:104A7000DFFA08B1FDF7B7F81A48016841F4803150
:104A80000160006800F48030359016480C300168F1
:104A900041F004010160016801F0040135910168F1
:104AA00041F008010160006832AA032600F0080006
:104AB00035904FF4F850CDE930050C270A4882E8CC
:104AC000D00030A9FDF7AAFC32AA084830A982E834
:104AD000D000CDE93085FDF7A1FC36B0BDE8F0810E
:104AE00000700052D444025800080258000C0258CA
:104AF0002DE9F04F87B0994617460D460446FDF75D
:104B0000B3FD06903DB194F83000012807D0606BEA
:104B100040F000500DE0606B40F0006009E0226D55
:104B2000002007EB09016063914204D9606B40F0FB
:104B300000706063A8E0032184F830102168C86227
:104B4000A16B012900D07F024FF0020ACDE903A03A
:104B500090264FF0FF324FEA492305908DE84C0034
:104B600080462068694601F025F82068B9F1010FF8
:104B70004FF00106C16841F04001C16006D9C4F898
:104B80002CA03946206800F0D5FE04E0E6623946E4
:104B9000206800F0E9FEDFF814A150B12368C3F8E3
:104BA00038A0616B0143616384F83060C4F82C80E5
:104BB0006AE0DDF804B01FE0406B000414D5BBF1DF
:104BC000200F11D30027206801F078F9020A28701D
:104BD000010C6A70030EA9707F1CEB70082F05F1A1
:104BE0000405F0D3ABF1200BFDF73EFD0699411A09
:104BF0001098814221D200B32068416B11F4957F57
:104C0000DAD0C16821F04001C1602068416BC9055C
:104C100022D5B9F1010F1FD9A16B03291CD000F0D7
:104C20006BFFC8B12368C3F838A0626B02436263AC
:104C300084F83060C4F82C8026E02268C2F838A0DE
:104C4000606B40F00040606384F83060C4F82C80F2
:104C5000032007B0BDE8F08F2068416B090706D537
:104C6000C0F838A0616B404641F0080108E0416B94
:104C700089070BD5C0F838A0616B404641F00201AE
:104C8000616384F83060E0620120E2E7416B8906ED
:104C900006D5C0F838A0616B404641F02001EFE72F
:104CA0000349816384F830600020D2E7FF0FE01FE2
:104CB0003A0F00182DE9F04F89B09A4616460D4676
:104CC0000446FDF7D1FC06903DB194F83000012870
:104CD00007D0606B40F000500DE0606B40F000606A
:104CE00009E0226D002006EB0A016063914204D9BD
:104CF000606B40F000706063B2E0032184F8301014
:104D00002168C862A16B012900D076024FF0FF3103
:104D10004FEA4A22059090230490CDE90230CDE974
:104D2000001280462068694600F044FF2068C16890
:104D3000BAF1010F41F04002C26006D92020E062C2
:104D40002068314600F002FF05E01020E062206894
:104D5000314600F015FFDFF830B106004FF00109D1
:104D60000AD02368C3F838B0606B3043606384F8BE
:104D70003090C4F82C8073E00198089027E0406BD5
:104D800040041CD50898202819D3002728780790BC
:104D9000697840EA01200790A97840EA014007902D
:104DA000E9782D1D40EA01600790206807A901F00D
:104DB0009DF87F1C082FE9D3089820380890FDF74C
:104DC00053FC0699411A1298814221D200B32068FF
:104DD000416B11F48D7FD2D0C16821F04001C160D8
:104DE0002068416BC90521D5BAF1010F1ED9A16B0D
:104DF00003291BD000F080FEC0B12568C5F838B08B
:104E0000616B0143616384F83090C4F82C8027E023
:104E10002368C3F838B0626B3243626384F8309021
:104E2000C4F82C80032009B0BDE8F08F2068416BE6
:104E3000090707D54946C0F838B0626B404642F0D2
:104E4000080209E0416B89070CD54946C0F838B023
:104E5000626B404642F00202626384F83010E06206
:104E60000120E0E7416BC90607D54946C0F838B0D4
:104E7000626B404642F01002EEE7044A826384F817
:104E800030900020CFE70000FF0FE01F3A0F00181E
:104E9000401EB0F1807F10B501D3012010BD4FF04E
:104EA000E02460610F21601701F0C2FE0020A061C4
:104EB0000721216110BD30B590F88410012918D068
:104EC000012280F884202421C0F8881000222024A8
:104ED00001680B680D6823F0005325F001050D6093
:104EE000426601680B60C0F8884080F88420104654
:104EF00030BD022030BD70B5044690F88400012812
:104F00001DD0012284F884202420C4F88800206861
:104F10000568026822F0010202602068826822F0BF
:104F200060620A438260204601F036FB226820213D
:104F300000201560C4F8881084F8840070BD022039
:104F400070BD70B5044690F8840001281DD0012280
:104F500084F884202420C4F888002068056802684A
:104F600022F0010202602068826822F060420A4357
:104F70008260204601F010FB22682021002015608D
:104F8000C4F8881084F8840070BD022070BD10B58C
:104F9000040003D0D4F8880010B107E0012010BD50
:104FA000002084F88400204600F044F82420C4F84F
:104FB00088002068016821F001010160204601F0AD
:104FC000F1FB0128EBD0A06A10B1204601F006FBEE
:104FD0002068416821F4904141602068816821F097
:104FE0002A0181602068016841F0010101602046CA
:104FF000BDE8104001F056BB10B500680949884271
:105000000FD10948016821F40021016007484FF4DD
:105010000071FDF74BF9BDE8104005480121FDF78F
:1050200045B910BD004C0040E84402580020025829
:1050300000000258F0B5B7B00446142130A8FBF7C1
:10504000B3F9C0216846FBF7AFF9224920688842CE
:105050003DD100201E9002210446CDE90010684693
:10506000FDF7E6FF08B1FCF7BEFD1B48016841F4FF
:1050700000210160006800F40020359016480838CF
:10508000016841F480710160016801F4807135911B
:10509000016841F0010101600068022532AA00F0B8
:1050A000010035902802CDE9300503260B4808277A
:1050B00082E8D00030A9FDF7B1F9012032AACDE98C
:1050C0003005074830A982E8D000FDF7A7F937B0CE
:1050D000F0BD0000004C0040E84402580020025897
:1050E000000002582DE9F84F0446D0F88C009B468A
:1050F00016460D46202802D00220BDE8F88FC5B123
:10510000BEB10027C4F890702220C4F88C00E76676
:105110002034FDF7A9FA824654F8180CA6874FF4FC
:105120008053E687FF21203C984207D1226912B1C3
:1051300019E00120E1E740F2FF1114E04FF07F0297
:1051400078B1B0F1805F11D0A4F860709842B4F8E3
:1051500060704FF0200801D1206970B12E46002503
:105160000CE0266936B9A4F86010EFE7216909B1AF
:105170003F21F8E7A4F86020E8E7002607F0FF09E0
:10518000B4F85E00F0B10022534620212046CDF84D
:1051900000B001F0DDFC18B1C4F88C800320ACE74E
:1051A0002068406A56B100EA090006F8010B00BF0A
:1051B000B4F85E00401EA4F85E00E1E7384025F830
:1051C000020BF5E7C4F88C80002096E72DE9F84340
:1051D0000446D0F88800984616460D46202802D08E
:1051E0000220BDE8F883A5B19EB10021C4F890105B
:1051F0002120C4F888001834FDF736FA814654F8A7
:10520000100CA687E6872027183CB0F5805F02D0F7
:1052100003E00120E5E7206910B12E46002510E0EB
:1052200000260EE08021204601F092FCC0B9DEB1DC
:1052300016F8010B21688862B4F85600401EA4F8E5
:105240005600B4F856004B464FF00002CDF80080EF
:105250000028E7D14FF04001204601F079FC48B129
:10526000C4F888700320BCE735F8020B2168C0F34E
:105270000800E0E7C4F888700020B2E7FEE700000D
:105280000D48012170B50B4E002506608A1E057180
:105290002023417180240162103080E81C00103806
:1052A000FCF7C0FD002803D0BDE87040FCF79BBCB4
:1052B00070BD0000004C02585C0700200C48002321
:1052C0000A4A282110B54FF4007480E81C00094AEE
:1052D000C2602032C0E90421FCF722FF002803D07D
:1052E000BDE81040FCF77FBC10BD00000010024874
:1052F00080070020849300080449054810B5FCF796
:1053000074FC0249491E087010BD000066000020B0
:10531000FC930008F0B587B01C216846FBF744F801
:1053200012480022104B102140250C01C0E9003228
:10533000CB01846108260127C0E90723426282620B
:10534000C0E90415C0E90276009101910291039130
:105350000491059106916946FFF712F8002801D0E3
:10536000FCF741FC07B0F0BD40410052E0070020CF
:105370002DE9F04786B014216846FBF715F843483D
:10538000016841F004010160016801F00401059128
:10539000016841F010010160016801F01001059100
:1053A000016841F040010160016801F04001059190
:1053B000016841F008010160016801F008010591F0
:1053C000016841F480710160016801F48071059108
:1053D000016841F020010160016801F020010591A0
:1053E000016841F080010160016801F080010591D0
:1053F000016841F001010160016801F001010591BE
:10540000016841F00201016000680122DFF880803C
:10541000D60300F00200314605904046FDF719F929
:10542000DFF87090F711002239464846FDF711F970
:10543000DFF864A0002204215046FDF70AF9012498
:10544000694600254046CDE90064CDE90245FCF7F8
:10545000E5FF00976946CDE9014548460395FCF70D
:10546000DDFF032102260420CDE90261CDE900041D
:1054700069465046FCF7D2FF200369468DE861007B
:105480005046FCF7CBFF06B0BDE8F087E044025879
:105490000008025800200258000402580C48162246
:1054A00070B50021094BC0E90312416105248161F7
:1054B0000425C161016280E83800FDF79BF90028EE
:1054C00003D0BDE87040FCF78EBB70BD00500052A9
:1054D00014080020074800214FF4804310B5044C05
:1054E0000222C0E90041C0E90213C0E9041210BD64
:1054F00000700052600800201848002110B5164CBA
:105500000C224FF461230460C0E90131C160C0E99D
:1055100004128161C161016241628162FFF737FD5E
:1055200008B1FCF760FB0D480021FFF70AFD08B148
:10553000FCF759FB09480021FFF7DDFC08B1FCF737
:1055400052FB0648FFF7B7FC002803D0BDE8104027
:10555000FCF749BB10BD0000004C0040DC080020F7
:10556000FEE7FEE770472DE9F041984616460F46E4
:105570000446069D08E0681C06D0FDF775F8A0EB10
:105580000800A8420AD84DB120688068384000D091
:105590000120B042EFD10020BDE8F081042084F862
:1055A0004100606C40F0010060640120F4E70000FD
:1055B0002DE9F047454D044689464FF0000A28681A
:1055C000C04380070AD0414E283E306820F08060FA
:1055D0003060FDF749F80746B04608E00120BDE815
:1055E000F08700BFFDF740F8C01B022867D8D8F845
:1055F00000000001F6D4206829684FF4FE0721F46A
:105600007C313E0241EA00302860207AA389B4F858
:1056100004C040022D4D2D495B1E227CACF1010CD3
:105620001035091DA0F5007080B2521ECCF3080C95
:1056300007EA034340EA0C00184306EA02621043FB
:1056400028600868626920F0C000104308600A689A
:10565000A06922F0200202430A60281D0A6822F095
:1056600010020A6002684FF6F873E4699A4342EA4E
:10567000C40202600868B9F1000F40F010020A602D
:1056800011D00868B9F1010F11D040F40010086082
:10569000D8F80000444640F08060C8F80000FCF7ED
:1056A000E3FF05460DE0086840F40020EFE740F412
:1056B0008010ECE7FCF7D8FF401B022801D903203B
:1056C0008DE720680001F5D5504688E72844025848
:1056D0002DE9F047454D044689464FF0000A2868F9
:1056E000C04380070AD0414E283E306820F08050E9
:1056F0003060FCF7B9FF0746B04608E00120BDE87E
:10570000F08700BFFCF7B0FFC01B022867D8D8F8AD
:1057100000008000F6D4208829684FF4FE0721F0AD
:105720007C713E0241EA00502860207AA389B4F8D7
:1057300004C040022D4D2D495B1E227CACF1010CB2
:105740001835091DA0F5007080B2521ECCF3080C6C
:1057500007EA034340EA0C00184306EA02621043DA
:1057600028600868626920F44060104308600A6895
:10577000A06922F4007202430A60281D0A6822F41C
:1057800080720A6002684FF6F873E4699A4342EA4D
:10579000C40202600868B9F1000F40F480720A6028
:1057A00011D00868B9F1010F11D040F08070086085
:1057B000D8F80000444640F08050C8F80000FCF7DC
:1057C00053FF05460DE0086840F48000EFE740F421
:1057D0000000ECE7FCF748FF401B022801D903203A
:1057E0008DE720688000F5D5504688E728440258A8
:1057F00030B585B0044637204FF480720DF1080CA7
:10580000CDE9001000236946150120468CE82C00E4
:1058100000F058FB372141F28832204600F0DEF9D3
:1058200005B030BD30B585B0044629204FF48072F4
:105830000DF1080CCDE90010002369461501204642
:105840008CE82C0000F03EFB204600F083FA05B007
:1058500030BD30B50446102085B00DF1080C0201B2
:105860000502CDE90010002369468CE82C00204693
:1058700000F028FB102141F28832204600F0AEF9FA
:1058800005B030BD30B585B0044606204FF48072B7
:105890000DF1080CCDE900100023694615012046E2
:1058A0008CE82C0000F00EFB062141F288322046E5
:1058B00000F094F905B030BD30B585B00546002440
:1058C00069464FF48050009401940294CDE903405E
:1058D000284600F0F7FA0B4A4FF4FA5041F28831AB
:1058E0001268B2FBF0F04843401E03D24FF0004074
:1058F00005B030BD696B0906F6D503492046A9639A
:10590000F6E7000014000020C500200030B5082193
:10591000044685B04FF4D5704A0100234D028DE84E
:105920002F006946204600F0CDFA204600F07CFAB0
:1059300005B030BD30B585B0044612204FF48072FA
:105940000DF1080CCDE90010002369461501204631
:105950008CE82C0000F0B6FA122141F28832204681
:1059600000F03CF905B030BD30B585B004461120DB
:105970004FF480720DF1080CCDE900100023694648
:10598000150120468CE82C0000F09CFA112141F210
:105990008832204600F022F905B030BD30B585B020
:1059A000044607204FF480720DF1080CCDE9001079
:1059B00000236946150120468CE82C0000F082FA8D
:1059C000072141F28832204600F008F905B030BDC9
:1059D00010B585B00446002102204FF44072C30286
:1059E0000493CDE90010CDE902216946204600F07C
:1059F00069FA204600F084F905B010BD30B585B0D5
:105A0000044609200DF1080C0023CDE900104FF4E5
:105A1000407269464FF4805520468CE82C0000F017
:105A200051FA204600F06CF905B030BD10B585B0D4
:105A30000446002133204FF48072CDE90221CDE9E4
:105A40000010130169462046049300F03BFA33210D
:105A500041F28832204600F0C1F805B010BD30B5E3
:105A600085B004460D204FF480720DF1080CCDE98D
:105A7000001000236946150120468CE82C0000F038
:105A800021FA0D2141F28832204600F0A7F805B036
:105A900030BD30B585B00C460021054603204FF4DB
:105AA0008072CDE90221CDE9001013016946284634
:105AB000049300F007FA03212246284600F06EF90D
:105AC00005B030BD10B585B0044600210D204FF45F
:105AD0008072CDE90221CDE900101301694620460C
