:020000040800F2
:10000000D05B0020AD02000867400008193E0008E0
:1000100065400008B90400082D5F000800000000DA
:10002000000000000000000000000000275700084A
:10003000E506000800000000694000082957000894
:10004000C7020008C7020008C7020008C70200086C
:10005000C7020008C7020008C7020008C70200085C
:10006000C7020008C7020008C7020008C70200084C
:10007000C7020008C7020008C7020008C70200083C
:10008000C7020008C7020008C7020008C70200082C
:10009000C7020008C7020008C7020008C70200081C
:1000A000C7020008C7020008C7020008C70200080C
:1000B000C7020008C7020008C7020008C7020008FC
:1000C000C7020008C7020008C7020008C7020008EC
:1000D000C7020008C7020008C7020008C7020008DC
:1000E000C7020008C702000800000000C70200089D
:1000F000C7020008C7020008C7020008C7020008BC
:10010000C7020008C7020008C7020008C7020008AB
:10011000C7020008C7020008C7020008C70200089B
:10012000C7020008C7020008C7020008C70200088B
:10013000C7020008C7020008C7020008C70200087B
:1001400000000000000000000000000000000000AF
:10015000C7020008C7020008C7020008C70200085B
:10016000C7020008C7020008C7020008C70200084B
:10017000C7020008C7020008C7020008C70200083B
:10018000C7020008C7020008C7020008C70200082B
:10019000C7020008C7020008C7020008C70200081B
:1001A000C7020008C7020008C7020008C70200080B
:1001B000C7020008C7020008C7020008C7020008FB
:1001C000C7020008C7020008C7020008C7020008EB
:1001D000C7020008C7020008C7020008C7020008DB
:1001E000C7020008C7020008C7020008C7020008CB
:1001F000C7020008C7020008C7020008C7020008BB
:10020000C7020008C7020008C7020008C7020008AA
:10021000C7020008C7020008C7020008C70200089A
:10022000C7020008C7020008C7020008000000005B
:10023000C7020008C702000800000000C70200084B
:10024000C7020008C7020008C7020008C70200086A
:10025000C7020008C7020008C7020008C70200085A
:10026000C7020008C7020008C7020008C70200084A
:10027000C7020008C7020008C7020008000000000B
:10028000C7020008C7020008C702000800000000FB
:1002900000000000C7020008DFF80CD000F096F85C
:1002A00000480047017D0008D05B002006488047D9
:1002B00006480047FEE7FEE7FEE7FEE7FEE7FEE74B
:1002C000FEE7FEE7FEE7FEE70D580008990200088A
:1002D0002DE9F05F0546002092469B46884606467B
:1002E000814640241BE0284641464746224600F00E
:1002F0005CF853465A46C01A914110D3114618462D
:10030000224600F043F82D1A67EB01084F462246BB
:100310000120002100F03AF817EB00094E41201EA1
:10032000A4F10104DFDC484631462A464346BDE8D5
:10033000F09FD2B201E000F8012B491EFBD27047BA
:100340000022F6E710B513460A4604461946FFF7A1
:10035000F0FF204610BD10B5002200E0521C835C67
:100360008C5CA34201D1002BF8D1D8B2E1B2401A83
:1003700010BD30B504460020034600E05B1C9342EC
:1003800003D2E05CCD5C401BF8D030BD202A04DBFA
:10039000203A00FA02F1002070479140C2F1200398
:1003A00020FA03F3194390407047202A04DB203AD7
:1003B00021FA02F00021704721FA02F3D040C2F185
:1003C000200291400843194670470000064C074D33
:1003D00006E0E06840F0010394E807009847103415
:1003E000AC42F6D3FFF75CFF34910008549100084B
:1003F00010B501240348210300F09AFC00B1002449
:10040000204610BD000402580146014802F0FEBF1C
:10041000D8000020044810B503F00AF8042801D0E1
:10042000012010BD002010BDD800002010B500F044
:1004300015F8012801D0022010BD074803F074F818
:10044000040006D104484FF4804102F03DFE00B1A3
:100450000124204610BD0000D800002008B501206E
:100460008DF80000FFF7C4FF10B900208DF80000E0
:100470009DF8000008BD000038B500240093134625
:100480000A460146034803F077F900B101242046EB
:1004900038BD0000D800002038B500240093134672
:1004A0000A460146034803F049FA00B101242046F8
:1004B00038BD0000D8000020FEE7000070B504F051
:1004C00025FA0446401E022803D804F0BDFE03F0BE
:1004D000C9FE012C0DD0234D022C1BD0032C25D09E
:1004E0004FF4FA7420A005F023FD204606F028FA08
:1004F000F8E727A005F01CFD012007F08FFE012082
:1005000008F080FA03F0E0FE022008F0EFF94FF067
:10051000104023E025A005F00BFD022007F07EFE31
:10052000022008F06FFA03F0CFFE13E026A005F0DA
:10053000FFFC012007F072FE022007F06FFE012091
:1005400008F060FA022008F05DFA03F0BDFE012019
:1005500008F0CCF9022008F0C9F92846BDE870403F
:1005600007F074BB0000409020415050206E6F7423
:1005700020666F756E642020706C65617365206104
:100580006464206669726D776172650D0A0000000F
:100590002055706461746520415050312066726F3F
:1005A0006D20736420636172640D0A0020557064CD
:1005B00061746520415050322066726F6D20736403
:1005C00020636172640D0A002055706461746520B7
:1005D0004150503120616E6420415050322066728B
:1005E0006F6D205344206361726420746F205153F7
:1005F00050490D0A000000002DE9F041BFF34F8F74
:10060000BFF36F8F2F48002103682F4A23F4003374
:1006100003601160BFF34F8FBFF36F8F294A7032B1
:100620001160BFF34F8F026822F480320260BFF383
:100630004F8F244843F6FF746C300068224D2435F8
:10064000C0F34E32C0F3C90304EA4216184600BF95
:1006500046EA80772F60401EFAD2521EF4D2BFF3D2
:100660004F8FBFF36F8F4FF0E020016141618161D7
:1006700042170020810001F1E021401C0828C1F848
:100680008021C1F88022F5DB104802F0F1FF10480C
:1006900002F0A6FC4FF400440E48214600F07AF91F
:1006A0000D48214600F076F90C48E11000F072F98F
:1006B0000B4803F0E5FA01F0CFFFBDE8F04106F08A
:1006C0009FBB000014ED00E050EF00E0D8000020D8
:1006D0005800002000080258002002580004025868
:1006E00054010020704772B6FEE70022AFF300808D
:1006F0000E4B70B505465C7A0120002C14D15E7A51
:1007000003F108009C555E7A03EB860675605D7AFE
:100710002A54587A421C5A723A232F2230300870D9
:100720004B7020468A70CC7070BD0000C04B00201A
:10073000F0B5D1E90843CD690A68C2B10268254322
:1007400022F4F84213431D430560D1E90125D1E9A4
:1007500003364C692A434568334389691A43EB0BD6
:100760002243DB030A431A4342600020F0BDD1E973
:10077000012ED1E9036CD1E9057142EA0E0246EA85
:100780000C0632433A430A4301682A4322431A4380
:100790006FF30E010A430260E7E7426943F6FE7316
:1007A0009A4342EA410141610020704770B591E8E7
:1007B0001C00C9686FF01F0506691A4305EB441455
:1007C00044EA41210A4306EA45431A4302610020F4
:1007D00070BD00002DE9F04F8B8A6FF00F05264C9D
:1007E0004FF07F4BD1F80C9004EB03536FF0FF04F4
:1007F0004FEA042A1AB386684FEA09321F4FA2F55E
:1008000080521A433E4032438260D1E900278E680D
:10081000521E05EB07150F8A2A43C56804EB062410
:100820000E7E0AEB074322431A430BEB06610A4391
:1008300005F070431A43C2600020BDE8F08F91E8D4
:1008400004110F4E521E0F8A05EB08152A4304EBC4
:100850000C2C06EB09350E7E42EA0C022A43856811
:100860000AEB074422431A430BEB06610A4305F0E7
:1008700070431A438260DFE70000F0FFFF0F0FFFB5
:1008800000F0FFFF70B5044600F062FA0546601CF8
:1008900002D004480078044400F05AFA401BA042F9
:1008A000FAD370BD08000020F0B5B7B0142130A80D
:1008B000FFF746FD2F480168002958D10124046044
:1008C000C0216846FFF73CFD002012942106CDE9C7
:1008D0000010684601F0BCF808B1FFF704FF264895
:1008E000016841F480510160006830A9022400F4DD
:1008F0008050359000274FF683700C2581E89100D9
:1009000003261E48CDE9336500F0FCF830A948F213
:10091000371081E891001A48CDE9336500F0F2F80C
:1009200030A94CF2037081E891001648CDE9336597
:1009300000F0E8F830A94FF63F0081E89100124836
:10094000CDE9336500F0DEF8CDE93054329730A9B7
:100950000E48CDE9336500F0D5F820203495CDE977
:1009600030040B4830A9CDE9324600F0CBF837B05F
:10097000F0BD000000000020D444025800100258CE
:1009800000180258000C02580014025800080258BF
:10099000001C02582DE9F04F4F4D00224FF0010A84
:1009A0004FF00F0B92E000BF0AFA02F919EA0103B7
:1009B0007ED022F0030606F1B0469407D6F808C4AC
:1009C000270FDFF818810BFA07FE40450EEA0C04EA
:1009D00002D14FF0000C40E0DFF804C1604502D1C5
:1009E0004FF0010C39E0DFF8FCC0604502D14FF058
:1009F000020C32E0DFF8F0C0604502D14FF0030C8A
:100A00002BE0DFF8E8C0604502D14FF0040C24E091
:100A1000DFF8DCC0604502D14FF0050C1DE0DFF8C7
:100A2000D4C0604502D14FF0060C16E0DFF8C8C014
:100A3000604502D14FF0070C0FE0DFF8C0C0604501
:100A400002D14FF0080C08E0DFF8B4C0604502D1D5
:100A50004FF0090C01E04FF00A0C0CFA07FCA4451A
:100A600013D12C689C432C606F684FF0B0449F43B7
:100A70006F6067689F43676027689F432760D6F869
:100A8000084424EA0E04C6F8084407680323D4087F
:100A90004FEA42084FEA427C03FA08F34FEADC6C63
:100AA0001F4307600BFA0CF600EB8404276A00E092
:100AB0000BE0B7432762C4689C43C460446824EADF
:100AC0000904446084689C438460521C31FA02F338
:100AD0007FF46AAFBDE8F08F800000580000025834
:100AE0000004025800080258000C02580010025876
:100AF0000014025800180258001C02580020025826
:100B0000002402582DE9F84F03247D4D00234FF0B7
:100B100001094FF0B04B4FF00F0AE9E009FA03F773
:100B20003A4076D00E7906F00306012E01D0022E4F
:100B300018D1D0F808C04FEA430ECE6804FA0EF878
:100B40002CEA080C06FA0EF646EA0C068660D0F887
:100B500004C00E792CEA070CC6F300169E4046EA44
:100B60000C0646600E79F643B6070BD0C6684FEA0E
:100B700043088F6804FA08FC26EA0C0607FA08F70F
:100B80003743C7600E7906F00306022E12D1DE0845
:100B90000F694FEA437C00EB8606B646366A4FEA99
:100BA000DC6C0AFA0CF807FA0CF726EA0806374359
:100BB000CEF820700F7906684FEA430807F0030764
:100BC00004FA08FC07FA08F726EA0C063743076020
:100BD0004E6816F4403F1CD04A4E376847F0020773
:100BE000376036689F0706F00206009623F003067A
:100BF00006F1B046B6463F0FD6F80864DFF8088124
:100C00000AFA07FC404526EA0C0603D14FF0000C17
:100C100041E06CE0DFF8F4C0604502D14FF0010C18
:100C200039E0DFF8ECC0604502D14FF0020C32E051
:100C3000DFF8E0C0604502D14FF0030C2BE0DFF895
:100C4000D8C0604502D14FF0040C24E0DFF8CCC0DE
:100C5000604502D14FF0050C1DE0DFF8C4C06045CF
:100C600002D14FF0060C16E0DFF8B8C0604502D1A3
:100C70004FF0070C0FE0DFF8B0C0604502D14FF035
:100C8000080C08E0DFF8A4C0604502D14FF0090C61
:100C900001E04FF00A0C0CFA07FC4CEA060CCEF807
:100CA00008C44F68DBF80060FF0226EA020600D5A0
:100CB00016435F46CBF80060D1F804C0DBF804604F
:100CC0005FEA8C2C26EA020600D516437E606E6829
:100CD0004F6826EA0206BF0300D516436E602E68F1
:100CE0004F6826EA0206FF0300D516432E605B1C00
:100CF0000A6832FA03F67FF411AFBDE8F88F0000FE
:100D000080000058F44402580000025800040258C1
:100D100000080258000C0258001002580014025833
:100D200000180258001C02580020025800240258E3
:100D30000069084000D0012070470AB18161704706
:100D40000904FBE701480068000C70470010005CD4
:100D50000148806870470000080000200248816850
:100D6000027811448160704708000020032010B50C
:100D700000F078F801F0AEFD0F4A104914681368CE
:100D8000C4F3032203F00F038A5CC95C02F01F0264
:100D900001F01F01D0400A4A20FA01F1116009490F
:100DA00008600F2000F010F808B1012010BD00F01D
:100DB0002BF8002010BD0000184402580C8C0008CD
:100DC000180000201400002070B50D4D044628784E
:100DD000A0B14FF47A71B1FBF0F00A490968B1FB98
:100DE000F0F002F099FE48B9102C07D200222146FB
:100DF000501E00F017F800206C6070BD012070BD1F
:100E00000800002014000020054808B5016841F0E2
:100E100002010160006800F00200009008BD0000BF
:100E2000F44402580E4BF0B41B680D46C3F3022382
:100E3000C3F10706042E00D90426191D072901D283
:100E4000002300E0DB1E012404FA06F19C40491E49
:100E50002940641E994014402143F0BC05F078B845
:100E60000CED00E0064900F0070210B54FF6FF0454
:100E70000868044B204040EA02201843086010BD77
:100E80000CED00E00000FA05134970B50A68D24382
:100E9000520705D5096801F00701814213D118E016
:100EA0000A6822F0070202430A60FFF751FF0A4D69
:100EB0004FF47A760446083D07E000BFFFF748FF8D
:100EC000001BB04201D9012070BD2868C0438004D6
:100ED000F4D4002070BD00000C4802582DE9F84FF2
:100EE0001E4615468A460446FFF732FF814694F8AF
:100EF000400001280ED001274FF0000884F8407010
:100F000094F84100012807D05FF0020084F8408087
:100F1000BDE8F88F0220FBE74221C4F8448084F842
:100F20004110002220214B462046009603F0AAFBE8
:100F30000028EBD1216828688862216868684862C7
:100F40002168A868C86220682969026822F4400202
:100F500042F4800211430160E9684FF000622046CC
:100F6000CAF82810514603F080F801224B460821A8
:100F70002046009603F086FB0028C7D1226808218E
:100F8000D16084F84170C1E72DE9F84F17468B46D0
:100F90000446FFF7DDFE824694F8400001280ED09B
:100FA00001264FF0000884F8406094F841000128C1
:100FB00007D0022584F840802846BDE8F88F02203B
:100FC000FBE74FF00209C4F8448084F84190002206
:100FD000202153462046009703F054FB0500E9D139
:100FE00000225946204603F040F8DBF8240058B9A7
:100FF0000122534602212046009703F043FB0500DF
:10100000D8D12168C1F80C9084F84160D2E7000083
:10101000F8B50446FFF79CFE05461CB194F8410064
:1010200010B107E00120F8BD204600F08DF841F234
:101030008830A06420686FF0FF02A168036802EBAB
:10104000012223F4F85111430160A06C00222021F9
:101050002B460090204603F015FB0028E3D12268C0
:10106000D4E907352679E168176845EA0665DFF8AF
:1010700044C01943104B29430025012607EA0C07F9
:10108000394311602268D4E90517B4F810C0D2F8CA
:1010900004E039430EEA030E4EEA0C431943516053
:1010A00021680A6842F001020A60656484F84160C0
:1010B000F8BD00002FFFFF00FEF8E0FF2DE9F84328
:1010C000164688460446FFF743FE034694F8400060
:1010D00001280ED0012084F84000002794F8410038
:1010E000012808D05FF0020584F840702846BDE86A
:1010F000F8830220FBE7A06C8221676484F841102A
:10110000002220210090204603F0BCFA0500EBD11C
:1011100020687268016821F008011143016070685D
:1011200008280AD122681021306810632068C16045
:101130002068016841F4801101604FF0406241462F
:10114000204602F092FFCFE72DE9F041B6B0044609
:10115000142130A8FFF7F4F8C0216846FFF7F0F833
:101160002A49206888424DD1002013904FF0007129
:101170000446CDE90010684600F06AFC08B1FFF7AC
:10118000B2FA2348016841F480410160006800F42C
:10119000804035901E480C30016841F040010160EC
:1011A000016801F040013591016841F020010160C2
:1011B000006832AA022500F02000359003260A2795
:1011C000012182E8C2004020CDE93005114830A954
:1011D000FFF798FC09213294DFF83C804FF49860C7
:1011E000CDE93361CDE9300530A94046FFF78AFCEF
:1011F000300232AACDE9300530A9404682E8D0005D
:10120000FFF780FC36B0BDE8F081000000500052CE
:10121000D444025800180258001402582DE9F84F1F
:1012200015460E460446FFF793FD82462068816905
:1012300094F8403000F12009012B0DD001274FF028
:10124000000884F8407094F84120012A06D002205A
:1012500084F84080BDE8F88F0220FBE7C4F84480A2
:10126000A6B3222284F841200269521CA2630269BB
:10127000521C62632663426922F0406242F080623F
:101280004261206881610EE00621204603F0FAF9F0
:10129000C8B999F80000216B0870206B401C2063CE
:1012A000A06B401EA063A06B53464FF00102009557
:1012B0000028E9D14FF00201204603F0E3F910B90C
:1012C00022680221D16084F84170C1E7FFE7616CB8
:1012D000012041F008016164BAE700002DE9F84FF0
:1012E00015460E460446FFF733FD94F8401082463B
:1012F0002068012900F120090ED001274FF00008D5
:1013000084F8407094F84110012907D05FF0020082
:1013100084F84080BDE8F88F0220FBE7C4F84480E1
:1013200086B3122184F841100169491CE162016908
:10133000491CA1626662416921F0406141610EE091
:101340000421204603F09EF9C8B9606A017889F843
:101350000010606A401C6062E06A401EE062E06A61
:1013600053464FF0010200950028E9D14FF00201E9
:10137000204603F087F910B922680221D16084F871
:101380004170C5E7FFE7616C012041F0080161642D
:10139000BEE7000010B501F057FA05490968054A93
:1013A000C1F30211515C01F01F01C84010BD0000E3
:1013B000204402580C8C00084A4930B5494C0B1D9A
:1013C0000A680C3409681D68246802F0030305F0FC
:1013D0000102C1F30511C4F3CC04002914FB02F28D
:1013E00000EE102AF8EE400A76D0414A9FED3E1AF0
:1013F000DFED3E1AB7EE000A23B1012B5AD0022BC3
:1014000018D15CE0374C283C23689B0612D5394B39
:10141000246801EE901A1168C4F3C104F8EE612A41
:10142000E34001EE903AC1F30801F8EE611A81EE53
:10143000A22A07E002EE101A1168F8EE422A81EEA5
:10144000A22A45E001EE901A1168F8EE611A40EE0A
:10145000811A71EE800A62EE200AC1F3462101EE84
:10146000101AB8EE411A31EE001AC0EE811ABCEE25
:10147000E11A80ED001A1168C1F3064101EE101A5D
:10148000B8EE411A31EE001AC0EE811ABCEEE11A34
:1014900080ED011A1168C1F3066101EE101AB8EE71
:1014A000411A31EE000A80EE801ABCEEC10A80EDCE
:1014B000020A30BD01EE901ADFED0F2A03E001EEC3
:1014C000901ADFED0E2A1168F8EE611A82EEA12A59
:1014D000C1F30801B6E7FFE70021016041608160C8
:1014E00030BD000028440258000000390024744C2C
:1014F000304402580090D0030024744A20BCBE4BF4
:10150000494930B5484C0B1D0A68143409681D68F8
:10151000246802F00303C5F30012C1F30531C4F3DC
:10152000CC04002914FB02F200EE102AF8EE400A67
:1015300075D03F4A9FED3D1AB7EE000A6BB1DFED63
:101540003D1A012B01D0022B64D002EE101A116853
:10155000F8EE422A81EEA22A21E0334C283C23688F
:101560009B0612D5344B246801EE901A1168C4F31F
:10157000C104F8EE612AE34001EE903AC1F308019C
:10158000F8EE611A81EEA22A0BE001EE901ADFED6F
:101590002B2A00BFF8EE611A116882EEA12AC1F36E
:1015A000080101EE901A1168F8EE611A40EE811AF6
:1015B00071EE800A62EE200AC1F3462101EE101A94
:1015C000B8EE411A31EE001AC0EE811ABCEEE11AF3
:1015D00080ED001A1168C1F3064101EE101AB8EE51
:1015E000411A31EE001AC0EE811ABCEEE11A80ED0C
:1015F000011A1168C1F3066101EE101AB8EE411A22
:1016000031EE000A80EE801ABCEEC10A80ED020ABB
:1016100030BD04E001EE901ADFED092ABAE700219F
:10162000016041608160F3E72844025800000039FE
:10163000384402580024744A0090D0030024744CAB
:1016400020BCBE4B494930B5484C0B1D0A681C34C0
:1016500009681D68246802F00303C5F30022C1F382
:101660000551C4F3CC04002914FB02F200EE102A49
:10167000F8EE400A75D03F4A9FED3D1AB7EE000ADA
:101680006BB1DFED3D1A012B01D0022B64D002EECD
:10169000101A1168F8EE422A81EEA22A21E0334C9A
:1016A000283C23689B0612D5344B246801EE901A1F
:1016B0001168C4F3C104F8EE612AE34001EE903AE8
:1016C000C1F30801F8EE611A81EEA22A0BE001EEE7
:1016D000901ADFED2B2A00BFF8EE611A116882EE36
:1016E000A12AC1F3080101EE901A1168F8EE611AFF
:1016F00040EE811A71EE800A62EE200AC1F34621A3
:1017000001EE101AB8EE411A31EE001AC0EE811A3D
:10171000BCEEE11A80ED001A1168C1F3064101EE3A
:10172000101AB8EE411A31EE001AC0EE811ABCEE62
:10173000E11A80ED011A1168C1F3066101EE101A79
:10174000B8EE411A31EE000A80EE801ABCEEC10AF2
:1017500080ED020A30BD04E001EE901ADFED092AA7
:10176000BAE70021016041608160F3E72844025834
:1017700000000039404402580024744A0090D0030D
:101780000024744C20BCBE4B2DE9F04FAC4A0546FA
:10179000DFF8A8A280F48070DFF8AC9289B0131152
:1017A000AA4C0843A748AAF104064FF0805C4FF00A
:1017B00000582CD085F400770F4357D0DFF87CB267
:1017C00085F480670F430BF1080B61D085F4006747
:1017D0000F4374D085F480570F436ED085F40057C3
:1017E0000F434FF480394FF4003E67D085F4002753
:1017F0000F4371D085F480370F436ED085F4804657
:101800000E436BD085F400420A4368D02AE0DAF830
:10181000001001F00701052924D2DFE801F075BCB2
:101820007D25B10006A8FFF7C7FD079809B0BDE800
:10183000F08F6846FFF764FE0098F7E703A8FFF70C
:1018400001FF0398F2E72068C0F3C10022FA00F01C
:10185000ECE72268D20571D561456FD11846E5E7FE
:101860004145E3D00020E1E74846DFE7DAF8001021
:1018700001F4E07180294FD004DC002944D04029D4
:10188000F0D188E0C029EFD0B1F5807FEAD177E0D0
:10189000DBF8001001F46001B1F5800F3CD004DCEE
:1018A00091B3B1F5001FDDD175E0B1F5C00FDBD00C
:1018B000B1F5000FD6D163E001E018E030E0DBF8CD
:1018C000001001F0E061B1F1007F25D008DCD9B152
:1018D000B1F1807FC6D15EE049E06CE079E09CE048
:1018E000B1F1407FC0D0B1F1806FBBD148E0DAF8F0
:1018F000001001F4E041B1F5005F0DD005DC19B135
:10190000B1F5805FAED146E094E0B1F5405FABD079
:10191000B1F5804FA6D133E020688000A2D58DE7D5
:10192000DAF8001001F4E021B1F5403F6CD006DC9C
:1019300061B149457AD0714594D157E037E0B1F5AE
:10194000802F65D0B1F5A02F8CD10CE000F09EFF68
:101950006CE76846FFF7D4FD019867E703A8FFF737
:1019600071FE049862E721688903F1D47AE7DBF815
:10197000001011F440310ED0494510D07145F5D119
:101980003168256801F040516D077FF562AF00298D
:101990007FF45FAF57E720680001E7D549E720688B
:1019A0008000E3D503A8FFF74DFE05983EE72268C7
:1019B0009203DBD554E7306810F480303AD04845C4
:1019C000D4D120680001D1D56846FFF799FD02986F
:1019D0002CE7DBF8001001F0E041B1F1405F13D0DB
:1019E00008DC71B1614521D04145BFD1206880003C
:1019F000B4D437E7B1F1804F0AD0B1F1A04FB2D0E3
:101A000030E7FFF7C7FC11E720684007AED51AE7BB
:101A10002068C005AAD521E708E0DAF8001011F027
:101A20004051A0D0614505D041459FD120680001BB
:101A30008FD417E72068800198D5F3E65044025808
:101A40000090D00340787D010080BB000044025824
:101A50002DE9FE4F0546DFF8E48350F8081B00240B
:101A6000F64FC943019005F12800264608F12408E5
:101A7000009008011DD4A86E50B1B0F5801F0CD0A5
:101A8000B0F5001F0ED0B0F5401F1ED001240FE0AE
:101A9000386840F40030386017E00198022102F005
:101AA00015FE03E00098022102F0A0FE04000CD015
:101AB00026462888C043C00523D4A86D05281ED219
:101AC000DFE800F00C11161B1B00AA6ED8F80010FE
:101AD00021F440111143C8F80010EAE7386840F4D7
:101AE0000030386009E00198002102F0EFFD03E0CA
:101AF0000098002102F07AFE044674B100E001244F
:101B000026462888C043800528D4E86D80281ED04A
:101B10000CDC90B140280ED114E0AA6DD8F800106A
:101B200021F007011143C8F80010EAE7C02813D0DC
:101B3000B0F5807F10D001240FE0386840F4003009
:101B4000386009E00198002102F0C0FD03E0009830
:101B5000002102F04BFE04469CB126462888DFF89F
:101B6000DC92C04309F12C0940052CD4D5F8A8001B
:101B7000B0F5800F20D00DDCA0B1B0F5001F0FD163
:101B800015E0EA6DD8F8001021F4E0711143C8F8AF
:101B90000010E3E7B0F5C00F13D0B0F5000F10D080
:101BA00001240FE0386840F40030386009E0019803
:101BB000002102F08BFD03E00098002102F016FEE8
:101BC00004467CB126462888C04300052DD4D5F8AC
:101BD000AC00B0F1007F21D00EDCA8B1B0F1807F65
:101BE00010D116E0D5F8A820D9F8001021F4600132
:101BF0001143C9F80010E6E7B0F1407F13D0B0F10F
:101C0000806F10D001240FE0386840F40030386055
:101C100009E00198002102F059FD03E0009800213D
:101C200002F0E4FD044674B126462868C0438001F2
:101C30001FD4E86CD8B110280FD0202812D030283B
:101C400015D0012414E0D5F8AC20D9F8001021F00B
:101C5000E0611143C9F80010E7E7386840F400304C
:101C6000386004E00198022102F030FD044674B1AE
:101C700026462888C043C0042BD4286EB0F5005FE8
:101C800020D00DDCA0B1B0F5805F0FD115E06B481E
:101C9000EA6C2030016821F0300111430160E8E76F
:101CA000B0F5405F13D0B0F5804F10D001240FE0A5
:101CB000386840F40030386009E00198002102F0F3
:101CC00005FD03E00098002102F090FD04468CB170
:101CD00026462888C043800429D4686EB0F5403F6A
:101CE00023D010DC08B3B0F5803F14D0B0F5003F2E
:101CF0000FD115E02A6ED8F8001021F4E04111430D
:101D0000C8F80010E5E7B0F5802F0ED0B0F5A02F91
:101D10000BD001240AE00198012102F0D7FC03E076
:101D20000098012102F062FD044694B126462888FD
:101D3000C04340042AD4D5F8B000B0F1405F23D0AE
:101D400010DC08B3B0F1805F14D0B0F1005F0FD1A8
:101D500015E06A6ED8F8001021F4E0211143C8F8AC
:101D60000010E4E7B0F1804F0ED0B0F1A04F0BD0DF
:101D700001240AE00198012102F0A8FC03E0009888
:101D8000012102F033FD044674B126462888C04381
:101D900000041FD4286FD8B1B0F1805F0ED0B0F12D
:101DA000005F10D0012414E0D5F8B020D9F800105D
:101DB00021F0E0411143C9F80010E7E7386840F42A
:101DC0000030386004E00198012102F07FFC0446F5
:101DD00074B126462868C043C0011ED4A86CD0B197
:101DE00001280ED0022811D0032814D0012413E0BA
:101DF0002A6FD8F8001021F040511143C8F80010A4
:101E0000E8E7386840F40030386004E001980221C7
:101E100002F05CFC0446ACB126462868DFF81CB032
:101E2000C043ABF11C0B400252D40548016841F499
:101E300080710160FEF78CFF824611E02C4402584D
:101E400000480258FA48AA6C016821F003011143C6
:101E50000160E2E7FEF77CFFA0EB0A00642835D8BA
:101E6000F4480068C005F5D58CBBDFF8C4A3B5F80D
:101E7000B4100AF1240ADAF8000001F4407100F409
:101E80004070884211D0DAF80010DAF8002021F40E
:101E9000407142F48032CAF80020DAF8002022F4BF
:101EA0008032CAF80020CAF80010D5F8B400B0F5A6
:101EB000807F1AD1FEF74CFF029012E0FEF748FF38
:101EC0000299411A41F2883081420AD903242646F8
:101ED0002878DFF85CA3C0430AF1080AC00721D0C4
:101EE0003CE0DAF800008007E8D5D5F8B410C1F37B
:101EF0000120032858460DD0016821F47C5101606F
:101F0000B5F8B420DAF80010C2F30B021143CAF896
:101F10000010DDE7C84A036802EA111223F47C517D
:101F20001143ECE7E86F182816D005DCA0B10828AB
:101F300008D0102804D10AE020280DD028280BD082
:101F400001240AE00198012102F0C0FB03E000989F
:101F5000012102F04BFC044664B126462878C043B8
:101F600080071ED4A86F062819D2DFE800F0160CEF
:101F700011161616EA6FDAF8001021F03801114335
:101F8000CAF80010EAE70198012102F09FFB03E084
:101F90000098012102F02AFC04467CB100E00124F3
:101FA00026462878C04340071FD4D5F89400062859
:101FB00019D2DFE800F0160C11161616AA6FDAF81F
:101FC000001021F007011143CAF80010E9E7019859
:101FD000012102F07BFB03E00098012102F006FCE6
:101FE0000446A4B100E0012426462878C0438006B8
:101FF0002BD4D5F89000B0F1405F24D011DC10B3A1
:10200000B0F1805F15D0B0F1005F10D116E0D5F8C7
:102010009420D9F8001021F007011143C9F80010ED
:10202000E3E7B0F1804F0ED0B0F1A04F0BD0012408
:102030000AE00198002102F049FB03E00098022128
:1020400002F0D4FB044694B126462878C0434006EB
:102050002BD4D5F89C00B0F5406F24D011DC10B320
:10206000B0F5806F15D0B0F5006F10D116E0D5F83F
:102070009020DAF8001021F0E0411143CAF8001076
:10208000E3E7B0F5805F0ED0B0F5A05F0BD0012480
:102090000AE00198002102F019FB03E000980221F8
:1020A00002F0A4FB044694B126462878C0430006FB
:1020B0002BD4D5F8A000B0F5C04F24D011DC10B35C
:1020C000B0F5005F15D0B0F5804F10D116E0D5F80F
:1020D0009C20D9F8001021F4E0511143C9F80010F8
:1020E000E3E7B0F5004F0ED0B0F5204F0BD0012440
:1020F0000AE00198002102F0E9FA03E000980221C9
:1021000002F074FB044654B126462878C043000709
:102110001ED4D5F88400B0F5805F0AD00FE0D5F862
:10212000A020D9F8001021F460411143C9F8001033
:10213000EBE70098022102F059FB00B10126D5F827
:102140008420DAF8001021F440511143CAF800103D
:102150002878C043C00613D4D5F89800B0F5807F26
:1021600005D10098022102F041FB00B10126D5F80B
:102170009820D9F8001021F440711143C9F80010DB
:102180002868C043000316D4D5F8A40038B1B0F5D0
:10219000803F09D0B0F5003F0BD001240AE0019840
:1021A000002102F093FA03E00098022102F01EFBE6
:1021B00004468CB126462868C043400322D4D5F893
:1021C0008800B0F5801F11D0B0F5001F13D0B0F516
:1021D000401F15D0012414E0D5F8A420D9F8001030
:1021E00021F440311143C9F80010E4E7386840F4A5
:1021F0000030386004E00098012102F0F7FA04464C
:102200005CB126462868C043C00323D4286DA8B11A
:10221000B0F5803F17D001241BE0D5F88820DAF80C
:10222000001021F440111143CAF80010EAE7000041
:102230004C44025800480258CFFFFF00386840F471
:102240000030386004E00198022102F03FFA0446B1
:10225000E4B126462868C043800005D400980221D6
:1022600002F0C4FA00B101262868C04380031BD4E1
:10227000D5F88000B0B1B0F5807F0FD0B0F5007F09
:1022800010D0B0F5407F0DD001240CE05A482A6DE3
:10229000016821F4803111430160DBE7386840F4C4
:1022A00000303860ECB326462868C043C00207D42B
:1022B0006A6FD8F8001021F000411143C8F80010EF
:1022C0002868C043C00008D4D5F8B820DBF8001057
:1022D00021F480411143CBF800102868C0438002EC
:1022E00007D4EA6ED8F8001021F080711143C8F8C5
:1022F00000102868C04340000CD4DBF8001021F423
:102300000041CBF80010DBF80010D5F8BC201143D9
:10231000CBF800102868C04308D437486A6D0168BC
:1023200000E018E021F04051114301602868C043EB
:10233000000208D4D5F88C20DAF8001021F440010E
:102340001143CAF8001028790024C04300F00100AE
:1023500020430AD00FE0D5F88020DAF8001021F4ED
:1023600040711143CAF800109EE70198002102F065
:10237000ADF900B106462879C04300F002002043C1
:1023800005D10198012102F0A1F900B10646287992
:10239000C04300F00400204305D10198022102F05F
:1023A00095F900B106462879C04300F008002043A3
:1023B00005D10098002102F019FA00B106462879EB
:1023C000C04300F01000204305D10098012102F025
:1023D0000DFA00B106462879C04300F020000443FE
:1023E00004D10098022102F001FA00B916B10120CF
:1023F000BDE8FE8F0020FBE74C4402582DE9F05F5A
:1024000004000F467ED0DFF83882D8F8000000F0D4
:102410000F00B8420CD2D8F8001021F00F01394358
:10242000C8F80010D8F8000000F00F00B84269D1D9
:102430002078844D40070AD52069296801F0700191
:10244000884204D9296821F070010143296020786D
:102450007C4E361D00070AD56069316801F07001B5
:10246000884204D9316821F070010143316020783D
:10247000C0060AD5A069316801F4E061884204D938
:10248000316821F4E061014331602078DFF8B4B1B4
:1024900080060BF1080B0CD5E1695846DBF80020EB
:1024A00002F07002914204D9026822F070020A43DD
:1024B0000260207880070AD5E068296801F00F01E2
:1024C000884204D9296821F00F010143296020784E
:1024D000C0073ED05B49A2682868183920F47060B4
:1024E000104328606068022818D0032819D00968B2
:1024F000012819D0490700294ADADFF848A1AAF1D2
:10250000080A00E044E0DAF8002022F00702024363
:10251000CAF80020FEF71CFC814612E00968890316
:10252000E9E709688901E6E7C905E4E7FEF710FC79
:10253000A0EB090141F28830814202D90320BDE8B5
:10254000F09F6168DAF8000000F03800B0EBC10FCE
:10255000ECD1207880070AD5E068296801F00F01E6
:10256000884204D2296821F00F0101432960D8F87C
:102570000010404601F00F01B9420BD9016821F06B
:102580000F0139430160006800F00F00B84201D02C
:102590000120D4E7207840070AD52069296801F096
:1025A0007001884204D2296821F07001014329603A
:1025B000207800070AD56069316801F0700188420F
:1025C00004D2316821F07001014331602078C006E7
:1025D0000AD5A069316801F4E061884204D231680B
:1025E00021F4E06101433160207880060CD5E16977
:1025F0005846DBF8002002F07002914204D20268D3
:1026000022F070020A43026000F064F90E492A6861
:102610002B68C2F3032203F00F038A5CC95C02F04B
:102620001F0201F01F01D040084A20FA01F1116099
:102630000749086007480068BDE8F05FFEF7C4BBC3
:1026400000200052184402580C8C0008180000208A
:10265000140000200C0000202DE9F047704C206889
:1026600000F00F00072809D2206820F00F00C01DDD
:102670002060206800F00F0007287CD1FEF768FB7F
:10268000DFF8A0810546D8F8000040F00100C8F846
:10269000000004E0FEF75CFB401B022875D8D8F868
:1026A00000004007F6D55F4800275E4E001D10363B
:1026B00003685D4943F08043036037605B48016015
:1026C0005B4801605B480068FEF77EFB002852D142
:1026D000FEF73EFB054641F2883904E0FEF738FB81
:1026E000411B494551D8306810F0380FF6D1FEF73C
:1026F0002FFB51490546D8F800000840C8F80000F3
:1027000005E000BFFEF724FB401B64283DD8D8F845
:1027100000008003F6D4FEF71BFB0546D8F8000046
:1027200020F08070C8F8000005E000BFFEF710FB45
:10273000401B022829D8D8F800008001F6D4FEF703
:1027400007FB0546D8F8000020F08060C8F80000BC
:1027500005E000BFFEF7FCFA401B022815D8D8F8A8
:1027600000000001F6D4FEF7F3FA0546D8F80000A1
:1027700020F0805001E04EE007E0C8F8000007E0DC
:10278000FEF7E6FA401B022802D90320BDE8F087D5
:10279000D8F800008000F3D4224D38462749183578
:1027A000274B2E1D321D2F601E4F264D28373060BF
:1027B0003E1D1060321D3B60131D35601D1D1160F4
:1027C0002A1D161D1860331D2960106031601860C5
:1027D000D8F800304FF0FF351249124A23F4802315
:1027E000104ED0316032C8F8003068361060356065
:1027F000086840F480300860206800F00F00072867
:102800000BD9206820F00F00C01D2060206800F068
:102810000F00072801D00120B8E70020B6E700002C
:1028200000200052004402580090D0031400002001
:10283000180000200C00002045EDF6FF8002010189
:10284000000202020000FF0130B500F043F80B4A1D
:102850000B490C4B15681468C5F3032204F00F04F0
:102860008A5C095D02F01F0201F01F01D040064A98
:1028700020FA01F119601060084630BD1844025872
:102880000C8C0008180000201400002000B5FFF791
:10289000DBFF05490968054AC1F30211515C01F0EB
:1028A0001F01C84000BD00001C4402580C8C0008E9
:1028B00000B5FFF7C9FF05490968054AC1F30221C0
:1028C000515C01F01F01C84000BD00001C440258CB
:1028D0000C8C0008454970B545480968434B103BCE
:1028E00011F0380208D00111082A03D0102A0BD0A9
:1028F000182A0BD0084670BD19688906FBD51968DF
:10290000C1F3C101C84070BD3A4870BD3749374D69
:1029100018310C1D24350A68096826682D6802F0F4
:10292000030406F00102C1F30511C5F3CC0515FB44
:1029300002F200EE102AB8EE400AE9B32F4ADFEDAA
:102940002E0AB7EE001A6CB1DFED2D1A012C01D062
:10295000022C43D002EE101A1068F8EE422A81EEE3
:10296000A22A1EE01C68A40611D51B6801EE901A6D
:102970001168C3F3C103F8EE612AD84001EE900A52
:10298000C1F30800F8EE611A81EEA22A0BE001EE15
:10299000901ADFED1C2A00BFF8EE611A106882EE73
:1029A000A12AC0F3080001EE900AF8EE611A40EE89
:1029B000201A31EE810A00E015E022EE000A1068CC
:1029C000C0F34620401C00EE900AF8EE600A80EE4C
:1029D000201ABCEEC10A10EE100A70BD01EE901A6A
:1029E000DFED092AD8E7002070BD0000104402582E
:1029F0000090D00340787D01000000393044025837
:102A00000024744A0024744C20BCBE4B2DE9F05FB6
:102A100004007DD0FF4F2078FE4D1837DFF8F49387
:102A2000103DC00748D0D9F80000396800F03800E0
:102A3000102815D0182803D101F0030002280FD068
:102A40006068B0F5803F12D010B1B0F5A02F18D05B
:102A5000286820F480302860286820F4802009E06D
:102A60002868800328D560680028D2D024E0286830
:102A700040F480302860606888B1FEF769F9064646
:102A800009E0286840F480202860F0E7FEF760F94C
:102A9000801B64286FD828688003F7D50CE0FEF708
:102AA00057F9064605E000BFFEF752F9801B64287F
:102AB000F0D828688003F7D4207841F20308D54E77
:102AC0000C3E800769D5D9F80000396810F038004D
:102AD0000ED0182801D188070AD0E06890B3296881
:102AE00021F0190101432960FEF732F9824631E0F5
:102AF0002868400702D5E06800288AD0E168286885
:102B000020F0190008432860FEF722F9824607E00A
:102B1000DFE000BFFEF71CF9A0EB0A000228B9D8DD
:102B200028684007F6D500BFFEF70CF940451BD8D2
:102B30002069402812D0316821F47C3141EA00300C
:102B400030602AE018E000BFFEF702F9A0EB0A00AF
:102B500002289FD828684007F6D5E5E7306820F4BA
:102B60007C3040F40030EBE7207C316821F0FE41FE
:102B700041EA0060E4E70DE1286820F001002860E8
:102B8000FEF7E6F8824605E0FEF7E2F8A0EB0A0061
:102B900002288DD828684007F6D42078C0065DD575
:102BA000D9F80000DFF86CB2396800F03800ABF1FA
:102BB000040B082810D0182803D101F003000128C5
:102BC0000AD0E0690028286838D040F080002860EA
:102BD000FEF7BEF8824623E02868C00523D5E069E9
:102BE000802876D11FE0206A202821D0316821F08A
:102BF000F84141EA8060306030E000BF94F8201076
:102C0000DBF8002022F07C5242EA0161CBF8001090
:102C100024E000BFFEF79CF8A0EB0A00022898D839
:102C20002868C005F6D5FEF78DF84045E6D8DAE706
:102C3000306820F0F84040F08040DCE720F0800071
:102C40002860FEF785F8064605E000BFFEF780F82D
:102C5000801B02289DD82868C005F7D4207800077B
:102C600029D56C486169643000298046016811D01B
:102C700041F001010160FEF76BF8064605E000BF78
:102C8000FEF766F8801B0228C9D8D8F80000800734
:102C9000F6D510E021F001010160FEF759F8064673
:102CA00005E000BFFEF754F8801B022872D8D8F860
:102CB00000008007F6D42078800623D5A06900287C
:102CC000286810D040F480502860FEF741F806468E
:102CD00005E036E1FEF73CF8801B02285AD8286848
:102CE0008004F7D50EE020F480502860FEF730F81D
:102CF000064604E0FEF72CF8801B02284AD8286814
:102D00008004F7D4207840074FD5DFF80C81D8F83D
:102D1000001041F48071C8F80010FEF719F806465B
:102D200005E000BFFEF714F8801B642832D8D8F8FD
:102D30000000C005F6D5374EA068603601280AD0DD
:102D400008B1052813D0306820F0010030603068E9
:102D500020F0040002E0306840F001003060A0681C
:102D600041F2883A90B1FDF7F3FF80460AE03068FF
:102D700040F004003060EEE7FDF7EAFFA0EB080149
:102D8000514507D830688007F6D50EE0FDF7E0FF23
:102D9000804607E084E000BFFDF7DAFFA0EB080102
:102DA00051457DD830688007F6D4606AB0B3DFF84B
:102DB0006480D9F8001008F120084FF6F87B08F17C
:102DC0000409C1F3C2010329A8F1040A69D0022849
:102DD000286820F08070286003D0FDF7B9FF044612
:102DE00084E0FDF7B5FF064605E000BFFDF7B0FF44
:102DF000801B022877D828688001F7D4E26A40F265
:102E0000F331386854F8283F884340EA02101843E9
:102E1000386004E01044025800480258B5E0217BB5
:102E2000434622894FF4FE0C208A4FF0FE474902A8
:102E3000267D521E401EA1F50071C2F308088AB219
:102E4000761E0CEA004042EA08020243504607EAB6
:102E500006610A431A60DAF8002022F00102CAF87B
:102E60000020D9F80020266A22EA0B0242EAC602B4
:102E7000C9F80020DAF80010A26921F00C01114312
:102E8000CAF800100168E26921F0020111430160F3
:102E9000016841F480310160016841F4003101E0D2
:102EA00021E027E00160016841F4802101600168B0
:102EB00041F001010160286840F080702860FDF752
:102EC00047FF044605E000BFFDF742FF001B022854
:102ED00009D828688001F7D557E000BFFDF738FF13
:102EE000001B022802D90320BDE8F09F286880015A
:102EF000F4D44AE039680128D8F8000021D0A26A49
:102F000001F0030393421CD1E26AC1F305118A4226
:102F100017D1216BC0F30802491E8A4211D1616B9F
:102F2000C0F34622491E91420BD1A16BC0F3064269
:102F3000491E914205D1E16BC0F30660491E8142F2
:102F400001D00120D0E7A16C4E46D9F80000C0F3B3
:102F5000CC00814219D0DAF80000554620F001007B
:102F6000CAF80000FDF7F4FE4FEA0007FDF7F0FE97
:102F7000B842FBD0A26C306820EA0B0040EAC200E5
:102F80003060286840F0010028600020ACE70000B5
:102F900070B504000D4603D094F82C0010B107E082
:102FA000012070BD002084F82D00204600F054F868
:102FB000022084F82C002068211DFDF7B9FBD4E91C
:102FC00000022946FDF706FC04480121026842F090
:102FD0000042026084F82C10002070BD00400052B6
:102FE000154810B54168002924D1144901224260D6
:102FF000086820F48050086011484FF68371FDF78F
:10300000C9FC104848F23711FDF7C4FC0E484CF2D9
:103010000371FDF7BFFC0D484FF63F01FDF7BAFC09
:103020000B480C21FDF7B6FCBDE8104009482021F3
:10303000FDF7B0BC10BD000000000020D4440258D1
:103040000010025800180258000C025800140258D0
:1030500000080258001C0258FDF726BC10B50446B3
:1030600090F82C00022804D094F82C00012801D0FC
:10307000012010BD022084F82C002068FDF78DFB94
:10308000012084F82C00002010BD000070B504461B
:1030900090F82C000D46022804D0012803D0052802
:1030A00001D0012070BD022084F82C002068FDF7BB
:1030B0007DFB2868022805D05FF0010084F82C0011
:1030C000002070BD0520F9E72DE9FC5F0446806B08
:1030D0000E46032184F83010002703285CD0B6F593
:1030E000004F59D0B6F5804F4FF000054FF40068FF
:1030F0004FF0806904D006B3606B40F000603FE0A1
:10310000009500210195206802F066F880011CD42A
:103110006946204602F0E8F870BB019840032DD5BF
:10312000B4F844102068090401F00AFD20BB2068AF
:1031300002211DE0606B284322E0009500210195EB
:10314000206802F049F8800101D54546F2E769465A
:10315000204602F0C9F878B90198C0030ED5B4F83A
:1031600044102068090401F0EBFC28B92068002114
:1031700001F030FD0028DDD00546DBE74D46D9E7FC
:103180006063606B4FF4007BDFF8B8A040B121684A
:103190000127C1F838A042E0606B40F08050EFE7B3
:1031A00000214FF48030FEF7EFFA010032D0264DB7
:1031B0003346D4E904C0B1FBF5F8D4E90192804567
:1031C00010D9A66D5E450DD0B6F5807F11D04FEABF
:1031D0006506E0B14FEA4008B1FBF8F8B04501D907
:1031E000B1FBF5F04946CDE900C0206801F0F8FFD9
:1031F00015E0164E30B14FEA4008B1FBF8F8A8458B
:1032000002D8EFE7A942EDD9B1FBF6F0EAE7B14207
:10321000E6D8E7E7606B012740F000606063206854
:10322000594601F0BEFC30B122680127C2F838A02F
:10323000616B01436163012084F830003846BDE8CA
:10324000FC9F0000FF0FE01F80F0FA0200E1F5058F
:10325000F0B5C26D920F0A70C26DC2F383624A70FC
:10326000C26DC2F301628A70C26D120CCA70B0F8EE
:103270005C20120A0A7190F85C204A71026E120DED
:10328000CA80026EC2F303420A72B0F86020C2F331
:10329000C0324A72B0F86020C2F380328A72B0F84D
:1032A0006020C2F34032CA72B0F860200026C2F338
:1032B00000320A734E730122836B4FF4007463B1C2
:1032C000012B3AD0036850499963416B41F080511A
:1032D000416380F830200120F0BDB0F86030456EC9
:1032E0009B051B0D43EA95730B61436EC3F3C263E9
:1032F0000B75436EC3F302634B75436EC3F34253C6
:103300008B75436EC3F38243CB75436EC3F3C233F5
:103310000B760D696D1C85640B7E03F007039B1C07
:103320009D4085640B7A446503F00F0302FA03F3B2
:103330005F0A7D43C0E913350EE090F86050436E9C
:10334000AD06AD0A45EA13430B610B695B1C9B029A
:103350008364C0E913434465B0F86430C3F3803339
:103360004B76B0F86430C3F3C6138B7690F86430B4
:1033700003F07F03CB76836EDB0F0B77836EC3F393
:1033800041734B77836EC3F382638B77836EC3F392
:103390008353CB77836EC3F3405381F8203081F899
:1033A0002160836EC3F3004381F82230B0F86830A7
:1033B000C3F3C03381F82330B0F86830C3F38033EF
:1033C00081F82430B0F86830C3F3403381F82530F9
:1033D000B0F86830C3F3003381F82630B0F86830B5
:1033E000C3F3812381F82730B0F86830C3F3012399
:1033F00081F8283090F86800C0F3460081F8290071
:1034000081F82A200020F0BDFF0FE01F826B0A60C8
:10341000C26B4A60026C8A60426CCA60826C0A614C
:10342000C26C4A61026D8A61406DC86100207047BC
:1034300070B5B0F84410002504460068090401F096
:10344000B6FC18B1616B0143616304E020680021A0
:1034500001F0C2FE0546C5F3432070BD2DE9F041E1
:10346000054690F8300090B00C460026032810D096
:103470006946284602F080F82A4F4FF0010860B1F3
:103480002A68012697636A6B02436A6385F8308075
:103490003AE0012010B0BDE8F08100994FF47F4080
:1034A000C1F3811121700099C1F34011617000993D
:1034B0000A4600EA112141EA12616180019909BAC4
:1034C0006160029921720299090A61720299C1F33D
:1034D0000351A172DDE9022100EA1240C9B208439A
:1034E000A0810398C0F38520A0730398C0F3012046
:1034F000E0730398C0F303102074039800F00F00EA
:1035000060740498000EA07428684FF4007101F0F4
:1035100048FB28B12A6801269763686385F83080E4
:103520003046B7E7FF0FE01FF0B5040085B020D0AC
:1035300094F83000002518B92046257600F0B6F83A
:10354000042084F83000204600F03CF888B9694631
:103550002046FFF783FF60B99DF81010A26B9DF81D
:103560001100012A08D0A5652046E168FFF7ACFDEF
:1035700058B1012005B0F0BD014302D04FF40070F6
:1035800001E04FF48070A065EEE7FDF7E1FB012755
:10359000064604E0FDF7DCFB801B401C0AD02046F9
:1035A000FFF746FF0428F5D16563E56284F83070C3
:1035B0000020DFE74FF00040606384F830700320A4
:1035C000D8E700002DE9FC414FF0000804464FF415
:1035D00080304146FEF7D8F805004FF0010723D0B0
:1035E0002048434642464146B5FBF0F6CDE9008609
:1035F000206801F0F5FD206801F002FE1EB17000A8
:10360000B5FBF0F52DB11848B0FBF5F0401CFDF707
:1036100039F9204601F056FF60B100BF84F83070E0
:10362000616B0143616319E04FF0006084F8307012
:10363000606313E0204601F0C9FE0028EED1206847
:103640004FF4007101F0ADFA002808D02268074954
:103650009163616B0143616384F830700120BDE8C0
:10366000FC81000000350C0010210100FF0FE01F5D
:1036700010B50068094988420FD10948016821F452
:103680008031016007484FF4F851FDF783F9BDE838
:10369000104005480421FDF77DB910BD00700052AF
:1036A000D444025800080258000C02582DE9F04199
:1036B000B6B00446142130A8FCF742FEC02168468B
:1036C000FCF73EFE2849206888424AD100224FF08C
:1036D0000408022514464FF4803168468DE8260020
:1036E000C027CDE907721023099214910126CDE974
:1036F0000338CDE90565FEF7ABF908B1FCF7F3FF38
:103700001A48016841F480310160006800F480309B
:10371000359016480C30016841F0040101600168E1
:1037200001F004013591016841F008010160006871
:1037300032AA032600F0080035904FF4F850CDE986
:1037400030050C270A4882E8D00030A9FDF7DAF9E5
:1037500032AA084830A982E8D000CDE93085FDF7CB
:10376000D1F936B0BDE8F08100700052D44402585F
:1037700000080258000C02582DE9F04F87B0994616
:1037800017460D460446FDF7E3FA06903DB194F85E
:103790003000012807D0606B40F000500DE0606BF6
:1037A00040F0006009E0226D002007EB0901606332
:1037B000914204D9606B40F000706063A8E003217F
:1037C00084F830102168C862A16B012900D07F0203
:1037D0004FF0020ACDE903A090264FF0FF324FEAE6
:1037E000492305908DE84C0080462068694601F029
:1037F00089FB2068B9F1010F4FF00106C16841F063
:103800004001C16006D9C4F82CA03946206801F0F7
:1038100039FA04E0E6623946206801F04DFADFF833
:1038200014A150B12368C3F838A0616B01436163F0
:1038300084F83060C4F82C806AE0DDF804B01FE042
:10384000406B000414D5BBF1200F11D30027206872
:1038500001F0DCFC020A2870010C6A70030EA970EA
:103860007F1CEB70082F05F10405F0D3ABF1200BA2
:10387000FDF76EFA0699411A1098814221D200B3E1
:103880002068416B11F4957FDAD0C16821F04001C6
:10389000C1602068416BC90522D5B9F1010F1FD95C
:1038A000A16B03291CD001F0CFFAC8B12368C3F87B
:1038B00038A0626B0243626384F83060C4F82C80E5
:1038C00026E02268C2F838A0606B40F000406063D8
:1038D00084F83060C4F82C80032007B0BDE8F08F76
:1038E0002068416B090706D5C0F838A0616B4046D7
:1038F00041F0080108E0416B89070BD5C0F838A0FA
:10390000616B404641F00201616384F83060E0621F
:103910000120E2E7416B890606D5C0F838A0616B4B
:10392000404641F02001EFE70349816384F83060AD
:103930000020D2E7FF0FE01F3A0F00182DE9F04FEB
:1039400089B09A4616460D460446FDF701FA0690E0
:103950003DB194F83000012807D0606B40F0005072
:103960000DE0606B40F0006009E0226D002006EB86
:103970000A016063914204D9606B40F0007060639B
:10398000B2E0032184F830102168C862A16B0129DC
:1039900000D076024FF0FF314FEA4A220590902383
:1039A0000490CDE90230CDE90012804620686946D6
:1039B00001F0A8FA2068C168BAF1010F41F0400295
:1039C000C26006D92020E0622068314601F066FA24
:1039D00005E01020E0622068314601F079FADFF856
:1039E00030B106004FF001090AD02368C3F838B09F
:1039F000606B3043606384F83090C4F82C8073E0CF
:103A00000198089027E0406B40041CD508982028B6
:103A100019D3002728780790697840EA0120079099
:103A2000A97840EA01400790E9782D1D40EA01603D
:103A30000790206807A901F001FC7F1C082FE9D33B
:103A4000089820380890FDF783F90699411A1298D2
:103A5000814221D200B32068416B11F48D7FD2D016
:103A6000C16821F04001C1602068416BC90521D5C2
:103A7000BAF1010F1ED9A16B03291BD001F0E4F9A3
:103A8000C0B12568C5F838B0616B0143616384F843
:103A90003090C4F82C8027E02368C3F838B0626BFC
:103AA0003243626384F83090C4F82C80032009B05C
:103AB000BDE8F08F2068416B090707D54946C0F87B
:103AC00038B0626B404642F0080209E0416B89075A
:103AD0000CD54946C0F838B0626B404642F002024D
:103AE000626384F83010E0620120E0E7416BC906B0
:103AF00007D54946C0F838B0626B404642F0100224
:103B0000EEE7044A826384F830900020CFE700009B
:103B1000FF0FE01F3A0F0018401EB0F1807F10B574
:103B200001D3012010BD4FF0E02460610F21601728
:103B300002F00EFA0020A0610721216110BD30B50E
:103B400090F88410012918D0012280F884202421C3
:103B5000C0F888100022202401680B680D6823F04B
:103B6000005325F001050D60426601680B60C0F846
:103B7000884080F88420104630BD022030BD70B5EA
:103B8000044690F8840001281DD0012284F8842086
:103B90002420C4F8880020680568026822F0010229
:103BA00002602068826822F060620A4382602046D8
:103BB00001F09AFE2268202100201560C4F88810C8
:103BC00084F8840070BD022070BD70B5044690F882
:103BD000840001281DD0012284F884202420C4F808
:103BE000880020680568026822F0010202602068EF
:103BF000826822F060420A438260204601F074FE2F
:103C00002268202100201560C4F8881084F8840000
:103C100070BD022070BD10B5040003D0D4F8880038
:103C200010B107E0012010BD002084F88400204678
:103C300000F044F82420C4F888002068016821F0CE
:103C400001010160204601F055FF0128EBD0A06A78
:103C500010B1204601F06AFE2068416821F49041CD
:103C600041602068816821F02A0181602068016834
:103C700041F0010101602046BDE8104001F0BABEEC
:103C800010B50068094988420FD10948016821F43C
:103C90000021016007484FF40071FCF77BFEBDE88E
:103CA000104005480121FCF775BE10BD004C0040D6
:103CB000E8440258002002580000025870B5B6B01F
:103CC0000446142130A8FCF73BFBC0216846FCF7F2
:103CD00037FB2149206888423CD100201E900221F8
:103CE0000446CDE900106846FDF7B2FE08B1FCF7C6
:103CF000FAFC1A48016841F400210160006800F4F0
:103D00000020359015480838016841F48071016041
:103D1000016801F480713591016841F00101016091
:103D200000680225082600F0010035902802309036
:103D3000CDE931540A4830A9CDE93346FCF7E2FE1B
:103D400001203090CDE93154064830A9CDE9334601
:103D5000FCF7D8FE36B070BD004C0040E844025875
:103D600000200258000002582DE9F8430446D0F81C
:103D70008800984616460D46202802D00220BDE84D
:103D8000F883A5B19EB10021C4F890102120C4F899
:103D900088001834FCF7DCFF814654F8100CA68725
:103DA000E6872027183CB0F5805F02D003E00120B1
:103DB000E5E7206910B12E46002510E000260EE050
:103DC0008021204602F06CF8C0B9DEB116F8010B74
:103DD00021688862B4F85600401EA4F85600B4F872
:103DE00056004B464FF00002CDF800800028E7D186
:103DF0004FF04001204602F053F848B1C4F88870F3
:103E00000320BCE735F8020B2168C0F30800E0E7A7
:103E1000C4F888700020B2E7FEE7000004490548B6
:103E200010B5FCF762FC0249491E087010BD000085
:103E30003E0000201C8C0008F0B587B01C216846AD
:103E4000FCF77EFA12480022104B102140250C018D
:103E5000C0E90032CB01846108260127C0E90723AD
:103E600042628262C0E90415C0E9027600910191C4
:103E7000029103910491059106916946FFF788F834
:103E8000002801D0FCF72FFC07B0F0BD40410052E4
:103E9000580000202DE9F04387B014216846FCF754
:103EA0004FFA3B48016841F004010160016801F0EC
:103EB00004010591016841F010010160016801F001
:103EC00010010591016841F040010160016801F0B5
:103ED00040010591016841F008010160016801F0AD
:103EE00008010591016841F480710160016801F4E5
:103EF00080710591016841F020010160016801F0C5
:103F000020010591016841F080010160016801F024
:103F100080010591016841F001010160016801F033
:103F200001010591016841F0020101600068012270
:103F3000DFF86080D60300F002003146059040466D
:103F4000FCF7FBFEDFF85090F71100223946484697
:103F5000FCF7F3FE0125694600244046CDE90065E3
:103F6000CDE90254FCF7CEFD00976946CDE9015436
:103F700048460394FCF7C6FD022128030090074839
:103F8000CDE901416946FCF7BDFD07B0BDE8F0830E
:103F9000E044025800080258002002580004025869
:103FA0000C48162270B50021094BC0E9031241618B
:103FB000052481610425C161016280E83800FDF7B4
:103FC00027F8002803D0BDE87040FCF78CBB70BD1B
:103FD000005000528C000020074800214FF480431D
:103FE00010B5044C0222C0E90041C0E90213C0E947
:103FF000041210BD00700052D800002018480021A3
:1040000010B5164C0C224FF4E1330460C0E90131C5
:10401000C160C0E904128161C161016241628162D3
:10402000FFF7F9FD08B1FCF75EFB0D480021FFF733
:10403000CCFD08B1FCF757FB09480021FFF79FFDB5
:1040400008B1FCF750FB0648FFF779FD002803D0C4
:10405000BDE81040FCF747BB10BD0000004C00401D
:1040600054010020FEE7FEE770472DE9F0434B6A5C
:104070004FF040652BB1AA4203D004688B6A5B1EE7
:1040800023618B69002B68D00C6AB4B303688C6819
:10409000DC61CC69FCB1D1E90B38D1F824C04E6B9E
:1040A0008F8A43EA080346EA0C0633430E6A43EA62
:1040B0008743D1E9037C43EA0C0333438E693B43D6
:1040C0000F682343046833433B4365E00068496855
:1040D0008161BDE8F083D1E90B364F6A4C6B8D8A64
:1040E00033433C430E6923430C6A43EA85438D699D
:1040F0003343096823432B4362E0FFE7CC69B4F103
:10410000000918D0D1E90B484F6A4E6BB1F814C0C2
:1041100044EA08043E430F683443CE6844EA8C44C2
:10412000344344EA09041C4303683C431443AA4251
:104130005C61CBD1CDE7D1E90B464F6A4D6BB1F84D
:1041400014C034433D4300682C43096844EA8C445E
:104150001C430C4314434461BBE70B6AABB30368D5
:104160008C68DC61CC69E4B1D1E90B38D1F824C0AA
:104170004E6B8F8A43EA080346EA0C0633430E6A05
:1041800043EA8743D1E9037C43EA0C0333438E6956
:104190003B432343046833431343AA42636195D1ED
:1041A00097E7D1E90B364F6A4C6B8D8A33433C431A
:1041B0000E6923430C6A43EA8543896933432343E9
:1041C00000680B431343436183E7FFE7CC6984B185
:1041D000D1E90B384F6A4E6BB1F814C043EA0803BB
:1041E0003E433343CE6843EA8C433343234304685E
:1041F000D2E74C6A002C9DD0D1E90B368F8A4D6BEB
:104200000168334325432B4343EA87401043486109
:104210005FE7000030B595B00020012110240C901C
:104220000B020D9305230E900A0610928D05019046
:10423000CDE906530F9001AA129041F288331390F2
:104240001490CDE90410CDE90214054807A9FCF744
:1042500045FE002801D06FF0020015B030BD00000F
:104260008C00002010B5FFF79BFE00F089F8014696
:104270000648814204D106A001F05AFE002010BD7C
:104280000AA001F055FE4FF0FF3010BD1740EF00BF
:1042900020573235513634204F4B2C666C61736891
:1042A0002049443A25580D0A0000000020573235B5
:1042B000513634204552524F5221212121212020B4
:1042C00049443A25580D0A0030B591B000204FF40A
:1042D00080744FF44061099465010B90EB240695BE
:1042E0008A030F90062308930C921090CDE90204E4
:1042F0000E900A91019000F071F8054801AA03A9F7
:10430000FCF7DCFE002801D06FF0050011B030BDD5
:104310008C000020F0B58FB0054600234FF0EB0C69
:104320004FF480774FF4406006977C0103940C9320
:10433000860308930627079041F288340B9305976C
:104340000D93CDE90962CDE900C10C4822466946CA
:10435000FCF71AFE6FF0040628B9084822462946E1
:10436000FCF75CFF10B130460FB0F0BDFFF752FF15
:104370000028F9D06FF00200F6E700008C00002062
:1043800010B590B04FF4807300205C0106931904BF
:104390000394032208909F230C90009341F28834E9
:1043A0000B900D9007900590CDE909120A4822461E
:1043B0006946FCF7E9FD08480EA92246FCF72EFFE6
:1043C0009DF838209DF839009DF83A1010B012047D
:1043D00042EA0020084310BD8C00002070B58EB06A
:1043E00041F2883400204FF4807166220890CDE9B4
:1043F0000610009222460B9069460C900D90099091
:1044000005900E48FCF7C0FD4FF0FF3560B9FFF78F
:1044100001FF6FF0020670B999200090074822460C
:104420006946FCF7B1FD10B128460EB070BDFFF72C
:10443000F1FE0028F9D03046F7E700008C0000209C
:1044400010B58EB000214FF480740694620108917B
:1044500020240B910C91D3100D910591CDE90040D2
:1044600009910793039200F07BF830B10EA001F0A0
:104470005FFD6FF001000EB010BD124841F28832AE
:104480006946FCF781FD28B10FA001F051FD6FF0E6
:104490000300F0E7FFF7BEFE0028ECD010A001F00B
:1044A00047FD6FF00200E6E75732355178785F45F7
:1044B00052524F525F5772697465456E61626C6506
:1044C0000D0A00008C0000205732355178785F4586
:1044D00052524F525F45726173650D0A0000000031
:1044E0005732355178785F4552524F525F4155549B
:1044F0004F504F4C4C494E470D0A00002DE9F041FA
:10450000CBB2C3F58074944200D914460D468F187F
:1045100006464FF4807800BF00F022F818B16FF023
:104520000100BDE8F081A2B22946304600F070F8E3
:1045300010B16FF00400F4E7FFF76CFE10B16FF0FC
:104540000200EEE7254405F58070B842264401D903
:104550007C1B00E04446BD42DED30020E1E70000C2
:10456000F0B595B041F2883500242A464FF48070AA
:1045700006210E94CDE90C040B9416481194129464
:1045800013940F94069106A9FCF7FEFC28B112A023
:1045900001F0CEFCA01E15B0F0BD0220009001215C
:1045A0004305102205260696CDE90221CDE90443F4
:1045B000C7050190CDE90F71064806A92B466A464A
:1045C000FCF78CFC0028E6D00AA001F0B1FC6FF0EB
:1045D0000200E0E78C0000205732355178785F45C3
:1045E00052524F525F5772697465456E61626C65D5
:1045F0000D0A00005732355178785F4552524F52BC
:104600005F4155544F504F4C4C494E470D0A0000E6
:1046100070B58EB004464FF48070002345010395B9
:104620008600069008934FF040700C9332250B9350
:104630000D9307960593CDE90902CDE90051FFF7E7
:104640008FFF18B16FF001000EB070BD41F28836D7
:104650000B4832466946FCF797FC6FF0040528B911
:10466000074832462146FCF739FE08B12846EBE7F9
:10467000FFF7D0FD0028E7D06FF00200E4E700006C
:104680008C0000202DE9F041984616460F4604465E
:10469000069D08E0681C06D0FCF75AFBA0EB08005A
:1046A000A8420AD84DB120688068384000D0012067
:1046B000B042EFD10020BDE8F081042084F8410031
:1046C000606C40F0010060640120F4E72DE9F047E0
:1046D000454D044689464FF0000A2868C0438007CC
:1046E0000AD0414E283E306820F080603060FCF7F0
:1046F0002FFB0746B04608E00120BDE8F08700BF69
:10470000FCF726FBC01B022867D8D8F80000000180
:10471000F6D4206829684FF4FE0721F47C313E026C
:1047200041EA00302860207AA389B4F804C040022E
:104730002D4D2D495B1E227CACF1010C1035091D5D
:10474000A0F5007080B2521ECCF3080C07EA0343B8
:1047500040EA0C00184306EA026210432860086829
:10476000626920F0C000104308600A68A06922F066
:10477000200202430A60281D0A6822F010020A6023
:1047800002684FF6F873E4699A4342EAC402026091
:104790000868B9F1000F40F010020A6011D00868F3
:1047A000B9F1010F11D040F400100860D8F80000F2
:1047B000444640F08060C8F80000FCF7C9FA05469E
:1047C0000DE0086840F40020EFE740F48010ECE7CB
:1047D000FCF7BEFA401B022801D903208DE72068B0
:1047E0000001F5D5504688E7284402582DE9F047E6
:1047F000454D044689464FF0000A2868C0438007AB
:104800000AD0414E283E306820F080503060FCF7DE
:104810009FFA0746B04608E00120BDE8F08700BFD8
:10482000FCF796FAC01B022867D8D8F80000800071
:10483000F6D4208829684FF4FE0721F07C713E02EF
:1048400041EA00502860207AA389B4F804C04002ED
:104850002D4D2D495B1E227CACF1010C1835091D34
:10486000A0F5007080B2521ECCF3080C07EA034397
:1048700040EA0C00184306EA026210432860086808
:10488000626920F44060104308600A68A06922F45D
:10489000007202430A60281D0A6822F480720A60CE
:1048A00002684FF6F873E4699A4342EAC402026070
:1048B0000868B9F1000F40F480720A6011D00868EE
:1048C000B9F1010F11D040F080700860D8F80000F5
:1048D000444640F08050C8F80000FCF739FA05461D
:1048E0000DE0086840F48000EFE740F40000ECE7DA
:1048F000FCF72EFA401B022801D903208DE720681F
:104900008000F5D5504688E7284402582DE9FF413C
:10491000002635463746344603F08EFA334934A034
:1049200002F0B0FD18B136A001F002FB00E0012654
:104930002E493BA002F0A6FD18B13DA001F0F8FA07
:1049400000E00125EE4203D1042004B0BDE8F0816F
:10495000002E18D03E4826A101F064FD4023694690
:10496000082223A003F0FCFB082801D039A008E0AE
:104970009DF80300242803D19DF80700902812D049
:104980003EA001F0D5FADDB1314825A1403001F05B
:1049900049FD4023082202A921A003F0E1FB0828D9
:1049A00003D03EA00AE00127EDE79DF80B00242884
:1049B00003D19DF80F00902809D042A001F0B8FA69
:1049C0003FB164B147A001F0B3FA0320BDE7012471
:1049D000F6E74CB14CA001F0ABFA0220B5E751A0CC
:1049E00001F0A6FA0120B0E70020AEE7084A002057
:1049F000617070315F686561642E62696E000000ED
:104A00002041505031206E6F7420666F756E6420A7
:104A1000696E2053442063617264200D0A00000017
:104A2000617070325F686561642E62696E000000BB
:104A30002041505032206E6F7420666F756E642076
:104A4000696E2053442063617264200D0A000000E7
:104A5000204B002020204572726F722072656164C5
:104A6000696E672074686520415050312063686525
:104A7000636B2066696C650D0A00000020204150C0
:104A8000503120657869737473206275742069737E
:104A900020696E76616C69640D0A00002020457201
:104AA000726F722072656164696E67207468652038
:104AB0004150503220636865636B2066696C650DF8
:104AC0000A0000002020415050322065786973743C
:104AD000732062757420697320696E76616C6964F5
:104AE0000D0A00002020534420636865636B204159
:104AF00050503120616E64204150503220737563F4
:104B0000636573730D0A00002020534420636865B9
:104B1000636B20204150503220737563636573735B
:104B20000D0A00002020534420636865636B202039
:104B30004150503120737563636573730D0A000033
:104B400030B585B0044637204FF480720DF1080C63
:104B5000CDE9001000236946150120468CE82C00A1
:104B600000F058FB372141F28832204600F0DEF990
:104B700005B030BD30B585B0044629204FF48072B1
:104B80000DF1080CCDE900100023694615012046FF
:104B90008CE82C0000F03EFB204600F083FA05B0C4
:104BA00030BD30B50446102085B00DF1080C02016F
:104BB0000502CDE90010002369468CE82C00204650
:104BC00000F028FB102141F28832204600F0AEF9B7
:104BD00005B030BD30B585B0044606204FF4807274
:104BE0000DF1080CCDE9001000236946150120469F
:104BF0008CE82C0000F00EFB062141F288322046A2
:104C000000F094F905B030BD30B585B005460024FC
:104C100069464FF48050009401940294CDE903401A
:104C2000284600F0F7FA0B4A4FF4FA5041F2883167
:104C30001268B2FBF0F04843401E03D24FF0004030
:104C400005B030BD696B0906F6D503492046A96356
:104C5000F6E7000014000020C500200030B5082150
:104C6000044685B04FF4D5704A0100234D028DE80B
:104C70002F006946204600F0CDFA204600F07CFA6D
:104C800005B030BD30B585B0044612204FF48072B7
:104C90000DF1080CCDE900100023694615012046EE
:104CA0008CE82C0000F0B6FA122141F2883220463E
:104CB00000F03CF905B030BD30B585B00446112098
:104CC0004FF480720DF1080CCDE900100023694605
:104CD000150120468CE82C0000F09CFA112141F2CD
:104CE0008832204600F022F905B030BD30B585B0DD
:104CF000044607204FF480720DF1080CCDE9001036
:104D000000236946150120468CE82C0000F082FA49
:104D1000072141F28832204600F008F905B030BD85
:104D200010B585B00446002102204FF44072C30242
:104D30000493CDE90010CDE902216946204600F038
:104D400069FA204600F084F905B010BD30B585B091
:104D5000044609200DF1080C0023CDE900104FF4A2
:104D6000407269464FF4805520468CE82C0000F0D4
:104D700051FA204600F06CF905B030BD10B585B091
:104D80000446002133204FF48072CDE90221CDE9A1
:104D90000010130169462046049300F03BFA3321CA
:104DA00041F28832204600F0C1F805B010BD30B5A0
:104DB00085B004460D204FF480720DF1080CCDE94A
:104DC000001000236946150120468CE82C0000F0F5
:104DD00021FA0D2141F28832204600F0A7F805B0F3
:104DE00030BD30B585B00C460021054603204FF498
:104DF0008072CDE90221CDE90010130169462846F1
:104E0000049300F007FA03212246284600F06EF9C9
:104E100005B030BD10B585B0044600210D204FF41B
:104E20008072CDE90221CDE90010130169462046C8
:104E3000049300F0EFF90D2141F28832204600F092
:104E400075F805B010BD000010B585B004464FF4EC
:104E5000807200200C2113018DE80700CDE90303C7
:104E6000E06840F08000E060E06820F04000E06032
:104E70006946204600F0CEF9074A0C21204600F092
:104E800055F8E168B0F1007F21F08001E16000D1C8
:104E9000002005B010BD000000E1F50530B585B07B
:104EA000044619204FF480720DF1080CCDE9001072
:104EB00000236946150120468CE82C0000F0AAF971
:104EC000192141F28832204600F030F805B030BD9B
:104ED00030B585B0044618204FF480720DF1080CEF
:104EE000CDE9001000236946150120468CE82C000E
:104EF00000F090F9182141F28832204600F016F8AF
:104F000005B030BD70B50A6842624A688262C46A00
:104F1000D1E90225D1E9043624F0FF012A433343C5
:104F20001A431143C162002070BD000030B5464DE8
:104F30004FF4FA53434C2D68B5FBF3F353435B1E18
:104F400002D24FF0004030BD426B2242F7D09204B3
:104F5000F5D4426B520703D504218163084630BD66
:104F6000426BD20702D00121816306E0354A8032CC
:104F700082630269D2B28A4201D0012030BD002191
:104F800000F02AF93149084201D1002030BD002843
:104F900002DA4FF0007030BD410001D5402030BD35
:104FA000810001D5802030BDC10002D54FF4807052
:104FB00030BD010102D54FF4007030BD410102D572
:104FC0004FF4806030BDC10102D54FF4006030BDA8
:104FD000010202D54FF4805030BD410202D54FF49A
:104FE000005030BD810202D54FF4804030BDC10277
:104FF00002D54FF4004030BD410302D54FF40030DC
:1050000030BD810302D54FF4802030BDC10302D5ED
:105010004FF4002030BD010402D54FF4801030BDA4
:10502000410402D54FF4001030BD810402D54FF485
:10503000800030BD000702D54FF4000030BD4FF4B2
:10504000803030BD450020001400002008E0FFFD46
:10505000124B4FF4FA5141F288321B68B3FBF1F165
:105060005143491E02D24FF000407047426B12F08C
:10507000450FF6D09204F4D4416B490703D50421BF
:10508000816308467047416BC90703D001218163E2
:1050900008467047024981630020704714000020D1
:1050A000C50020000F4B4FF4FA5141F288321B68C3
:1050B000B3FBF1F15143491E02D24FF0004070475B
:1050C000426B12F0450FF6D09204F4D4416B4907BD
:1050D00003D504218163084670470349816300209A
:1050E0007047000014000020C500200030B5204D9E
:1050F0004FF4FA5341F288342D68B5FBF3F3634360
:105100005B1E02D24FF0004030BD446B14F0450FDF
:10511000F6D0A404F4D4436B5B0703D50421816368
:10512000084630BD436BDB0702D00121816303E0F9
:105130000369DBB28B4201D0012030BD0D49816390
:10514000002100F049F810F4604F04D0410406D566
:105150004FF4005030BD000C1080002030BD000422
:1051600002D54FF4805030BD4FF4803030BD000088
:1051700014000020C5002000144B4FF4FA5141F2F6
:1051800088321B68B3FBF1F15143491E02D24FF044
:1051900000407047426B12F0450FF6D09204F4D4F1
:1051A000416B490703D50421816308467047416B71
:1051B000C90703D00121816308467047416B490646
:1051C00001D54021816300207047000014000020B9
:1051D000006800F003007047084440697047000011
:1051E00030B511434268DDE903542B43034D1943A5
:1051F00021432A400A434260002030BD002CC0FFFA
:10520000016841F00301016000207047D0F8800080
:105210007047000070B5084D0A688260C368D1E924
:105220000126D1E903412B4032430C43224313436F
:10523000C360002070BD0000C0E0FEFF0968C0F838
:1052400080100020704700002DE9F0471C4C10260C
:1052500000274FF6FF7901251A484A462146C4E93E
:105260000056C4E90257FDF711FF0120FBF70AFBC6
:1052700002204A46C4E9000612482146C4E9025702
:10528000FDF704FF03214FF00408E7604A4684E875
:1052900042010C482146FDF7F9FE4FF40871094818
:1052A0004A46C4E90251C4E900862146FDF7EEFEF4
:1052B000BDE8F047034840F2F921FDF7CFBE0000FA
:1052C000F84900205800002010B5064C012020703D
:1052D000FBF7A0F818B9207820F0010020702078A2
:1052E00010BD00003C0000202DE9F04F87B00D46B6
:1052F0000446FBF72DFD0026069020680821B346E2
:105300003746FFF74EFC002833D1B4F8441020682C
:105310000904FFF715FC00282BD1431E4FF00809A4
:105320004FF0020A4FF0300C4FF00108CDF80CA0FE
:105330008DE80812CDE9046820686946FFF7E2FDB0
:105340002068FFF71BFD002813D140F22A5820687F
:10535000416B11EA080F06D1416B090315D4BBF16B
:10536000000F09D011E0416B090717D5C0F838903C
:10537000082007B0BDE8F08FFFF748FF0646206819
:10538000FFF744FF07464FF0010BFBF7E1FC0699DE
:10539000401A401CDBD14FF00040EAE7416B89071F
:1053A00003D5C0F838A00220E3E7416B890603D596
:1053B000202181630846DCE7034A39BA33BA8263A5
:1053C0000020C5E90013D4E73A0F001870B58CB07F
:1053D00004460020ADF82C00FBF7BAFC0546206817
:1053E000FFF7F6FE002853D0A06B032841D02068B9
:1053F000FFF796FC002849D120680021FFF7ECFE5A
:10540000E06604212068FFF7E7FE20670821206896
:10541000FFF7E2FE60670C212068FFF7DDFEA16B5D
:10542000A067032925D041F2883600BFBDF82C00C3
:1054300088B3A06B03281CD0BDF82C1061642068D1
:105440000904FFF783FC002820D120680021FFF722
:10545000C3FEE06504212068FFF7BEFE2066082138
:105460002068FFF7B9FE60660C212068FFF7B4FEE4
:10547000A06604212068FFF7AFFE000D6946206496
:105480002046FDF7E5FEA8B14FF080500CB070BD8E
:105490004FF08060FAE7FFE720680BA9FFF7A1FC57
:1054A0000028F3D1FBF754FC401BB042BED34FF0B1
:1054B0000040EBE7B4F8441020680904FFF716FC3D
:1054C000E4E700002DE9F84F002604463546B046D3
:1054D00000960068FFF798FB002829D12068FFF7A5
:1054E000BDFBB0F1004F4FF001094FF0805B4FF66C
:1054F000FF7702D0C4F83C9008E0E6632068FFF72D
:1055000083FB002814D1E06B01281ED12068002104
:10551000FFF716FB58B918E020680021FFF710FBD1
:10552000002805D120685146FFF724FB10B15846EA
:10553000BDE8F88F20680021FFF74EFE4FEAD078D3
:1055400005460098401C009002E0DFF828A0009873
:10555000B84202D2B8F1000FDED00098B84202D3B0
:105560004FF08070E4E76800A66301D5C4F8389076
:105570000020DDE7000010C12DE9F04186B00D46A6
:105580000446FBF7E5FB002107462068FFF724FEF1
:10559000800104D54FF4006006B0BDE8F0812068BA
:1055A0004021FFF7FEFAC0B9B4F84410206809049E
:1055B000FFF7C6FA88B940214FF0FF3060224FF064
:1055C000010C022300268DE84F1020686946FFF782
:1055D00099FC2068FFF71EFC98B1616B6163DBE703
:1055E000406B000407D500262068FFF70FFE761CED
:1055F000082E01C5F8D3FBF7ABFBC01B401C02D142
:1056000027E04FF000482068416B11F4957FE7D008
:10561000416B090701D50820BEE7416B890701D519
:105620000220B9E7406B80060AD52020B4E700BF0E
:10563000FFF7ECFD01C5FBF78BFBC01B401C08D03E
:105640002068416BC904F3D40146034888630020F5
:10565000A2E74046A0E700003A0F001870B5064CDC
:10566000054601202070FAF7E1FE18B92846FFF739
:105670002BFE2070207870BD3C000020144810B52F
:105680008AB014460078C00702D003200AB010BDCB
:1056900039B1012907D002290BD0032910D00420E9
:1056A000F4E70020F2E76846FAF7AEFE069900201C
:1056B0000CE06846FAF7A8FE079900202180E5E78C
:1056C0006846FAF7A1FE07990020490A2160DDE744
:1056D0003C00002070B501241D4616460846A31E56
:1056E0002A463146FAF7C8FE28B900BFFAF792FEFB
:1056F0000028FBD10024204670BDFFF7E5BD000067
:1057000070B501241D4616460846A31E2A4631469A
:10571000FAF7C2FE28B900BFFAF77CFE0028FBD1D9
:105720000024204670BD7047FBF718BB70B59CB0D5
:105730004C216846FAF704FE202113A8FAF700FE70
:105740000220FBF7A1FB2E4900242E480A6822F014
:1057500001020A600A68026842F44042026002687C
:1057600002F440421B9202689204FCD5264A136858
:1057700043F002031360126802F002021B920268F7
:1057800042F44042026002680A6842F001020A6084
:10579000096801F001011B9101688904FCD5022010
:1057A00009900DF1280C01260096C10301910522F4
:1057B000C02304268CE80D00CDE90D0608250F90C6
:1057C000CDE9105468461294FDF720F908B172B67D
:1057D000FEE740201A903F210301CDE91650032235
:1057E000CDE9180313AB13A883E816000421FCF7D6
:1057F00005FE002801D072B6FEE71CB070BD0000A7
:105800002C04005818480258F44402582C48F0B5AB
:105810002C4A016841F470010160106800F00F002B
:10582000072804D2106820F00F00C01D1060264920
:105830000020254C10340B68244D43F001030B600D
:1058400020600B682B400B60136803F00F03072BDD
:1058500004D9136823F00F03DB1D13601A4C1C4A94
:1058600018341C4B261D371D2060174C1A4D283448
:105870003060261D3860371D23603B1D35601C1DC0
:105880003A60251D2E1D1860331D2260286032608D
:1058900018600A680C4B114C22F4802260330A60B5
:1058A000186020686FF30F00B0F1005F03D20C495D
:1058B0000120C1F8080143F2D2000A490860F0BD96
:1058C00088ED00E000200052004402587FEDF6EA27
:1058D00080020101000202020000FF010010005CD2
:1058E000008000510040005230B5416EB9B10168EE
:1058F0000D4B03F108048A688968C2F34262490FBC
:105900005D5C615C2D01B5FBF1F1A0F86A10995C5A
:10591000A25C0901B1FBF2F1A0F8681030BD0121D1
:10592000A0F86A10F8E70000FC8B000890F8281037
:10593000C90706D00168C36A4A6822F400321A43D4
:105940004A6090F82810890706D50168036B4A68F9
:1059500022F480321A434A6090F82810490706D58D
:105960000168436B4A6822F480221A434A6090F827
:105970002810090706D50168836B4A6822F40042A3
:105980001A434A6090F82810C90606D50168C36B0F
:105990008A6822F480521A438A6090F82810890697
:1059A00006D50168036C8A6822F400521A438A60A3
:1059B00090F82810490611D50168436C4A6822F412
:1059C00080121A434A60416CB1F5801F06D101680C
:1059D000836C4A6822F4C0021A434A6090F8281087
:1059E000090606D50168C26C486820F400201043FF
:1059F000486070472DE9F84300250446C0F89050F0
:105A0000FBF7A6F98046206820266FF07E470068E5
:105A1000000713D50022434631042046009700F0CA
:105A20003FFA58B1216851E8000F20F0800041E8AA
:105A30000002002AF6D1C4F8886021E020680068DE
:105A4000400722D5002243464FF4800120460097AC
:105A500000F026FAC8B1206850E8001F21F49071C8
:105A600040E80012002AF6D12068083050E8001FF4
:105A700021F0010140E80012002AF5D1C4F88C6041
:105A8000032084F88450BDE8F883C4F88860C4F823
:105A90008C60E5662567002084F88450F3E70000F9
:105AA00010B5026852E8001F21F4907142E800131B
:105AB000002BF6D10E4B0268083252E8001F194045
:105AC00042E80014002CF6D1C16E012908D1026809
:105AD00052E8001F21F0100142E80013002BF6D11C
