:020000040800F2
:100000000000012031010008000000000000000095
:1000100000000000000000000000000000000000E0
:100020000000000000000000000000004101000886
:100030000000000000000000E1030008F1030008D8
:1000400000000000000000000000000000000000B0
:1000500000000000000000000000000000000000A0
:100060000000000000000000000000000000000090
:100070000000000000000000000000000000000080
:100080000000000000000000000000000000000070
:100090000000000000000000000000000000000060
:1000A0000000000000000000000000000000000050
:1000B0000000000000000000000000000000000040
:1000C0000000000000000000000000000000000030
:1000D0000000000041040008000000005504000872
:1000E000CD03000800000000000000000000000038
:1000F0002D040008000000000000000000000000C7
:1001000000000000000000000000000000000000EF
:1001100000000000000000000000000000000000DF
:1001200000000000000000000000000000000000CF
:1001300000F066F900F0B2FBD0F800D04168084743
:1001400001480068C06A0047FCFF0020032A40F213
:10015000308010F0030C00F0158011F8013BBCF169
:10016000020F624498BF11F801CB00F8013B38BF81
:1001700011F8013BA2F1040298BF00F801CB38BF8F
:1001800000F8013B11F0030300F06780083AC0F06B
:10019000088051F8043B083A51F804CBA0E8081055
:1001A000F5E7121D5CBF51F8043B40F8043BAFF388
:1001B0000080D20724BF11F8013B11F801CB48BFE2
:1001C00011F8012B24BF00F8013B00F801CB48BF18
:1001D00000F8012B7047431A28BF9A427FF6B6AF4A
:1001E000032A1044114440F2268010F0030F1EBF72
:1001F00011F8013D521E00F8013D10F0030F7FF48D
:10020000F6AF11F0030300F0B680083AC0F00B809F
:1002100051F8043D083A51F804CD40F8043D40F847
:1002200004CDFFF7F3BF121D5CBF51F8043D40F849
:10023000043DAFF30080D20724BF11F8013D11F84F
:1002400001CD48BF11F8012C24BF00F8013D00F892
:1002500001CD48BF00F8012C704710B5203AC0F01E
:100260000B80B1E81850203AA0E81850B1E81850B7
:10027000A0E81850BFF4F5AF5FEA027C24BFB1E8F4
:100280001850A0E8185044BF18C918C0BDE8104065
:100290005FEA827C24BF51F8043B40F8043B08BF6E
:1002A0007047D20728BF31F8023B48BF11F8012B35
:1002B00028BF20F8023B48BF00F8012B70474FF0E1
:1002C00000020429C0F0128010F0030C00F01B8023
:1002D000CCF1040CBCF1020F18BF00F8012BA8BF31
:1002E00020F8022BA1EB0C0100F00DB85FEAC17CF5
:1002F00024BF00F8012B00F8012B48BF00F8012BA8
:1003000070474FF0000200B51346944696462039D8
:1003100022BFA0E80C50A0E80C50B1F12001BFF4BE
:10032000F7AF090728BFA0E80C5048BF0CC05DF824
:1003300004EB890028BF40F8042B08BF704748BF72
:1003400020F8022B11F0804F18BF00F8012B7047E6
:10035000431A28BF9A427FF680AF104410F0030F73
:1003600011441EBF11F8013D521E00F8013D10F06E
:10037000030F7FF4F6AF103AC0F00A8010B531E9F0
:100380001850103A20E91850BFF4F9AFBDE81040FA
:10039000530724BF31E9081020E9081044BF51F881
:1003A000043D40F8043D12F0030F08BF7047D20728
:1003B00028BF31F8023D48BF11F8012C28BF20F8B2
:1003C000023D48BF00F8012C7047000010B50348FB
:1003D0000468D4F8E000804710BD0000FCFF002056
:1003E00010B502480468A06B804710BDFCFF0020D8
:1003F00010B502480468E06B804710BDFCFF002088
:1004000010B5054A05490648FFF727FF0549064884
:10041000FFF777FF10BD00001C000000400F000830
:1004200000000020EC0100001C00002010B5034873
:100430000468D4F8F000804710BD0000FCFF0020E5
:1004400010B503480468D4F8D400804710BD0000FC
:10045000FCFF002010B503480468D4F8D40080479E
:1004600010BD0000FCFF00202DE9F0478EB00646CD
:1004700089469246002400E0641C305D202804D0A8
:10048000305D092801D04C45F6D324B94FF0FF3038
:100490000EB0BDE8F087142C00D91424002503E029
:1004A000705D01A948556D1CA542F9D3002001A932
:1004B000485501A800F042F8074617B94FF0FF3041
:1004C000E6E7202106A8FFF71CFF06AA49463046AA
:1004D00000F06EF98046B8F1000F02D14FF0FF3006
:1004E000D6E706A94046FA689047CAF800000020FF
:1004F000CEE701B569460A7812064B7802EB034253
:100500008B7802EB0322CB78D01808BD70B5034678
:10051000002004E053F8204041F82040401CD5174B
:1005200002EB9575012606EBA5058542F2DC70BD50
:1005300000BF011EA0F10100FBD1704770B5054658
:1005400000240CE0094951F824100868294600F0FD
:1005500071FC18B9054850F8240070BD641C0348AC
:1005600050F824000028EDD100BFF6E70400002079
:100570000248407800F00100704700001C00002095
:1005800001480068704700000000002002484078E1
:10059000C0F34000704700001C00002010B500F0C0
:1005A00019F810BD0349497860F30001014A517000
:1005B000704700001C0000200349497860F34101A6
:1005C000014A5170704700001C000020004870472D
:1005D00004000020044900BF086800F02000002843
:1005E000FAD0486870470000003801402DE9F0411A
:1005F00006460F460025FFF7E9FF8046012E13D17E
:100600000DE058F82510086800F084F915A000F0F6
:1006100081F958F82510486800F07CF96D1C58F8ED
:1006200025000028EDD119E0022E17D17868FFF7D8
:1006300085FF04464CB1206800F06CF90BA000F077
:1006400069F9A06800F066F908E009A000F062F915
:10065000786800F05FF905A000F05CF90020BDE8C3
:10066000F08100000909202D200900000D0A00007A
:1006700063616E206E6F742066696E6420636F6DB7
:100680006D616E64203A2000F0B5034600201C46E0
:100690000D4608E026782F78F61B301E00D004E0C7
:1006A000641C6D1C521E002AF4D800BFF0BDF0B5CA
:1006B0000D46144601462A46914202D916198E4229
:1006C00009D203E012F8016B01F8016B261EA4F1B8
:1006D0000104F7D107E0234603E05E1E975D8F55C6
:1006E0005B1E002BF9D1F0BD70B50C4601462346C8
:1006F0008B4210D29D188D420DD91144134405E050
:100700005D1E2B462E784D1E29462E70151EA2F119
:100710000102F5D108E003E013F8015B01F8015B89
:10072000151EA2F10102F7D170BD30B5034601E0FC
:1007300003F8011B141EA2F10102F9D130BD000023
:1007400038B504460D4601E0641C6D1E2078202853
:10075000FAD020780928F7D00DB9002038BD6A46B4
:1007600029462046FFF780FE08B90098F6E72046A4
:1007700000E0401C0178202902D001780029F8D13E
:1007800000210170204600F0C5F803A000F0C2F877
:100790004FF0FF30E2E7000020636F6D6D616E6423
:1007A000206E6F7420666F756E642E0D0A00000057
:1007B0002DE9F04782460E46904654460025002714
:1007C00054E003E000202070641C6D1C2078202879
:1007D00002D02078092801D1B542F3D3082F11D3D4
:1007E00025A000F097F84FF0000905E058F829001F
:1007F00000F090F809F10109B945F7D326A000F0FF
:1008000089F835E0B54200D332E0207822281CD1A7
:10081000641C6D1C48F827407F1C09E020785C2888
:1008200004D16078222801D1641C6D1C641C6D1CED
:100830002078222801D0B542F0D3B54200D317E08A
:1008400000202070641C6D1C10E048F827407F1CBD
:1008500001E0641C6D1C2078202804D02078092831
:1008600001D0B542F5D3B54200D301E0B542A8D3DB
:1008700000BF3846BDE8F087546F6F206D616E7918
:1008800020617267732021205765206F6E6C79207C
:100890005573653A0A0000000D0A000010B5064CB9
:1008A00000F0E0FA05A000F035F800F07DF82046F1
:1008B00000F03CF8002010BD000004080D0A626F33
:1008C0006F746C6F616465720D0A0000044900BFAB
:1008D0000A6802F08002002AFAD0486070470000DF
:1008E0000038014070B5054608A000F013F8072451
:1008F00009E0A00025FA00F000F00F060449885D29
:10090000FFF7E4FF641E002CF3DA70BD30780000BE
:10091000B40E000800B5034603E01878FFF7D6FFD1
:100920005B1C18780028F8D100BD00002DE9F041CB
:10093000044604F1400625462869FFF7DAFD07461C
:10094000E868FFF7D6FD80460FA0FFF7E3FF3846C3
:10095000FFF7C8FF0EA0FFF7DDFF0EA0FFF7DAFFDD
:100960004046FFF7BFFF0AA0FFF7D4FF42463946D3
:100970003046FFF7CBFD384600F010F83846FFF759
:10098000DBFBBDE8F08100006C6F6164203D20005E
:100990000D0A000073697A65203D20000149086056
:1009A00070470000FCFF0020D148407820F0010093
:1009B000401CCF494870FFF7E3FD0546FFF7AAFF4B
:1009C00095E1FFF7EBFD0446002C00DA8FE11B2CCC
:1009D00003D10120C649087089E1C5480078012883
:1009E00009D15B2C03D10220C14908707FE10020AE
:1009F000BF4908708AE0BE4800780228FAD100207A
:100A0000BB490870412C26D108464088002804DDE7
:100A100008464088401E488003E00020B4494880D2
:100A200065E1B348408800EB8002B148801D00EBCF
:100A30000211502200F5C870FFF788FBAD4800F0A6
:100A400007FA80B2AA49A1F8E801A1F8EA0108462C
:100A500000F05AF94BE1422C2ED1A54841888088FC
:100A6000401E814205DAA2484088401CA0494880C7
:100A700009E09F48808828B19D488088401E9C4995
:100A8000488000E033E19A48408800EB80029848B3
:100A9000801D00EB021150229648FFF757FB954846
:100AA00000F0D6F980B29249A1F8E801A1F8EA0174
:100AB000084600F029F91AE1442C0ED18C48B0F810
:100AC000EA0148B18CA0FFF725FF8948B0F8EA0198
:100AD000401E8749A1F8EA0109E1432C16D1844858
:100AE000B0F8EA018249B1F8E81188420DDA80498C
:100AF000B1F8EA217F49885CFFF7E8FE7C48B0F84E
:100B0000EA01401C7A49A1F8EA01F0E00CB1FF2C9F
:100B100000D1ECE0092C5BD07F2C01D0082C57D100
:100B20007348B0F8EA0100B9E1E07148B0F8E801B3
:100B3000401E6F49A1F8E8010846B0F8EA01401EDE
:100B4000A1F8EA010846B0F8E801B1F8EA118842D4
:100B500034DD674BB3F8E831654EB6F8EA619A1BAD
:100B6000634BB3F8EA315B1C624E9919604BB3F8E2
:100B7000EA61604BF018FFF72EFB00215C48B0F8EB
:100B8000E8215C4881540820FFF7A0FE5849B1F8DD
:100B9000EA2158495018FFF7BDFE58A0FFF7BAFEEA
:100BA0005348B0F8EA5103E053A0FFF7B3FE6D1CC1
:100BB0004F48B0F8E801A842F6DA08E050A0FFF785
:100BC000A9FE00214A48B0F8E8214A4881548EE045
:100BD0000D2C01D00A2C20D1454800F0B3F8444830
:100BE000407800F0010010B146A0FFF793FE4048A6
:100BF000B0F8E8113F48FFF7A3FDFFF7C1FC054639
:100C0000FFF788FE51213B48FFF759FB0020384988
:100C1000A1F8E801A1F8EA0169E03548B0F8E80177
:100C2000502803DB00203249A1F8E8013048B0F831
:100C3000EA012F49B1F8E811884232DA2C4BB3F8B7
:100C4000E8312B4EB6F8EA619A1B294BB3F8EA61FA
:100C5000284BF118264BB3F8EA315B1C254E981946
:100C6000FFF7B9FA2248B0F8EA2130468454204808
:100C7000407800F0010030B11D49B1F8EA21314659
:100C80005018FFF747FE1A48B0F8EA5103E01AA0DF
:100C9000FFF740FE6D1C1648B0F8E801A842F6DCEC
:100CA0000CE01348B0F8E82112488454104840780A
:100CB00000F0010010B1E0B2FFF708FE00240C487C
:100CC000B0F8E801401C0A49A1F8E8010846B0F86C
:100CD000EA01401CA1F8EA010846B0F8E8015028F2
:100CE00004DB0020A1F8E801A1F8EA0100BF68E6F2
:100CF0001C000020B2010020080000002020080095
:100D0000082008000D0A000070B506460BA0FFF78A
:100D100001FE002403E02020FFF7D8FD641C3C2CDA
:100D2000F9DD06A0FFF7F6FDFFF72AFC0546FFF701
:100D3000F1FD0348FFF7EEFD002070BD0D0000003F
:100D4000B201002070B505463848B0F8E801002827
:100D500067D036488088052832DB50223449A1F11B
:100D60005000FFF791FC00285BD000240EE0621CCD
:100D700002EB82032D4A921D02EB031104EB840364
:100D800002EB03105022FFF7E1F9641C042CEEDBA8
:100D900004EB84022549891D01EB02105021FFF765
:100DA0008EFA2249B1F8E82104EB8403891D01EB96
:100DB00003101F49FFF7CAF905201C49888030E05D
:100DC0001A48808868B119498988491E01EB810257
:100DD0001649891D01EB021050221549FFF754FCFA
:100DE000F8B11248808811494880898801EB810256
:100DF0000E49891D01EB02105021FFF760FA0B49E3
:100E0000B1F8E821898801EB81030849891D01EBCC
:100E100003100749FFF79AF904488088401C0349EA
:100E20008880024880880149488070BD1C000020ED
:100E3000B2010020024601E0521C491C107818B192
:100E400010780B789842F7D010780B78C01A70475A
:100E500001460A4600E0521C10780028FBD1501AC7
:100E60007047000010491148026844F204031A4315
:100E700002600F48026822F0F0020260026842F04D
:100E800090020260026822F470620260026842F41A
:100E90008062026045228A6042F20C02CA600A69DE
:100EA00022F440520A617047003801401810024095
:100EB0000408014030313233343536373839616215
:100EC000636465666D7368203E000000557361675A
:100ED000653A200D0A2020202020202068656C70B3
:100EE0002C206C69737420616C6C20636F6D6D6174
:100EF0006E64730D0A2020202020202068656C700D
:100F000020636F6D6D616E642C2073686F77207540
:100F100073616765206F662027636F6D6D616E6416
:100F2000270D0A006C69737420616C6C20636F6D0F
:100F30006D616E64730D0A0068656C7000000000DE
:100F4000C40E00080C00002000000000380F00084C
:0C0F5000240F0008CC0E0008ED0500087E
:0400000500000000F7
:00000001FF
