:0200000490006A
:10000000F8080024AD0200903B250090B523009035
:1000100039250090B9030090513000900000000095
:100020000000000000000000000000008127009098
:10003000BB030090000000003D2500908327009046
:10004000C7020090C7020090C7020090C70200904C
:10005000C7020090C7020090C7020090C70200903C
:10006000C7020090C7020090C7020090C70200902C
:10007000C7020090C7020090C7020090C70200901C
:10008000C7020090C7020090C7020090C70200900C
:10009000C7020090C7020090C7020090C7020090FC
:1000A000C7020090C7020090C7020090C7020090EC
:1000B000C7020090C7020090C7020090C7020090DC
:1000C000C7020090C7020090C7020090C7020090CC
:1000D000C7020090C7020090C7020090C7020090BC
:1000E000C7020090C702009000000000C702009005
:1000F000C7020090C7020090C7020090C70200909C
:10010000C7020090C7020090C7020090C70200908B
:10011000C7020090C7020090C70200903D290090DE
:10012000C7020090C7020090C7020090C70200906B
:10013000C7020090C7020090C7020090C70200905B
:1001400000000000000000000000000000000000AF
:10015000C7020090C7020090C7020090C70200903B
:10016000C7020090C7020090C7020090C70200902B
:10017000C7020090C7020090C7020090C70200901B
:10018000C7020090C7020090C7020090C70200900B
:10019000C7020090C7020090C7020090C7020090FB
:1001A000C7020090C7020090C7020090C7020090EB
:1001B000C7020090C7020090C7020090C7020090DB
:1001C000C7020090C7020090C7020090C7020090CB
:1001D000C7020090C7020090C7020090C7020090BB
:1001E000C7020090C7020090C7020090C7020090AB
:1001F000C7020090C7020090C7020090C70200909B
:10020000C7020090C7020090C7020090C70200908A
:10021000C7020090C7020090C7020090C70200907A
:10022000C7020090C7020090C702009000000000C3
:10023000C7020090C702009000000000C7020090B3
:10024000C7020090C7020090C7020090C70200904A
:10025000C7020090C7020090C7020090C70200903A
:10026000C7020090C7020090C7020090C70200902A
:10027000C7020090C7020090C70200900000000073
:10028000C7020090C7020090C70200900000000063
:1002900000000000C7020090DFF80CD000F07AF8F0
:1002A00000480047E1300090F808002406488047E5
:1002B00006480047FEE7FEE7FEE7FEE7FEE7FEE74B
:1002C000FEE7FEE7FEE7FEE7612800909902009056
:1002D0002DE9F05F0546002092469B46884606467B
:1002E000814640241BE0284641464746224600F00E
:1002F00041F853465A46C01A914110D31146184648
:10030000224600F028F82D1A67EB01084F462246D6
:100310000120002100F01FF817EB00094E41201EBC
:10032000A4F10104DFDC484631462A464346BDE8D5
:10033000F09FD2B201E000F8012B491EFBD27047BA
:100340000022F6E710B513460A4604461946FFF7A1
:10035000F0FF204610BD202A04DB203A00FA02F10B
:10036000002070479140C2F1200320FA03F31943A3
:1003700090407047202A04DB203A21FA02F0002145
:10038000704721FA02F3D040C2F1200291400843A5
:1003900019467047064C074D06E0E06840F001033F
:1003A00094E8070098471034AC42F6D3FFF778FF83
:1003B0004C3800906C380090FEE7704772B6FEE74C
:1003C00070B5044600F038F90546601C02D00448B8
:1003D0000078044400F030F9401BA042FAD370BD0D
:1003E000000000242DE9F84F03247D4D00234FF039
:1003F00001094FF0B04B4FF00F0AE9E009FA03F79B
:100400003A4076D00E7906F00306012E01D0022E76
:1004100018D1D0F808C04FEA430ECE6804FA0EF89F
:100420002CEA080C06FA0EF646EA0C068660D0F8AE
:1004300004C00E792CEA070CC6F300169E4046EA6B
:100440000C0646600E79F643B6070BD0C6684FEA35
:1004500043088F6804FA08FC26EA0C0607FA08F736
:100460003743C7600E7906F00306022E12D1DE086C
:100470000F694FEA437C00EB8606B646366A4FEAC0
:10048000DC6C0AFA0CF807FA0CF726EA0806374380
:10049000CEF820700F7906684FEA430807F003078B
:1004A00004FA08FC07FA08F726EA0C063743076047
:1004B0004E6816F4403F1CD04A4E376847F002079A
:1004C000376036689F0706F00206009623F00306A1
:1004D00006F1B046B6463F0FD6F80864DFF808814B
:1004E0000AFA07FC404526EA0C0603D14FF0000C3F
:1004F00041E06CE0DFF8F4C0604502D14FF0010C40
:1005000039E0DFF8ECC0604502D14FF0020C32E078
:10051000DFF8E0C0604502D14FF0030C2BE0DFF8BC
:10052000D8C0604502D14FF0040C24E0DFF8CCC005
:10053000604502D14FF0050C1DE0DFF8C4C06045F6
:1005400002D14FF0060C16E0DFF8B8C0604502D1CA
:100550004FF0070C0FE0DFF8B0C0604502D14FF05C
:10056000080C08E0DFF8A4C0604502D14FF0090C88
:1005700001E04FF00A0C0CFA07FC4CEA060CCEF82E
:1005800008C44F68DBF80060FF0226EA020600D5C7
:1005900016435F46CBF80060D1F804C0DBF8046076
:1005A0005FEA8C2C26EA020600D516437E606E6850
:1005B0004F6826EA0206BF0300D516436E602E6818
:1005C0004F6826EA0206FF0300D516432E605B1C27
:1005D0000A6832FA03F67FF411AFBDE8F88F000025
:1005E00080000058F44402580000025800040258E9
:1005F00000080258000C025800100258001402585B
:1006000000180258001C025800200258002402580A
:10061000426921EA02030A4043EA024181617047CC
:100620000AB1816170470904FBE7000001480068D6
:10063000000C70470010005C0148806870470000A3
:1006400000000024024881680278114481607047EC
:1006500000000024032010B500F0ACF801F0B4F85D
:100660000F4A104914681368C4F3032203F00F0300
:100670008A5CC95C02F01F0201F01F01D0400A4AE7
:1006800020FA01F11160094908600F2000F010F80C
:1006900008B1012010BD00F051F8002010BD00008D
:1006A000184402587C320090100000240C000024F2
:1006B00010B5102804468AB02CD2002201463720FB
:1006C00000F058F8372000F047F817480460174842
:1006D000016841F020010160006809A900F02000D4
:1006E0000890684600F0FCFF0598B0B101F048F8AA
:1006F00040000F4900220F4CB0FBF1F10E4840F2D0
:10070000E7330460C0E90332491EC0E9011201F079
:10071000BBFB28B101200AB010BD01F031F8E8E7B9
:10072000054801F0E3FBF6E704000024E844025822
:1007300040420F0000140040AC000024054808B5FA
:10074000016841F002010160006800F002000090C1
:1007500008BD0000F4440258002809DB410900F0FC
:100760001F028900012001F1E0219040C1F8000141
:10077000704700000E4BF0B41B680D46C3F3022314
:10078000C3F10706042E00D90426191D072901D23A
:10079000002300E0DB1E012404FA06F19C40491E00
:1007A0002940641E994014402143F0BC02F05ABC19
:1007B0000CED00E0064900F0070210B54FF6FF040B
:1007C0000868044B204040EA02201843086010BD2E
:1007D0000CED00E00000FA05134970B50A68D24339
:1007E000520705D5096801F00701814213D118E0CD
:1007F0000A6822F0070202430A60FFF71DFF0A4D54
:100800004FF47A760446083D07E000BFFFF714FF77
:10081000001BB04201D9012070BD2868C04380048C
:10082000F4D4002070BD00000C48025810B500F050
:1008300085FF05490968054AC1F30211515C01F0C1
:100840001F01C84010BD0000204402587C320090B7
:10085000494930B5484C0B1D0A68143409681D68B5
:10086000246802F00303C5F30012C1F30531C4F399
:10087000CC04002914FB02F200EE102AF8EE400A24
:1008800075D03F4A9FED3D1AB7EE000A6BB1DFED20
:100890003D1A012B01D0022B64D002EE101A116810
:1008A000F8EE422A81EEA22A21E0334C283C23684C
:1008B0009B0612D5344B246801EE901A1168C4F3DC
:1008C000C104F8EE612AE34001EE903AC1F3080159
:1008D000F8EE611A81EEA22A0BE001EE901ADFED2C
:1008E0002B2A00BFF8EE611A116882EEA12AC1F32B
:1008F000080101EE901A1168F8EE611A40EE811AB3
:1009000071EE800A62EE200AC1F3462101EE101A50
:10091000B8EE411A31EE001AC0EE811ABCEEE11AAF
:1009200080ED001A1168C1F3064101EE101AB8EE0D
:10093000411A31EE001AC0EE811ABCEEE11A80EDC8
:10094000011A1168C1F3066101EE101AB8EE411ADE
:1009500031EE000A80EE801ABCEEC10A80ED020A78
:1009600030BD04E001EE901ADFED092ABAE700215C
:10097000016041608160F3E72844025800000039BB
:10098000384402580024744A0090D0030024744C68
:1009900020BCBE4B494930B5484C0B1D0A681C347D
:1009A00009681D68246802F00303C5F30022C1F33F
:1009B0000551C4F3CC04002914FB02F200EE102A06
:1009C000F8EE400A75D03F4A9FED3D1AB7EE000A97
:1009D0006BB1DFED3D1A012B01D0022B64D002EE8A
:1009E000101A1168F8EE422A81EEA22A21E0334C57
:1009F000283C23689B0612D5344B246801EE901ADC
:100A00001168C4F3C104F8EE612AE34001EE903AA4
:100A1000C1F30801F8EE611A81EEA22A0BE001EEA3
:100A2000901ADFED2B2A00BFF8EE611A116882EEF2
:100A3000A12AC1F3080101EE901A1168F8EE611ABB
:100A400040EE811A71EE800A62EE200AC1F346215F
:100A500001EE101AB8EE411A31EE001AC0EE811AFA
:100A6000BCEEE11A80ED001A1168C1F3064101EEF7
:100A7000101AB8EE411A31EE001AC0EE811ABCEE1F
:100A8000E11A80ED011A1168C1F3066101EE101A36
:100A9000B8EE411A31EE000A80EE801ABCEEC10AAF
:100AA00080ED020A30BD04E001EE901ADFED092A64
:100AB000BAE70021016041608160F3E728440258F1
:100AC00000000039404402580024744A0090D003CA
:100AD0000024744C20BCBE4B2DE9FE4F0546DFF8C8
:100AE000E48350F8081B0024F64FC943019005F138
:100AF0002800264608F12408009008011DD4A86E9D
:100B000050B1B0F5801F0CD0B0F5001F0ED0B0F57D
:100B1000401F1ED001240FE0386840F400303860D8
:100B200017E00198022101F00BFD03E0009802217B
:100B300001F096FD04000CD026462888C043C0056D
:100B400023D4A86D05281ED2DFE800F00C11161B77
:100B50001B00AA6ED8F8001021F440111143C8F808
:100B60000010EAE7386840F40030386009E0019886
:100B7000002101F0E5FC03E00098002101F070FD88
:100B8000044674B100E0012426462888C04380054D
:100B900028D4E86D80281ED00CDC90B140280ED1FE
:100BA00014E0AA6DD8F8001021F007011143C8F82D
:100BB0000010EAE7C02813D0B0F5807F10D00124E0
:100BC0000FE0386840F40030386009E001980021F7
:100BD00001F0B6FC03E00098002101F041FD04465D
:100BE0009CB126462888DFF8DC92C04309F12C0925
:100BF00040052CD4D5F8A800B0F5800F20D00DDC2E
:100C0000A0B1B0F5001F0FD115E0EA6DD8F80010C3
:100C100021F4E0711143C8F80010E3E7B0F5C00F0C
:100C200013D0B0F5000F10D001240FE0386840F465
:100C30000030386009E00198002101F081FC03E0F8
:100C40000098002101F00CFD04467CB1264628885E
:100C5000C04300052DD4D5F8AC00B0F1007F21D001
:100C60000EDCA8B1B0F1807F10D116E0D5F8A82035
:100C7000D9F8001021F460011143C9F80010E6E72B
:100C8000B0F1407F13D0B0F1806F10D001240FE09D
:100C9000386840F40030386009E00198002101F024
:100CA0004FFC03E00098002101F0DAFC044674B127
:100CB00026462868C04380011FD4E86CD8B11028AC
:100CC0000FD0202812D0302815D0012414E0D5F8F8
:100CD000AC20D9F8001021F0E0611143C9F80010F0
:100CE000E7E7386840F40030386004E001980221FA
:100CF00001F026FC044674B126462888C043C0048F
:100D00002BD4286EB0F5005F20D00DDCA0B1B0F57B
:100D1000805F0FD115E06B48EA6C2030016821F04C
:100D2000300111430160E8E7B0F5405F13D0B0F542
:100D3000804F10D001240FE0386840F40030386054
:100D400009E00198002101F0FBFB03E0009800217D
:100D500001F086FC04468CB126462888C0438004F6
:100D600029D4686EB0F5403F23D010DC08B3B0F54D
:100D7000803F14D0B0F5003F0FD115E02A6ED8F8AF
:100D8000001021F4E0411143C8F80010E5E7B0F588
:100D9000802F0ED0B0F5A02F0BD001240AE00198CF
:100DA000012101F0CDFB03E00098012101F058FC86
:100DB000044694B126462888C04340042AD4D5F876
:100DC000B000B0F1405F23D010DC08B3B0F1805F19
:100DD00014D0B0F1005F0FD115E06A6ED8F80010A2
:100DE00021F4E0211143C8F80010E4E7B0F1804F8E
:100DF0000ED0B0F1A04F0BD001240AE001980121E0
:100E000001F09EFB03E00098012101F029FC04465B
:100E100074B126462888C04300041FD4286FD8B177
:100E2000B0F1805F0ED0B0F1005F10D0012414E06B
:100E3000D5F8B020D9F8001021F0E0411143C9F8ED
:100E40000010E7E7386840F40030386004E00198AB
:100E5000012101F075FB044674B126462868C043A1
:100E6000C0011ED4A86CD0B101280ED0022811D028
:100E7000032814D0012413E02A6FD8F8001021F0C1
:100E800040511143C8F80010E8E7386840F40030DA
:100E9000386004E00198022101F052FB0446ACB135
:100EA00026462868DFF81CB0C043ABF11C0B40029B
:100EB00052D40548016841F480710160FFF7BCFB22
:100EC000824611E02C44025800480258FA48AA6CA5
:100ED000016821F0030111430160E2E7FFF7ACFB79
:100EE000A0EB0A00642835D8F4480068C005F5D5A1
:100EF0008CBBDFF8C4A3B5F8B4100AF1240ADAF801
:100F0000000001F4407100F44070884211D0DAF81A
:100F10000010DAF8002021F4407142F48032CAF85F
:100F20000020DAF8002022F48032CAF80020CAF843
:100F30000010D5F8B400B0F5807F1AD1FFF77CFB24
:100F4000029012E0FFF778FB0299411A41F28830D3
:100F500081420AD9032426462878DFF85CA3C043DF
:100F60000AF1080AC00721D03CE0DAF80000800747
:100F7000E8D5D5F8B410C1F30120032858460DD0A8
:100F8000016821F47C510160B5F8B420DAF8001052
:100F9000C2F30B021143CAF80010DDE7C84A036828
:100FA00002EA111223F47C511143ECE7E86F182890
:100FB00016D005DCA0B1082808D0102804D10AE01A
:100FC00020280DD028280BD001240AE00198012107
:100FD00001F0B6FA03E00098012101F041FB04465C
:100FE00064B126462878C04380071ED4A86F06281F
:100FF00019D2DFE800F0160C11161616EA6FDAF8AF
:10100000001021F038011143CAF80010EAE70198F6
:10101000012101F095FA03E00098012101F020FB85
:1010200004467CB100E0012426462878C0434007EE
:101030001FD4D5F89400062819D2DFE800F0160C6A
:1010400011161616AA6FDAF8001021F007011143E5
:10105000CAF80010E9E70198012101F071FA03E0F4
:101060000098012101F0FCFA0446A4B100E001243B
:1010700026462878C04380062BD4D5F89000B0F1DE
:10108000405F24D011DC10B3B0F1805F15D0B0F117
:10109000005F10D116E0D5F89420D9F8001021F0A7
:1010A00007011143C9F80010E3E7B0F1804F0ED0FB
:1010B000B0F1A04F0BD001240AE00198002101F00B
:1010C0003FFA03E00098022101F0CAFA044694B105
:1010D00026462878C04340062BD4D5F89C00B0F5AE
:1010E000406F24D011DC10B3B0F5806F15D0B0F58F
:1010F000006F10D116E0D5F89020DAF8001021F03A
:10110000E0411143CAF80010E3E7B0F5805F0ED06C
:10111000B0F5A05F0BD001240AE00198002101F096
:101120000FFA03E00098022101F09AFA044694B104
:1011300026462878C04300062BD4D5F8A000B0F589
:10114000C04F24D011DC10B3B0F5005F15D0B0F55E
:10115000804F10D116E0D5F89C20D9F8001021F46A
:10116000E0511143C9F80010E3E7B0F5004F0ED08D
:10117000B0F5204F0BD001240AE00198002101F0C6
:10118000DFF903E00098022101F06AFA044654B145
:1011900026462878C04300071ED4D5F88400B0F551
:1011A000805F0AD00FE0D5F8A020D9F8001021F414
:1011B00060411143C9F80010EBE70098022101F0EB
:1011C0004FFA00B10126D5F88420DAF8001021F496
:1011D00040511143CAF800102878C043C00613D408
:1011E000D5F89800B0F5807F05D10098022101F074
:1011F00037FA00B10126D5F89820D9F8001021F46B
:1012000040711143C9F800102868C043000316D488
:10121000D5F8A40038B1B0F5803F09D0B0F5003F53
:101220000BD001240AE00198002101F089F903E0C4
:101230000098022101F014FA04468CB12646286871
:10124000C043400322D4D5F88800B0F5801F11D0E8
:10125000B0F5001F13D0B0F5401F15D0012414E0E5
:10126000D5F8A420D9F8001021F440311143C9F871
:101270000010E4E7386840F40030386004E000987B
:10128000012101F0EDF904465CB126462868C0430F
:10129000C00323D4286DA8B1B0F5803F17D0012436
:1012A0001BE0D5F88820DAF8001021F44011114332
:1012B000CAF80010EAE700004C44025800480258FF
:1012C000CFFFFF00386840F40030386004E0019838
:1012D000022101F035F90446E4B126462868C043EE
:1012E000800005D40098022101F0BAF900B101266E
:1012F0002868C04380031BD4D5F88000B0B1B0F596
:10130000807F0FD0B0F5007F10D0B0F5407F0DD0BA
:1013100001240CE05A482A6D016821F48031114300
:101320000160DBE7386840F400303860ECB32646F3
:101330002868C043C00207D46A6FD8F8001021F0B3
:1013400000411143C8F800102868C043C00008D409
:10135000D5F8B820DBF8001021F480411143CBF818
:1013600000102868C043800207D4EA6ED8F8001045
:1013700021F080711143C8F800102868C043400074
:101380000CD4DBF8001021F40041CBF80010DBF89E
:101390000010D5F8BC201143CBF800102868C043DA
:1013A00008D437486A6D016800E018E021F0405128
:1013B000114301602868C043000208D4D5F88C208E
:1013C000DAF8001021F440011143CAF8001028791E
:1013D0000024C04300F0010020430AD00FE0D5F8FC
:1013E0008020DAF8001021F440711143CAF800108F
:1013F0009EE70198002101F0A3F800B10646287984
:10140000C04300F00200204305D10198012101F002
:1014100097F800B106462879C04300F00400204345
:1014200005D10198022101F08BF800B10646287918
:10143000C04300F00800204305D10098002101F0CE
:101440000FF900B106462879C04300F01000204390
:1014500005D10098012101F003F900B10646287971
:10146000C04300F02000044304D10098022101F0A1
:10147000F7F800B916B10120BDE8FE8F0020FBE7A8
:101480004C4402582DE9F05F04000F467ED0DFF88F
:101490003882D8F8000000F00F00B8420CD2D8F81B
:1014A000001021F00F013943C8F80010D8F80000EF
:1014B00000F00F00B84269D12078844D40070AD56A
:1014C0002069296801F07001884204D9296821F057
:1014D00070010143296020787C4E361D00070AD533
:1014E0006069316801F07001884204D9316821F0E7
:1014F0007001014331602078C0060AD5A0693168C7
:1015000001F4E061884204D9316821F4E0610143CB
:1015100031602078DFF8B4B180060BF1080B0CD5F0
:10152000E1695846DBF8002002F07002914204D9CC
:10153000026822F070020A430260207880070AD510
:10154000E068296801F00F01884204D9296821F078
:101550000F01014329602078C0073ED05B49A26893
:101560002868183920F470601043286060680228E9
:1015700018D0032819D00968012819D04907002973
:101580004ADADFF848A1AAF1080A00E044E0DAF8F4
:10159000002022F007020243CAF80020FFF74CF8AF
:1015A000814612E009688903E9E709688901E6E7ED
:1015B000C905E4E7FFF740F8A0EB090141F28830E4
:1015C000814202D90320BDE8F09F6168DAF800008B
:1015D00000F03800B0EBC10FECD1207880070AD5BD
:1015E000E068296801F00F01884204D2296821F0DF
:1015F0000F0101432960D8F80010404601F00F01A7
:10160000B9420BD9016821F00F013943016000682C
:1016100000F00F00B84201D00120D4E72078400745
:101620000AD52069296801F07001884204D229682E
:1016300021F0700101432960207800070AD5606914
:10164000316801F07001884204D2316821F07001E4
:10165000014331602078C0060AD5A069316801F4E1
:10166000E061884204D2316821F4E06101433160D5
:10167000207880060CD5E1695846DBF8002002F09E
:101680007002914204D2026822F070020A430260A2
:1016900000F09AF80E492A682B68C2F3032203F07F
:1016A0000F038A5CC95C02F01F0201F01F01D040E9
:1016B000084A20FA01F111600749086007480068EC
:1016C000BDE8F05FFEF7F4BF002000521844025856
:1016D0007C320090100000240C0000240400002440
:1016E00070B5144C3F220260124A24680832131D60
:1016F000114D04F00704446016681C1D06F4706662
:101700008660166806F00F06C660126802F0700266
:1017100002611A6802F0700242611A6802F4E06223
:101720008261226802F07002C261286800F00F0036
:10173000086070BD104402580020005230B500F01F
:1017400043F80B4A0B490C4B15681468C5F3032288
:1017500004F00F048A5C095D02F01F0201F01F0112
:10176000D040064A20FA01F119601060084630BDE9
:10177000184402587C320090100000240C00002411
:1017800000B5FFF7DBFF05490968054AC1F30211FF
:10179000515C01F01F01C84000BD00001C4402580C
:1017A0007C32009000B5FFF7C9FF05490968054A7A
:1017B000C1F30221515C01F01F01C84000BD0000CF
:1017C0001C4402587C320090454970B54548096870
:1017D000434B103B11F0380208D00111082A03D006
:1017E000102A0BD0182A0BD0084670BD196889063C
:1017F000FBD51968C1F3C101C84070BD3A4870BD3E
:101800003749374D18310C1D24350A680968266898
:101810002D6802F0030406F00102C1F30511C5F3BF
:10182000CC0515FB02F200EE102AB8EE400AE9B32F
:101830002F4ADFED2E0AB7EE001A6CB1DFED2D1A3C
:10184000012C01D0022C43D002EE101A1068F8EEE1
:10185000422A81EEA22A1EE01C68A40611D51B684C
:1018600001EE901A1168C3F3C103F8EE612AD84063
:1018700001EE900AC1F30800F8EE611A81EEA22A87
:101880000BE001EE901ADFED1C2A00BFF8EE611AA2
:10189000106882EEA12AC0F3080001EE900AF8EE6B
:1018A000611A40EE201A31EE810A00E015E022EEC6
:1018B000000A1068C0F34620401C00EE900AF8EEC3
:1018C000600A80EE201ABCEEC10A10EE100A70BD4C
:1018D00001EE901ADFED092AD8E7002070BD000064
:1018E000104402580090D00340787D010000003978
:1018F000304402580024744A0024744C20BCBE4B6F
:101900002DE9F05F04007DD0FF4F2078FE4D1837A1
:10191000DFF8F493103DC00748D0D9F800003968CB
:1019200000F03800102815D0182803D101F003006A
:1019300002280FD06068B0F5803F12D010B1B0F52A
:10194000A02F18D0286820F480302860286820F460
:10195000802009E02868800328D560680028D2D05C
:1019600024E0286840F480302860606888B1FEF781
:1019700063FE064609E0286840F480202860F0E70E
:10198000FEF75AFE801B64286FD828688003F7D5BD
:101990000CE0FEF751FE064605E000BFFEF74CFEE8
:1019A000801B6428F0D828688003F7D4207841F29F
:1019B0000308D54E0C3E800769D5D9F80000396878
:1019C00010F038000ED0182801D188070AD0E0683E
:1019D00090B3296821F0190101432960FEF72CFE1C
:1019E000824631E02868400702D5E06800288AD0A6
:1019F000E168286820F0190008432860FEF71CFE03
:101A0000824607E0DFE000BFFEF716FEA0EB0A000B
:101A10000228B9D828684007F6D500BFFEF706FEB1
:101A200040451BD82069402812D0316821F47C3110
:101A300041EA003030602AE018E000BFFEF7FCFD0C
:101A4000A0EB0A0002289FD828684007F6D5E5E7F2
:101A5000306820F47C3040F40030EBE7207C3168C3
:101A600021F0FE4141EA0060E4E70DE1286820F042
:101A700001002860FEF7E0FD824605E0FEF7DCFD90
:101A8000A0EB0A0002288DD828684007F6D42078F9
:101A9000C0065DD5D9F80000DFF86CB2396800F0F7
:101AA0003800ABF1040B082810D0182803D101F03E
:101AB000030001280AD0E0690028286838D040F0E7
:101AC00080002860FEF7B8FD824623E02868C00544
:101AD00023D5E069802876D11FE0206A202821D014
:101AE000316821F0F84141EA8060306030E000BFA9
:101AF00094F82010DBF8002022F07C5242EA0161C9
:101B0000CBF8001024E000BFFEF796FDA0EB0A0022
:101B1000022898D82868C005F6D5FEF787FD40450D
:101B2000E6D8DAE7306820F0F84040F08040DCE7A3
:101B300020F080002860FEF77FFD064605E000BF2C
:101B4000FEF77AFD801B02289DD82868C005F7D4CF
:101B50002078000729D56C486169643000298046E7
:101B6000016811D041F001010160FEF765FD0646F4
:101B700005E000BFFEF760FD801B0228C9D8D8F839
:101B800000008007F6D510E021F001010160FEF7AA
:101B900053FD064605E000BFFEF74EFD801B022800
:101BA00072D8D8F800008007F6D42078800623D5B4
:101BB000A0690028286810D040F480502860FEF703
:101BC0003BFD064605E036E1FEF736FD801B0228A8
:101BD0005AD828688004F7D50EE020F48050286099
:101BE000FEF72AFD064604E0FEF726FD801B0228CC
:101BF0004AD828688004F7D4207840074FD5DFF80A
:101C00000C81D8F8001041F48071C8F80010FEF77C
:101C100013FD064605E000BFFEF70EFD801B64289D
:101C200032D8D8F80000C005F6D5374EA068603627
:101C300001280AD008B1052813D0306820F001002F
:101C40003060306820F0040002E0306840F00100AD
:101C50003060A06841F2883A90B1FEF7EDFC804612
:101C60000AE0306840F004003060EEE7FEF7E4FC84
:101C7000A0EB0801514507D830688007F6D50EE083
:101C8000FEF7DAFC804607E084E000BFFEF7D4FCF4
:101C9000A0EB080151457DD830688007F6D4606A12
:101CA000B0B3DFF86480D9F8001008F120084FF6CF
:101CB000F87B08F10409C1F3C2010329A8F1040A61
:101CC00069D00228286820F08070286003D0FEF7D1
:101CD000B3FC044684E0FEF7AFFC064605E000BF17
:101CE000FEF7AAFC801B022877D828688001F7D469
:101CF000E26A40F2F331386854F8283F884340EAFA
:101D000002101843386004E010440258004802589A
:101D1000B5E0217B434622894FF4FE0C208A4FF028
:101D2000FE474902267D521E401EA1F50071C2F3F6
:101D300008088AB2761E0CEA004042EA0802024312
:101D4000504607EA06610A431A60DAF8002022F0DA
:101D50000102CAF80020D9F80020266A22EA0B0204
:101D600042EAC602C9F80020DAF80010A26921F0A0
:101D70000C011143CAF800100168E26921F0020168
:101D800011430160016841F480310160016841F450
:101D9000003101E021E027E00160016841F4802189
:101DA0000160016841F001010160286840F0807025
:101DB0002860FEF741FC044605E000BFFEF73CFC4E
:101DC000001B022809D828688001F7D557E000BF1A
:101DD000FEF732FC001B022802D90320BDE8F09F69
:101DE00028688001F4D44AE039680128D8F8000056
:101DF00021D0A26A01F0030393421CD1E26AC1F32D
:101E000005118A4217D1216BC0F30802491E8A428C
:101E100011D1616BC0F34622491E91420BD1A16BD7
:101E2000C0F30642491E914205D1E16BC0F3066042
:101E3000491E814201D00120D0E7A16C4E46D9F85D
:101E40000000C0F3CC00814219D0DAF800005546FA
:101E500020F00100CAF80000FEF7EEFB4FEA000791
:101E6000FEF7EAFBB842FBD0A26C306820EA0B0018
:101E700040EAC2003060286840F00100286000207D
:101E8000ACE770477047704710B5040003D094F872
:101E90003D0010B107E0012010BD002084F83C0097
:101EA000204600F022F8022084F83D002068211D21
:101EB00000F04AFD012084F8480084F83E0084F8D0
:101EC0003F0084F8400084F8410084F8420084F820
:101ED000430084F8440084F8450084F8460084F800
:101EE000470084F83D00002010BD704790F83D1079
:101EF000012901D001207047174A022180F83D10C6
:101F00000168CB6843F00103CB600068904214D0B5
:101F1000B0F1804F11D0114988420ED0104988424B
:101F20000BD01049884208D00F49884205D00F498C
:101F3000884202D00E49884207D181680D4A11407B
:101F4000062906D0B1F5803F03D0016841F00101B8
:101F500001600020704700000000014000040040C4
:101F600000080040000C0040000401400018004040
:101F70000040014007000100704770B5044600684A
:101F800000250169C943890715D4C168C943890778
:101F900011D4EA1E0261012121772068806980073F
:101FA000204602D0FFF7E8FF04E000F0A7F8204643
:101FB00000F0A5F8257720680169C943490717D4BF
:101FC000C168C943490713D402216FF004020261BA
:101FD00021772068806910F4407F204602D0FFF707
:101FE000CBFF04E000F08AF8204600F088F825775F
:101FF00020680169C943090716D4C168C9430907A4
:1020000012D404216FF00802026121772068C069B0
:102010008007204602D0FFF7AFFF04E000F06EF823
:10202000204600F06CF8257720680169C943C9068D
:1020300017D4C168C943C90613D408216FF0100230
:10204000026121772068C06910F4407F204602D0E9
:10205000FFF792FF04E000F051F8204600F04FF83F
:10206000257720680169C943C90708D1C168C943F8
:10207000C90704D1891E0161204600F041F820689B
:102080000169C943090609D4C168C943090605D4D1
:102090006FF0800101612046FFF7F4FE20680169BE
:1020A000C943C90509D4C168C943090605D46FF4F9
:1020B000807101612046FFF7E4FE20680169C94391
:1020C000490609D4C168C943490605D46FF04001E7
:1020D0000161204600F01EF820680169C9438906A5
:1020E0000BD4C168C943890607D46FF02001016190
:1020F0002046BDE87040FFF7C6BE70BD7047704710
:1021000000680349884201D1FEF79CBA704700007D
:1021100000140040704730B590F88410012918D0A1
:10212000012280F884202421C0F888100022202475
:1021300001680B680D6823F0005325F001050D6060
:10214000426601680B60C0F8884080F88420104621
:1021500030BD022030BD70B5044690F884000128DF
:102160001DD0012284F884202420C4F8880020682F
:102170000568026822F0010202602068826822F08D
:1021800060620A438260204600F040FC2268202101
:1021900000201560C4F8881084F8840070BD022007
:1021A00070BD70B5044690F8840001281DD001224E
:1021B00084F884202420C4F8880020680568026818
:1021C00022F0010202602068826822F060420A4325
:1021D0008260204600F01AFC226820210020156051
:1021E000C4F8881084F8840070BD022070BD10B55A
:1021F000040003D0D4F8880010B107E0012010BD1E
:10220000002084F88400204600F026F82420C4F83A
:1022100088002068016821F001010160204600F07B
:10222000FBFC0128EBD0A06A10B1204600F010FCA6
:102230002068416821F4904141602068816821F064
:102240002A0181602068016841F001010160204697
:10225000BDE8104000F060BC70B5B6B00446142173
:1022600030A8FEF76DF8C0216846FEF769F82149ED
:10227000206888423CD100201E9002210446CDE90E
:1022800000106846FEF728FC08B1FEF797F81A48D8
:10229000016841F400210160006800F400203590DD
:1022A00015480838016841F480710160016801F443
:1022B00080713591016841F00101016000680225DB
:1022C000082600F00100359028023090CDE9315405
:1022D0000A4830A9CDE93346FEF784F80120309052
:1022E000CDE93154064830A9CDE93346FEF77AF8F6
:1022F00036B070BD004C0040E8440258002002583F
:10230000000002582DE9F8430446D0F888009846AA
:1023100016460D46202802D00220BDE8F883A5B15C
:102320009EB10021C4F890102120C4F88800183410
:10233000FEF782F9814654F8100CA687E68720271D
:10234000183CB0F5805F02D003E00120E5E720698A
:1023500010B12E46002510E000260EE08021204618
:1023600000F030FEC0B9DEB116F8010B21688862BA
:10237000B4F85600401EA4F85600B4F856004B4678
:102380004FF00002CDF800800028E7D14FF0400167
:10239000204600F017FE48B1C4F888700320BCE75F
:1023A00035F8020B2168C0F30800E0E7C4F8887034
:1023B0000020B2E7FEE700002DE9F04387B01421CA
:1023C0006846FDF7BDFF3C48016841F0040101602B
:1023D000016801F004010591016841F48071016018
:1023E000016801F480710591016841F040010160CC
:1023F000016801F040010591016841F08001016030
:10240000016801F080010591016841F0200101603F
:10241000016801F020010591016841F001010160AE
:1024200000680122DFF89480D60300F001003146F5
:1024300005904046FEF7F4F8DFF88490F71100228B
:1024400039464846FEF7ECF8012469460025404627
:10245000CDE90064CDE90245FDF7C4FF0097694668
:10246000CDE9014548460395FDF7BCFF0A210294DA
:10247000022603274020CDE90371CDE9000611486B
:102480006946FDF7AFFF092102958020CDE9037170
:10249000CDE900060C486946FDF7A4FF0C21029621
:1024A0002020CDE90006CDE9037108486946FDF713
:1024B00099FF07B0BDE8F083E044025800080258D5
:1024C000002002580018025800140258001C02583C
:1024D0001848002110B5164C0C224FF4E13304606B
:1024E000C0E90131C160C0E904128161C1610162CA
:1024F00041628162FFF77BFE08B1FDF75FFF0D4887
:102500000021FFF74EFE08B1FDF758FF09480021F2
:10251000FFF721FE08B1FDF751FF0648FFF7FBFD6D
:10252000002803D0BDE81040FDF748BF10BD0000F3
:10253000004C004018000024FEE7FEE77047000052
:102540002DE9F047454D044689464FF0000A2868BA
:10255000C04380070AD0414E283E306820F080609A
:102560003060FEF769F80746B04608E00120BDE894
:10257000F08700BFFEF760F8C01B022867D8D8F8C4
:1025800000000001F6D4206829684FF4FE0721F40A
:102590007C313E0241EA00302860207AA389B4F8F9
:1025A00004C040022D4D2D495B1E227CACF1010C74
:1025B0001035091DA0F5007080B2521ECCF3080C36
:1025C00007EA034340EA0C00184306EA026210439C
:1025D00028600868626920F0C000104308600A683B
:1025E000A06922F0200202430A60281D0A6822F036
:1025F00010020A6002684FF6F873E4699A4342EAEF
:10260000C40202600868B9F1000F40F010020A60CD
:1026100011D00868B9F1010F11D040F40010086022
:10262000D8F80000444640F08060C8F80000FEF78B
:1026300003F805460DE0086840F40020EFE740F499
:102640008010ECE7FDF7F8FF401B022801D90320BA
:102650008DE720680001F5D5504688E728440258E8
:102660002DE9F047454D044689464FF0000A286899
:10267000C04380070AD0414E283E306820F0805089
:102680003060FDF7D9FF0746B04608E00120BDE8FD
:10269000F08700BFFDF7D0FFC01B022867D8D8F82D
:1026A00000008000F6D4208829684FF4FE0721F04E
:1026B0007C713E0241EA00502860207AA389B4F878
:1026C00004C040022D4D2D495B1E227CACF1010C53
:1026D0001835091DA0F5007080B2521ECCF3080C0D
:1026E00007EA034340EA0C00184306EA026210437B
:1026F00028600868626920F44060104308600A6836
:10270000A06922F4007202430A60281D0A6822F4BC
:1027100080720A6002684FF6F873E4699A4342EAED
:10272000C40202600868B9F1000F40F480720A60C8
:1027300011D00868B9F1010F11D040F08070086025
:10274000D8F80000444640F08050C8F80000FDF77B
:1027500073FF05460DE0086840F48000EFE740F4A1
:102760000000ECE7FDF768FF401B022801D90320B9
:102770008DE720688000F5D5504688E72844025848
:102780007047704770B59CB04C216846FDF7D8FD86
:10279000202113A8FDF7D4FD0220FEF71DF82D49D6
:1027A00000242D480A6822F001020A600A680268C3
:1027B00042F440420260026802F440421B92026806
:1027C0009204FCD5254A136843F002031360126893
:1027D00002F002021B92026842F440420260026868
:1027E0000A6842F001020A60096801F001011B91C8
:1027F00001688904FCD50DF1280C022009900521FF
:10280000C0228CE80700C3030F9008250D90012615
:102810000E90CDE91054CDE9006368461294FFF79D
:102820006FF808B172B6FEE740201A903F2103010D
:10283000CDE916500322CDE9180313AB13A883E8A2
:1028400016000421FEF71EFE002801D072B6FEE736
:102850001CB070BD2C04005818480258F4440258AB
:102860002C48F0B52C4A016841F4700101601068F1
:1028700000F00F00072804D2106820F00F00C01DE0
:10288000106026490020254C10340B68244D43F07D
:1028900001030B6020600B682B400B60136803F092
:1028A0000F03072B04D9136823F00F03DB1D1360FC
:1028B0001A4C1C4A18341C4B261D371D2060174C1F
:1028C0001A4D28343060261D3860371D23603B1DAB
:1028D00035601C1D3A60251D2E1D1860331D2260B9
:1028E0002860326018600A680C4B114C22F4802278
:1028F00060330A60186020686FF30F00B0F1005F6A
:1029000003D20C490120C1F8080143F2D2000A4960
:102910000860F0BD88ED00E000200052004402583D
:102920007FEDF6EA80020101000202020000FF01D1
:102930000010005C00800051004000520148FFF789
:102940001CBB0000AC0000242DE9F047274B4FF0E2
:10295000804A274D02689842264E274F274C09D0BF
:10296000504507D0A84205D0B04203D0B84201D0AC
:10297000A04205D1D1F804C022F070024CEA020254
:10298000DFF87CC0DFF87C809842DFF87C900FD0C5
:1029900050450DD0A8420BD0B04209D0B84207D064
:1029A000A04205D0604503D0404501D0484503D141
:1029B000CD6822F440722A434D6922F080022A43F6
:1029C000026098428A68C2620A68826207D0A042A6
:1029D00005D0604503D0404501D0484501D1096983
:1029E000016301214161BDE8F08700000000014062
:1029F0000004004000080040000C004000040140BA
:102A000000400140004401400048014030B5416EA3
:102A1000B9B101680D4B03F108048A688968C2F3F3
:102A20004262490F5D5C615C2D01B5FBF1F1A0F8DC
:102A30006A10995CA25C0901B1FBF2F1A0F8681080
:102A400030BD0121A0F86A10F8E700006C32009058
:102A500090F82810C90706D00168C36A4A6822F4B2
:102A600000321A434A6090F82810890706D5016899
:102A7000036B4A6822F480321A434A6090F82810A7
:102A8000490706D50168436B4A6822F480221A433D
:102A90004A6090F82810090706D50168836B4A68D8
:102AA00022F400421A434A6090F82810C90606D55D
:102AB0000168C36B8A6822F480521A438A6090F8D6
:102AC0002810890606D50168036C8A6822F4005232
:102AD0001A438A6090F82810490611D50168436CA2
:102AE0004A6822F480121A434A60416CB1F5801F93
:102AF00006D10168836C4A6822F4C0021A434A6016
:102B000090F82810090606D50168C26C486820F4C0
:102B100000201043486070472DE9F8430025044623
:102B2000C0F89050FDF788FD8046206820266FF0A1
:102B30007E470068000713D5002243463104204633
:102B4000009700F03FFA58B1216851E8000F20F0DB
:102B5000800041E80002002AF6D1C4F8886021E034
:102B600020680068400722D5002243464FF48001C8
:102B70002046009700F026FAC8B1206850E8001FF0
:102B800021F4907140E80012002AF6D12068083044
:102B900050E8001F21F0010140E80012002AF5D1A1
:102BA000C4F88C60032084F88450BDE8F883C4F82E
:102BB0008860C4F88C60E5662567002084F884503E
:102BC000F3E7000010B5026852E8001F21F490718D
:102BD00042E80013002BF6D10E4B0268083252E88F
:102BE000001F194042E80014002CF6D1C16E0129E3
:102BF00008D1026852E8001F21F0100142E80013DA
:102C0000002BF6D100212022C0F88C20C16641673C
:102C100010BD0000FEFFFFEF2DE9F0430446806881
:102C2000D84E87B0D84B2168D4E90427D4F81CC00B
:102C300010430A68002547EA0C0738433240024334
:102C40000A602068E268416821F440511143416004
:102C50002268A1699A4201D0206A01439768DFF88F
:102C60002CC3CB4ECB4807EA0C070F439760216873
:102C7000676ACA6A22F00F023A43CA622268B24205
:102C80000ED1006800F03800182873D047DCB8B3C4
:102C9000082879D010286FD178E028287ED17BE0F1
:102CA000BD498A4209D1006800F00700062875D2A4
:102CB000DFE800F0546A6C6E7072B8498A4209D13C
:102CC000006800F00700062868D2DFE800F0475DE2
:102CD0005F616365B2498A4209D1006800F007006C
:102CE00006285BD2DFE800F03A5052545658AD49FE
:102CF0008A420BD1006800F0070006284ED200E09F
:102D000010E0DFE800F02B4143454749A6498A42DD
:102D10000AD1006800F03800182839D0B7DD202823
:102D2000BBD13CE001203AE0A0498A4209D10068C9
:102D300000F00700062831D2DFE800F01026282A2C
:102D40002C2E9B498A420BD1006800F00700062810
:102D500024D2DFE800F003191B1D1F2100201EE014
:102D60009A421BD18B48001D006800F0070006281E
:102D700014D202E00CE007E010E0DFE800F0030509
:102D800007090B0D02200AE0042008E0082006E0F5
:102D9000102004E0202002E0402000E0802085494F
:102DA000DFF814829A42854A4FF400434FEA211714
:102DB0004FF000064ED110281AD006DC022809D0A8
:102DC00004280BD008287CD10DE020283ED04028D4
:102DD00077D13DE0FDF72AFD014610E06846FDF79A
:102DE00037FD01990BE003A8FDF7D4FD049906E037
:102DF0001068800605D51068C0F3C100C1400029E5
:102E000070D0606A676838F8102007EB4703B1FBA1
:102E1000F2F0834255D8B0EB073F52D80023084662
:102E20001946FDF755FA02467808130E120243EAD6
:102E3000012110183A4671410023FDF749FA604A12
:102E4000A0F5407191423CD821688FE03946D8E71F
:102E50001946D6E7D4F81CC04FF6EF799C4546D109
:102E6000082819D005DC58B101280CD0042875D1E8
:102E70000DE0102815D0202835D040286ED134E040
:102E8000FEF77EFC01E0FEF78DFC014610E068468F
:102E9000FDF7DEFC01990BE003A8FDF77BFD04992B
:102EA00006E01068800604D51068C0F3C100C14078
:102EB000C1B1636A606838F81330B1FBF3F14900BF
:102EC00000E04BE001EB5001B1FBF0F0A0F110018C
:102ED000494543D84FF6F0732168C0F342021840C9
:102EE000104343E043E03946E3E71946E1E70828A9
:102EF00019D005DC58B101280CD004282ED10DE0E2
:102F0000102815D020282BD0402827D12AE0FEF702
:102F100037FC01E0FEF746FC014610E06846FDF78D
:102F200097FC01990BE003A8FDF734FD049906E036
:102F30001068800604D51068C0F3C100C140B1B16B
:102F4000636A606838F81330B1FBF3F101EB5001AC
:102F5000B1FBF0F0A0F11001494505D9012506E0CB
:102F60003946EDE71946EBE7216880B2C8600120D9
:102F7000A4F86A00A4F8680028466667A66707B048
:102F8000BDE8F083F369FFCF000C0058FFF4FF1198
:102F900000100140544402580044004000480040E2
:102FA000004C0040005000400014014000780040F8
:102FB000007C00400090D00354320090004402583E
:102FC000FFFC0F002DE9F047994617460E460446D0
:102FD000089D4FF000082FE0681C2DD0FDF72CFB5A
:102FE000A0EB0900A84214D89DB1206801684907E8
:102FF00022D5C169C94309070DD4082505622046B9
:10300000FFF7E0FDC4F89050012084F88480BDE80B
:10301000F0870320FBE7C069C04300050CD421689A
:103020004FF4006008622046FFF7CCFD2021C4F871
:10303000901084F88480ECE72068C06936EA0000CC
:1030400004D00020B842C7D00020E0E70120F9E713
:10305000FEE70000014A024900F024B8C9300090A0
:1030600014000024090700284FEA116104DB00F175
:10307000E02080F80014704700F00F0000F1E0201D
:1030800080F8141D704702E008C8121F08C1002A0A
:10309000FAD170477047002001E001C1121F002AD9
:1030A000FBD170472DE9F04116460F460446002536
:1030B00003E03946B047641C6D1C20780028F8D125
:1030C0002846BDE8F081000013B50448FF23012223
:1030D0006946FFF717F900981CBD0000180000248E
:1030E000424B00201968890311D4BFF34F8FBFF3FF
:1030F0006F8F3F490860BFF34F8FBFF36F8F196821
:1031000041F400311960BFF34F8FBFF36F8F19681F
:10311000C90322D4354970310860BFF34F8F081FAF
:1031200043F6FF740068324D1035C0F34E31C0F3E2
:10313000C90204EA4116104646EA80772F60401E15
:10314000FAD2491EF5D2BFF34F8F186840F4803091
:103150001860BFF34F8FBFF36F8FFDF77BFAFFF758
:1031600011FBFFF729F9FFF7B3F92248FFF772FFC8
:103170002148FFF76FFF2148FFF76CFF2048FFF75A
:1031800069FF2048FFF766FF1F48FFF763FF1F48EE
:10319000FFF760FF1E48FFF75DFF1E48FFF75AFF6D
:1031A0001D48FFF757FF1D48FFF754FF1C48FFF766
:1031B00051FF1C48FFF74EFF1B48FFF74BFF1B4812
:1031C000FFF748FF1A48FFF745FF1AA0FFF742FF35
:1031D0001F4D4FF480744FF4FA7621462846FDF7D0
:1031E00017FA3046FDF7ECF8F7E7000014ED00E0C1
:1031F00050EF00E0E03600901435009070350090FC
:10320000EC3200905C340090B834009000340090B0
:10321000843600902836009048330090CC350090DA
:10322000A43300903837009094370090F037009026
:103230008C320090206A756D7020746F2061707000
:103240003120737563636573730D0A0D0A0D0A00EF
:1032500000200258010002000400060008000A00D5
:103260000C0010002000400080000001010101035B
:103270000701000008040204080101010000000029
:103280000102030401020304060708094141414108
:1032900041414120202020202020202020202020CB
:1032A00020202020202041414141414141505050A7
:1032B00050505050505050202020202020202020BE
:1032C000205050505050505050505020202020201E
:1032D0002020202020313131313131313131313133
:1032E00031200D0A0D0A0D0A0000000020202020C8
:1032F0002020202020202020413A3A3A3A3A3A3AF7
:103300004120202020202020202020202050503A22
:103310003A3A3A3A502020202020503A3A3A3A3A63
:103320005050503A3A3A3A3A502020202020503A11
:103330003A3A3A3A503131313A3A3A3A3A3120202F
:103340002020200D0A000000202020202020413ACB
:103350003A3A3A3A4141414141414141413A3A3A8E
:103360003A3A412020202020202020503A3A3A3A70
:1033700050202020202020202020202020202050ED
:103380003A3A3A3A502020202020202020202020A5
:1033900020202020313A3A3A3A6C20202020200D7B
:1033A0000A00000020202020413A3A3A3A3A4141AE
:1033B00041414141414141414141413A3A3A3A3A20
:1033C00041202020202020503A3A3A3A5020202014
:1033D0002020202020202020202020503A3A3A3A55
:1033E00050202020202020202020202020202020AD
:1033F000313A3A3A3A6C20202020200D0A00000091
:10340000202020202020202020413A3A3A3A3A41F8
:1034100020413A3A3A3A3A412020202020202020E8
:10342000202020503A3A3A3A5050505050503A3AB0
:103430003A3A3A50202020503A3A3A3A50505050B6
:1034400050503A3A3A3A3A5020202020313A3A3A0B
:103450003A31202020200D0A0000000020202020EA
:1034600020202020202020413A3A3A3A3A3A3A3A6B
:103470003A412020202020202020202020202050E1
:103480003A3A3A3A502020202020503A3A3A3A3AF2
:10349000502020503A3A3A3A502020202020503AEA
:1034A0003A3A3A3A50202020313A3A3A3A312020FA
:1034B00020200D0A000000002020202020202020B5
:1034C0002020413A3A3A3A3A413A3A3A3A3A412095
:1034D0002020202020202020202020503A3A3A3A54
:1034E000502020202020503A3A3A3A3A502020509A
:1034F0003A3A3A3A502020202020503A3A3A3A3A82
:1035000050202020313A3A3A3A31202020200D0A2A
:10351000000000002020202020202020202020202B
:103520002020413A3A3A412020202020202020200B
:103530002020202020503A3A3A3A3A3A3A3A3A3A57
:103540003A3A3A3A3A3A502020503A3A3A3A3A3AE3
:103550003A3A3A3A3A3A3A3A3A3A50202020313A0C
:103560003A3A3A3A3A31202020200D0A0000000071
:1035700020202020202020202020202020413A3AF6
:103580003A3A3A41202020202020202020202020CC
:1035900020503A3A3A3A3A3A5050505050503A3A0B
:1035A0003A3A3A5020503A3A3A3A3A3A5050505011
:1035B00050503A3A3A3A3A5020313A3A3A3A3A3A4C
:1035C0003A31202020200D0A000000002020202079
:1035D00020413A3A3A3A3A3A3A3A3A3A3A3A3A3A5E
:1035E0003A3A3A3A3A3A3A412020202020202050D4
:1035F0003A3A3A3A50202020202020202020202033
:10360000202020503A3A3A3A5020202020202020F2
:103610002020202020202020313A3A3A3A6C2020E5
:1036200020200D0A00000000202020202020204122
:103630003A3A3A3A3A412020202020413A3A3A3A5E
:103640003A41202020202020202020503A3A3A3AA7
:10365000505050505050505050202020202020508A
:103660003A3A3A3A50505050505050505020202042
:1036700020202020313A3A3A3A6C202020200D0AAE
:10368000000000002020202020202020413A3A3A4B
:103690003A3A41202020413A3A3A3A3A4120202011
:1036A00020202020202020503A3A3A3A3A3A3A3A1A
:1036B0003A3A3A3A3A505020202020503A3A3A3A90
:1036C0003A3A3A3A3A3A3A3A3A50502020202020B0
:1036D000313A3A3A3A6C202020200D0A00000000CE
:1036E00020202020202020202020202020202041B9
:1036F0004141202020202020202020202020202088
:1037000020505050505050505050505050505050E9
:103710005050202020505050505050505050505039
:103720005050505050502020202020313131313124
:1037300031312020200D0A00202020413A3A3A3A27
:103740003A4120202020202020202020202020411D
:103750003A3A3A3A3A412020202050503A3A3A3AFE
:103760003A3A505020202020202020202020505065
:103770003A3A3A3A3A3A505020202020202020204D
:1037800020203131313A3A3A3A3A3A313131200D4A
:103790000A0000002020413A3A3A3A3A41202020DB
:1037A000202020202020202020202020413A3A3AAA
:1037B0003A3A412020503A3A3A3A3A3A3A3A502084
:1037C000202020202020202020503A3A3A3A3A3A2D
:1037D0003A3A5020202020202020202020313A3A40
:1037E0003A3A3A3A3A3A3A3A31200D0A00000000A1
:1037F00020413A3A3A3A3A41202020202020202005
:10380000202020202020202020413A3A3A3A3A41F4
:1038100020503A3A3A3A3A3A3A3A50202020202078
:103820002020202020503A3A3A3A3A3A3A3A502068
:10383000202020202020202020313A3A3A3A3A3ADB
:103840003A3A3A3A31200D0A000000006C380090F4
:10385000000000241800000086300090843800909A
:1038600018000024E00800009630009001000000DD
:1038700010000000000000000090D0030090D00372
:043880000000000044
:0400000590000299CC
:00000001FF
